:1000000088FBFF1FB1E90100239D000063A50000EC
:100010003FB80000EBC90000A7CA000000000000C4
:1000200000000000000000000000000063CB0000A2
:100030006BCC00000000000093CD0000DBCD000081
:1000400005ED01000DED010015ED01001DED0100B4
:1000500025ED01002DED010035ED01003DED010024
:1000600045ED01004DED010055ED01005DED010094
:1000700065ED01006DED010075ED01007DED010004
:1000800085ED010055EE010055EE010055EE010031
:1000900055EE010055EE010055EE010055EE010050
:1000A0008DED010095ED01009DED0100A5ED010034
:1000B000ADED0100B5ED010055EE0100BDED010013
:1000C000C5ED01003DF80000CDED0100D129010092
:1000D000D5ED0100DDED0100E5ED010003CE0000EE
:1000E00055EE010055EE010055EE010055EE010000
:1000F00055EE010055EE010055EE0100719E000025
:1001000055EE010055EE010055EE010055EE0100DF
:1001100055EE010055EE010055EE010055EE0100CF
:1001200055EE010055EE010093830100592F0100A7
:1001300055EE01009D2F010055EE010055EE010026
:1001400055EE0100EDED0100F5ED0100FDED0100C2
:100150008917010005EE010055EE010055EE010082
:1001600055EE01001BCE00000DEE010015EE010062
:100170001DEE010025EE01002DEE010035EE01001F
:100180003DEE010045EE010055EE010055EE010087
:1001900055EE010055EE010055EE010055EE01004F
:1001A00055EE010055EE010055EE010055EE01003F
:1001B00055EE010055EE010055EE010055EE01002F
:1001C00055EE010055EE010055EE010055EE01001F
:1003F00055EE010055EE010055EE0100FFFFFFFF35
:10040000FFFFFFFFFFFFFFFFFFFFFFFFFEFFFFFFFD
:10041000DFF8F42CC2E900017047DFF8EC0CD0E9FA
:10042000000170471CB504460FF2580006F056FB59
:10043000204606F053FB6946204602F0AFFD04005B
:100440001DD19DF8000028B90A2006F095FD002175
:10045000002006E0012806D1092006F08DFD0021CC
:10046000012006F06FFC0FF2340006F037FB9DF818
:10047000000006F03EFB0FF2340006F02FFB204692
:1004800016BD00000D0A496E2050726F63657373CC
:100490005365744D6F64652D3E0000000D0A4D6F6D
:1004A0006465207365742061732000000D0A302D8F
:1004B0003E4155544F2C20312D3E4D414E55414C1F
:1004C000200000002DE9F8410446DFF8408C83B09D
:1004D000404606F003FB204606F000FB02232C22D8
:1004E00001A9204606F000FE0646DFF8240C06F0BF
:1004F000F5FA002E0BDD01AF34467BA557F8040B4F
:1005000006F0ECFA284606F0E9FA641EF6D1022E4F
:1005100040F09080019B187860B10A2200211846B3
:1005200006F030FF044606F02FFF08B1009401E00A
:10053000002400E0012406F0F7FF064606F0F6FF6F
:100540000768002007F0D8FC14B908F1240061E026
:100550003068022860D0002006F088FC9DF800007A
:10056000401E06284CD8DFE800F0041220393B3F3B
:100570004400062008F0A9FB002006F071FC08F0FA
:100580006BFCDFF8641C0020C867022029E006200D
:1005900008F09BFB002006F063FC08F05DFCDFF830
:1005A000481C0020C86703201BE0062008F08DFBD4
:1005B000002006F055FC08F04FFC08F0ABFFDFF818
:1005C000281C0020C867042006F0D6FC012008F093
:1005D0007CFBDFF8181C0120087011E0052000E00A
:1005E000062006F0C9FC0BE008F0BAFE08F034FC67
:1005F00006E0DFF85C0D7F1C0770012006F030FC80
:100600000FF2400006F06AFA9DF8000006F071FA59
:1006100008F14C0006F062FA0FF2280006F05EFACC
:100620009DF8000006F065FA08F14C0006F056FA55
:10063000002404E008F1900006F050FA032420465C
:1006400031E300000A204D616E75616C204D6F64CE
:10065000652053657456616C7565203A2000000072
:1006600078B50546ABB00FF2302006F037FA2846D1
:1006700006F034FA06F090FA044608F01FFB06462E
:1006800009A82146242208F07BFF09A9284602F088
:100690007DFB050025D1204609A9242208F070FF22
:1006A000304609A9242208F06BFFE069DFF8A42C8A
:1006B0000890617D0791207D0690E17C0591A07CEA
:1006C0000490617C0391207C0290E1680191642197
:1006D0006068009012A8236808F096FF12A806F040
:1006E000FDF928462CB070BD2C0000002DE9F84320
:1006F000044684B0DFF8600C06F0F0F9204606F0FE
:10070000EDF9DFF8580C06F0E9F9204606F0E6F9B5
:1007100003232C2201A9204606F0E6FC0746DFF859
:10072000F00906F0DBF90025012F0CDB01AE3C4699
:100730000FF2043956F8040B06F0D0F9484606F0DB
:10074000CDF9641EF6D1032FDFF8144C32D1019B92
:100750001878012780B10A220021184606F012FEFF
:10076000461EB641F643F00F06F04DFE10B14FEABB
:10077000D67801E0002600E001260298DFF8E42B9D
:10078000694603F0ACF900B9002726B904202070AF
:10079000DFF8D40B02E02570DFF8D00B06F09EF9ED
:1007A00027B904206070DFF8C00B05E06570DFF842
:1007B000BC0B01E0DFF8680D06F090F9207860B915
:1007C0000FF23C0006F08AF95FFA88F006F091F922
:1007D00008F041FF80F8008000E00425607868B9E7
:1007E0000FF2380006F07AF99DF8000006F081F962
:1007F00006F0B2F99DF80010017000E004257AE3DC
:100800000D0A4272757368206D6F746F7220737475
:100810006174652073657420617320000D0A4C6952
:100820006E656172206D6F746F7220737461746590
:1008300020736574206173200000000070B50546C8
:10084000A0B00FF2540006F049F9284606F046F928
:1008500008F024FF044694E84E0003A880E84E0008
:1008600003A9284602F032FA050013D103A890E844
:100870004E0084E84E000296207ADFF8AC2C0190FE
:1008800007A8616800916421236808F0BDFE07A8ED
:1008900006F024F9CCE000000D0A496E2050726F7A
:1008A000636573735365744D6F746F7250574D4D1C
:1008B000616E75616C2D3E001CB504460FF234006C
:1008C00006F00CF9204606F009F96946204602F0C8
:1008D00065FB04000CD10FF23C0006F0FFF89DF818
:1008E000000006F006F909F023F99DF800100170E8
:1008F000204616BD0D0A496E2050726F63657373F2
:100900005365744272757368446972656374696F84
:100910006E2D3E000D0A4272757368206D6F746F04
:100920007220646972656374696F6E2073657420E8
:100930006173200030B50546ADB00FF27C0006F0C3
:10094000CDF8284606F0CAF808F0BAF9044624A8FB
:100950002146242208F014FE24A9284602F016FAA3
:10096000050026D1204624A9242208F009FEDFF83C
:100970007808DFF8B42DC16E0A91206A0990E16908
:100980000891607D0790217D0691E07C0590A17C17
:100990000491607C0390217C0291E06801900BA897
:1009A000616800916421236808F02EFE0BA806F010
:1009B00095F828462DB030BD0D0A496E2050726F53
:1009C000636573735365744D6F746F7250574D4107
:1009D00075746F2D3E00000070B50546A0B00FF293
:1009E0005C0006F07BF8284606F078F808F059FE1F
:1009F000044694E84E0003A880E84E0003A9284668
:100A000002F064F9050013D103A890E84E0084E8D1
:100A10004E000296207ADFF88C2C019007A86168BE
:100A200000916421236808F0EFFD07A806F056F84E
:100A3000284620B070BD00002C0000000D0A496E51
:100A40002050726F63657373536574427275736877
:100A500050574D4175746F2D3E0000002DE9F84F41
:100A60000446DFF8449CA4B0484606F037F8204618
:100A700006F034F8DFF8340C0168491C01601423D7
:100A80002C226946204606F02FFB054609F124007A
:100A900006F024F8012D0CDBEB462C460FF238381B
:100AA0005BF8040B06F01AF8404606F017F8641ECF
:100AB000F6D1142D43D109F08DF80DF15206EA4616
:100AC00013240FF28C0B0FF29408DAF8000002786E
:100AD000417802EB820301EB4301A1F11005C178DB
:100AE0008078EDB200EB8002404601EB4201A1F1BB
:100AF000100705F0F3FF284605F0FBFF584605F008
:100B0000EDFFFFB2384605F0F4FF182DB8BF3C2FBB
:100B10000ADA3570B77709F05DF814A809F060F8C3
:100B200000250FF2440002E0042509F14C0005F015
:100B3000D5FF761C641E0AF1040AC6D104E00FF248
:100B4000440005F0CBFF0325284625B0BDE8F08F13
:100B50000D0A4D696E7574652D2D3E000D0A486FA6
:100B600075722D2D3E0000000A204175746F2074AF
:100B7000696D652053657456616C75652F732053DC
:100B8000657400000A204175746F2074696D6520DA
:100B900053657456616C75652F7320496E76616C70
:100BA000696400002DE9F041044684B0DFF8900C40
:100BB00005F094FF204605F091FFDFF8A00705F04F
:100BC0008DFF204605F08AFF03232C2201A9204631
:100BD00006F08AFA0646DFF8380505F07FFF0025A3
:100BE000012E0CDB01AF34460FF2EC1857F8040B62
:100BF00005F074FF404605F071FF641EF6D1032E28
:100C0000DFF8404C28D1DFF85C87019842460DF1AF
:100C1000010102F064FF0126471E0298BF414246CF
:100C20006946FF4302F05BFFFF0F00B9002627B9BA
:100C300004202070DFF8300702E02570DFF82C0771
:100C400005F04CFF26B904206070DFF81C0705E0B2
:100C50006570DFF8180701E0DFF8C40805F03EFF13
:100C6000207868B90FF2440005F038FF9DF80100C4
:100C700005F03FFF09F02BF89DF80110017000E02E
:100C80000325607868B90FF2400005F027FF9DF852
:100C9000000005F02EFF08F036FC9DF800100170F2
:100CA00000E00325284604B0BDE8F0810D0A456444
:100CB00067652073656E736F72207374617465204D
:100CC00073657420617320000D0A526F746174653E
:100CD0002073656E736F7220737461746520736521
:100CE00074206173200000002DE9F841044695B09E
:100CF0000FF2E80005F0F2FE204605F0EFFE0723B4
:100D00002C2204A9204606F0EFF90646DFF85C0C19
:100D100005F0E4FE0025012E0CDB0DF11008344631
:100D20002DA758F8040B05F0D9FE384605F0D6FE7D
:100D3000641EF6D104ACA06809F094F8ADF8000088
:100D4000606809F08FF88DF80200049809F08AF8BD
:100D50008DF80300079809F085F88DF804000898CD
:100D600009F080F88DF80500099809F07BF88DF8F6
:100D70000600684609F094F9072E23D1DFF8541CC9
:100D8000DFF8C82D0918914216D202A909F070F9AE
:100D900028220BA902A809F055F90BA805F09EFE20
:100DA00002A809F0CBF868B108F014FF082008F099
:100DB000C5FA0FF2440002E004250FF2540005F0DA
:100DC0008DFE04E00FF2680005F088FE032528463A
:100DD00016B0BDE8F08100002C0000000D0A496E3D
:100DE0002050726F63657373536574525443566138
:100DF0006C75652D3E0000000A2052544320536557
:100E00007456616C75652F73205365740000000083
:100E10000A205254432053657456616C75652F73D4
:100E2000204F7574206F662052616E676500000068
:100E30000A20525443202053657456616C75652F07
:100E40007320496E76616C69640000002DE9F843F7
:100E5000044684B00FF2AC00DFF8747C05F03EFE6F
:100E6000204605F03BFE04232C226946204606F06E
:100E70003BF90646384605F031FE0025012E0CDB15
:100E8000E84634460FF2780958F8040B05F026FEC0
:100E9000484605F023FE641EF6D1042E26D109F043
:100EA00082F90446009809F041FB20B1009A0B2119
:100EB000204608F0A9FB019F384609F037FB28B10E
:100EC0003A460B2104F10B0008F09EFB029E3046CF
:100ED00009F02CFB28B132460B2104F1160008F072
:100EE00093FB0FF23C0005F0F9FD04E007F124004C
:100EF00005F0F4FD0325284605B0BDE8F0830000A9
:100F00002C0000000D0A496E2050726F63657373E8
:100F1000536574446576696365496E666F2D3E005E
:100F20000A2044657669636520496E666F205365C3
:100F30007456616C75652F73205365740000000052
:100F40002DE9F0472DED048B0446DFF8048C84B0C6
:100F5000404605F0C3FD204605F0C0FD06F0D6FA78
:100F6000824604239AED008ADAED018A9AED029A0C
:100F70002C226946204606F0B7F80546DFF8D40B68
:100F800005F0ACFD0026012D0BDBE9462C4695A7AC
:100F900059F8040B05F0A2FD384605F09FFD641ECC
:100FA000F6D1042D59D1009A107868B1002110466D
:100FB00009F002FCF0EE409A06F0ECF910B1B0EE48
:100FC000698A01E0002400E00124019A107850B100
:100FD0000021104609F0F0FBF0EE409A06F0DAF935
:100FE00010B1F0EE698A0120029A0440107850B1E5
:100FF0000021104609F0E0FBF0EE409A06F0CAF935
:1010000010B1B0EE699A0120044205D108F1240024
:1010100005F064FD042625E008F1540005F05EFDAE
:10102000CAED018A8AED029A8AED008A0320B0EEA9
:10103000480A05F075FDC5A4204605F04FFD0320C4
:101040009AED010A05F06CFD204605F047FD0320EE
:101050009AED020A05F064FD04E008F17C0005F059
:101060003DFD032604B0304602F068BE2DE9FE4384
:1010700004460FF2A000DFF8BC9B05F02FFD2046D0
:1010800005F02CFD02232C226946204606F02CF8A0
:101090000646484605F022FD0025012E0BDBE846FA
:1010A000344650A758F8040B05F018FD384605F0F3
:1010B00015FD641EF6D1022E1ED109F1240005F0A3
:1010C0000DFD00981022002106F05CF905F011FDDD
:1010D00008F096F9044608F07FF9B0F5006F02D1E8
:1010E00009F0FDFB057008F03BF907F0B5FE44B1CF
:1010F000082008F020F904E009F1480005F0EEFCB2
:10110000032502F0DAB80000E01700201CD001002F
:10111000383000000D0A496E2050726F636573739A
:10112000436C6561724572726F72436F6465732DB3
:101130003E0000002DE9F847044683B00FF2B000EE
:10114000DFF8D88B05F0CAFC204605F0C7FC07F095
:101150008CFE0646022330788DF800002C2201A96F
:10116000204605F0C1FF0746404605F0B7FC0025C4
:10117000012F0DDB0DF104093C460FF2680A59F806
:10118000040B05F0ABFC504605F0A8FC641EF6D13C
:10119000022F1DD1019B187848B10A220021184660
:1011A00006F0F0F8044606F00BF958B100949DF8EB
:1011B000000030700FF2540005F090FC307805F01C
:1011C00098FC0AE008F1240005F088FC042504E0FE
:1011D00008F14C0005F082FC0325284604B0BDE868
:1011E000F08700002C0000006807FF1F0C1700208C
:1011F0000D0A496E2050726F636573735365744CAA
:101200006F77426174536F432D3E00000A204C6F8C
:10121000772042617420536F432053657456616C8C
:1012200075652F7320536574000000002DE9F04FA1
:10123000054687B0DFF8440CDFF844AC05F04EFCFF
:10124000284605F04BFC09F08FFB0746D7F80080D5
:10125000D7F8049007232C226946284605F044FF5E
:101260000646504605F03AFC0024012E0ADBEB4608
:1012700035465BF8040B05F031FCAAA005F02EFC06
:101280006D1EF6D1072E59D1DFF8F85B0120A86456
:1012900000980AF0C8FA51EC100B0AF0D1FA286352
:1012A00001980AF0C0FA51EC100B0AF0C9FA686311
:1012B000009808F0D7FDA865019808F0D3FDE8650F
:1012C00003F02AFBDFF8380C05F008FC287960B140
:1012D0000A220021281D06F055F806460120C046C6
:1012E00008B1B14601E0002600E00126287E50B199
:1012F0000A22002105F1180006F044F805460120F5
:10130000C04608B1A8460120064205D10AF12400D2
:1013100005F0E4FB042416E0DFF8E80B05F0DEFB43
:10132000C7F80080C7F80490484605F0E2FB07A024
:1013300005F0D4FB386805F0DCFB04E00AF14C0052
:1013400005F0CCFB03242046A7E10000202C000080
:10135000041800205CE5010028EA010020300000AC
:101360005E1800200774000058300000483000006C
:101370002DE9F84F2DED028B0446DFF8048B86B083
:1013800008F1700005F0AAFB204605F0A7FB09F064
:10139000EBFA8246DAF80090DAF804B005232C2242
:1013A0006946204605F0A0FE0646404605F096FB3D
:1013B0000025002E0ADD6F46344657F8040B05F071
:1013C0008DFB58A005F08AFB641EF6D1052E40F077
:1013D0009B80DFF8B04A0420A0649FEDB18A029898
:1013E00008F040FDA0854FF47A77039808F03AFDA5
:1013F000E0850120DFF8A41B088009F070FA0122C3
:101400000270E56700980AF00EFA51EC100B0AF032
:1014100017FA00EE100A20EE080A019884ED0E0A71
:101420000AF001FA51EC100B0AF00AFA00EE100A69
:10143000DFEDBE0A40EE080A0098C4ED0F0A08F07E
:1014400011FD78432064019808F00CFD474307F52F
:101450009677676403F060FADFF8443B187D68B163
:101460000A22002103F1140005F08CFF044601203C
:10147000C04608B1A34601E0002400E00124DFF8E3
:10148000243B187848B10A220021184605F07AFF5B
:1014900006460120C04608B1B1460120044205D1EC
:1014A00008F1940005F01AFB042532E008F1C400AD
:1014B00005F014FBCAF80090CAF804B005F03FFC30
:1014C000052803D005F03BFC042802D1062007F0D4
:1014D000FCFB002005F0C4FC07F0BEFC062007F072
:1014E000F4FB042005F048FDDFF84C1C01200870D7
:1014F000DAF8040005F0FDFACFA005F0EFFADAF80B
:10150000000005F0F6FA04E008F1F00005F0E6FA54
:10151000032506B02846BDEC028BBDE8F28F000023
:10152000783000002C000000D8E601002DE9F04FD3
:101530000446DFF808AC87B0504605F0CFFA2046E5
:1015400005F0CCFA204605F0C9FA05232C2202A9A1
:10155000204605F0C9FD07460AF1240005F0BEFA51
:10156000012F4FF0000B0DDB0DF108083C460FF288
:10157000CC2958F8040B05F0B1FA484605F0AEFA4C
:10158000641EF6D1052F40F0818009F0A8F90446C9
:10159000029B94F8009060680190A768D4F80C80D2
:1015A000187880B10A220021184605F0EBFE451E8E
:1015B000AD41ED43E80F05F01EFF10B14FEAD579BC
:1015C00001E0002600E0012602AD6B68187850B1FA
:1015D0000A220021184605F0D5FE009005F0FAFE1B
:1015E00010B10098019001200640AB68187848B10E
:1015F0000A220021184605F0C5FE009005F0EEFE17
:1016000008B1009F0120EB680640187848B10A2213
:101610000021184605F0B6FE054605F0E6FE08B1C5
:10162000A8460120064206D10AF1540005F056FAF8
:101630004FF0040B30E00AF18C0005F04FFA84F80B
:10164000009001986060A760C4F80C800AF1B000B7
:1016500005F044FA207805F04CFA0FF2742A50464F
:1016600005F03CFA606805F044FA504605F036FA99
:10167000A06805F03EFA504605F030FAE06805F043
:1016800038FA207840B109F022F905E00AF1D400D7
:1016900005F024FA4FF0030B584607B0BDE8F08F71
:1016A00000007A4440E70100ECDD010074180020DE
:1016B00070B5DFF89C4B002020700121217086B0AE
:1016C0000AF01EF91122ADF800206B4601AA05F0C0
:1016D000D5FD42F20F76FF23DFF8782B3146601CF0
:1016E00007F092FF451CA9B2761B022060546D1CC6
:1016F000761BB1B2AEB241F21703DFF85C2BA01932
:1017000007F082FF4519A9B2032060546D1C0AF04E
:1017100025FF034642F21071491BA8B2D2A289B23A
:10172000204407F071FFD7E2A4E3010000009643D4
:1017300070B5DFF81C4B002020700121217086B0AD
:101740000AF0DEF81122ADF800206B4601AA05F080
:1017500095FD42F20F76FF23DFF8F82A3146601C30
:1017600007F052FF451CA9B2761B022060546D1C85
:10177000761BB1B2AEB241F21803DFF8DC2AA01931
:1017800007F042FF4519A9B2032060546D1C07F011
:1017900023FE034642F21071491BA8B20FF20C025D
:1017A00089B2204407F030FF96E200002530303047
:1017B0005800000070B5DFF8984A00202070012121
:1017C000217086B00AF09CF81122ADF800206B461B
:1017D00001AA05F053FD42F20F76FF23DFF8742AC9
:1017E0003146601C07F010FF451CA9B2761B022091
:1017F00060546D1C761BB1B2AEB241F21903DFF832
:10180000582AA01907F000FF4519A9B20320605417
:101810006D1C08F0C8FC0FF23001029100F10B03BF
:10182000009300F116020192034642F21071491B27
:10183000A8B2DFF8302E4BE2202C00002C00000074
:101840004CEA0100B018002046563A332E302E31B3
:101850000000000070B5DFF8F84900202070012179
:10186000217086B00AF04CF81122ADF800206B46CA
:1018700001AA05F003FD42F20F76FF23DFF8D42919
:101880003146601C07F0C0FE451CA9B2761B022041
:1018900060546D1C761BB1B2AEB241F20103DFF8A9
:1018A000B829A01907F0B0FE4519A9B20320605469
:1018B0006D1C05F03CFA42F21076761B002300B155
:1018C0000123A8B268A2B1B2204407F09DFE03E252
:1018D0002C20000070B5DFF878490020207001212D
:1018E000217086B00AF00CF81122ADF800206B468A
:1018F00001AA05F0C3FC42F20F76FF23DFF854295A
:101900003146601C07F080FE451CA9B2761B022000
:1019100060546D1C761BB1B2AEB241F20303DFF826
:101920003829A01907F070FE4519A9B203206054A8
:101930006D1C05F004FA42F21076761B401E032857
:101940000BD8DFE800F002040608012306E00223BA
:1019500004E0032302E0042300E00523A8B242A22E
:10196000B1B2204407F050FEB6E1000010DE0100E5
:1019700070B5DFF8DC48002020700121217088B0AC
:1019800009F0BEFF1122ADF800206B4601AA05F058
:1019900075FC42F20F76FF23DFF8B8283146601C51
:1019A00007F032FE451CA9B2761B022060546D1C64
:1019B000761BB1B2AEB241F20403DFF89C28A01945
:1019C00007F022FE4519A9B2032060546D1C05F0F2
:1019D000E3F8F2E080BC92C770B5DFF874480020ED
:1019E00020700121217086B009F08AFF1122ADF824
:1019F00000206B4601AA05F041FC42F20F76FF235E
:101A0000DFF850283146601C07F0FEFD451CA9B2E6
:101A1000761B022060546D1C761BB1B2AEB241F24F
:101A20000503DFF83428A01907F0EEFD4519A9B227
:101A3000032060546D1C07F00EFE064605F08CF87E
:101A400042F210710078DFF86C2E0090491B337859
:101A5000AEB289B2A01907F0D7FD55FA80F5A9B248
:101A6000042060543DE100002564000070B5DFF8FB
:101A7000E047002020700121217086B009F040FF6E
:101A80001122ADF800206B4601AA05F0F7FB42F2E7
:101A90000F76FF23DFF8BC273146601C07F0B4FD4A
:101AA000451CA9B2761B022060546D1C761BB1B296
:101AB000AEB241F20603DFF8A027A01907F0A4FD9B
:101AC0004519A9B2032060546D1C07F0E7FDF2E050
:101AD0003CE4010070B5DFF8784700202070012158
:101AE000217086B009F00CFF1122ADF800206B4682
:101AF00001AA05F0C3FB42F20F76FF23DFF854275B
:101B00003146601C07F080FD451CA9B2761B0220FF
:101B100060546D1C761BB1B2AEB241F20703DFF820
:101B20003827A01907F070FD4519A9B203206054A9
:101B30006D1C07F0FDFF42F210710378491BA8B23B
:101B4000CDA289B2204407F05FFDC5E0801319BC27
:101B500024D20100442F000070B5DFF8F4460020C5
:101B600020700121217088B009F0CAFE1122ADF861
:101B700000206B4601AA05F081FB42F20F76FF239D
:101B8000DFF8D0263146601C07F03EFD451CA9B2A7
:101B9000761B022060546D1C761BB1B2AEB241F2CE
:101BA0000903DFF8B426A01907F02EFD4519A9B2E4
:101BB000032060546D1C07F083F8C1690791C26867
:101BC000069281690591027D0492817C0391027CD9
:101BD00002928168019142F2107142680092491BA1
:101BE00003680FF25402A8B289B2204407F00CFD3A
:101BF00055FA80F5AAB20421A1546D1CDFF8C80B78
:101C000004F06CFFA8B204F074FFDFF8C00B04F01E
:101C100065FFA9B2204604F06AFFDFF8B40B04F0B8
:101C20005DFFA9B2204608F0D7FD01F011F80020B1
:101C300008B070BD5CDE010025642C25642C256491
:101C40002C25642C25642C25642C25642C25642CDF
:101C50002564000070B5DFF8F845002020700121F0
:101C6000217086B009F04CFE1122ADF800206B46C1
:101C700001AA05F003FB42F20F76FF23DFF8D4251B
:101C80003146601C07F0C0FC451CA9B2761B02203F
:101C900060546D1C761BB1B2AEB241F20A03DFF89C
:101CA000B825A01907F0B0FC4519A9B2032060546B
:101CB0006D1C07F0F6FCC1680291027A019241683E
:101CC000DFF8F42B009142F210710368491BA8B2AF
:101CD00089B2204407F098FC55FA80F5AAB2042195
:101CE000A1546D1CDFF8E00A04F0F8FEA8B204F07D
:101CF00000FFDFF8D80A04F0F1FEA9B2204604F094
:101D0000F6FEDFF8CC0A04F0E9FEA9B2204608F09E
:101D100063FD00F09DFF002006B070BDCCDE010029
:101D200078B5DFF82C450020207001212170A5B086
:101D300009F0E6FD1122ADF800206B4601AA05F07E
:101D40009DFA42F20F76FF23DFF808253146601C2A
:101D500007F05AFC451CA9B2761B022060546D1C8A
:101D6000761BB1B2AEB241F20B03DFF8EC24A0193E
:101D700007F04AFC4519A9B2032060546D1C07F016
:101D80002DFF00F121014A7C2492037D23930A7CDC
:101D90002292C37C2193CA7B2092837C1F938A7BEF
:101DA0001E92437C1D934A7B1C92037C1B930A7BEF
:101DB0001A92C37B1993CA7A1892837B17938A7AF3
:101DC0001692437B15934A7A1492037B13930A7AF3
:101DD0001292C37A1193CA791092837A0F938A79F7
:101DE0000E92437A0D934A790C92037A0B930A79F7
:101DF0000A92C3790993CA780892837907938A78FB
:101E00000692437905934A780492037903930978FB
:101E10000291C278019290F82010DFF8282C0091EE
:101E200042F210718378491BA8B289B2204407F0AE
:101E3000EBFB55FA80F5AAB20421A1546D1CDFF822
:101E4000880904F04BFEA8B204F053FEDFF87C09C9
:101E500004F044FEA9B2204604F049FEDFF8700900
:101E600004F03CFEA9B2204608F0B6FC00F0F0FEFB
:101E7000002026B070BD000025640000A04E0000C8
:101E8000C4C601006807FF1F70B5DFF8C443002017
:101E900020700121217086B009F032FD1122ADF8C9
:101EA00000206B4601AA05F0E9F942F20F76FF2304
:101EB000E84A3146601C07F0A7FB451CA9B2761B17
:101EC000022060546D1C761BB1B2AEB241F20C031D
:101ED000E14AA01907F098FB4519A9B20320605404
:101EE0006D1C07F012FB064607F0F3FE034642F2B4
:101EF0001071491BA8B2009689B2DFF8B829E8E64C
:101F0000BC4E0000D04E000070B5D14C00202070B7
:101F10000121217086B009F0F3FC1122ADF80020F8
:101F20006B4601AA05F0AAF942F20F76FF23C94ACF
:101F30003146601C07F068FB451CA9B2761B0220E5
:101F400060546D1C761BB1B2AEB241F20D03C24AB1
:101F5000A01907F059FB4519A9B20320605408F0F5
:101F60004DF842F21072A6182821304608F04AF8BF
:101F7000314620460AF02AFD304608F0D7FA55FAD5
:101F800080F50FF2240004F0A9FD304604F0A6FD10
:101F90006D1CA9B204206054A3E6000006180020BE
:101FA000740AFF1FA81600200D0A54696D652D2DB7
:101FB0003E0000002DE9F04FA54C002020700121CB
:101FC000217091B009F09CFC1122ADF800206B4605
:101FD00001AA05F053F942F20F76FF239D4A3146DC
:101FE000601C07F011FB451CA9B2761B022060544F
:101FF0006D1C761BB1B2AEB241F20E03964AA01927
:1020000007F002FB4519A9B2032060546D1C08F0CB
:102010008DFC8DF83A00ADB204F089FE804605F0E3
:102020007FFA024600210EA892ED000A42F21076D5
:1020300004F0FCFF761B0EAB84A2B1B2601907F06E
:10204000E3FA0EA807F00EFF4FF000090746B8F1BB
:10205000000F18BF4FF0010902F05EFCDFF8648C3E
:1020600007F073FAD8F84C20014651431091FFB2A3
:1020700007F0BBFD3F1A0F9707F0B7FD8DF837004B
:102080000AF0B4FC8DF836000AF00EFD8DF835002C
:102090000AF068FD8DF834000AF0E8FD074609F003
:1020A000BFFA824607F053FA834607F04EFAD8F893
:1020B0007C100F9A0B910A920C959DF837109DF8A1
:1020C0003620099108924B469DF835109DF8342032
:1020D0000791069205970190CDF810A010999DF8F0
:1020E0003A0002910090CDF80CB0B1B2DFF8D82BD5
:1020F000601907F089FA0C9951FA80F5ADB2042005
:1021000060556D1CDFF8C00604F0E8FCADB228464F
:1021100004F0EFFCDFF8B40604F0E0FC29462046AA
:1021200004F0E5FCDFF8A80604F0D8FC29462046B8
:1021300008F052FB4AE100000C170020E0C7010044
:102140002DE9F04F424D002028700121297087B001
:1021500009F0D6FB1122ADF800206B4601AA05F06C
:102160008DF842F20F76FF233A4A3146681C07F099
:102170004BFA441CA1B2361B02206854641C361B67
:10218000B1B2A6B241F22103334AA81907F03CFAD2
:102190000419A1B203206854641C08F0C7FB8046F0
:1021A00042F2107604F0C3FD361B002700B1012770
:1021B00004F059FE032803D107F00EF9814601E02F
:1021C0004FF0000907F0C3F9824607F0BEF98346D5
:1021D00006F078FDDFF8AC1BDFF8E83A0A88D96F23
:1021E000019006920591A0B2CDF81090CDF80CA008
:1021F000CDF808B0CDF800803B460FF26002B1B2D6
:10220000284407F001FA54FA80F4A2B20421A95438
:10221000641CDFF8B40504F061FCA0B204F069FCB2
:10222000DFF8A80504F05AFCA1B2284604F05FFCD0
:10223000DFF89C0504F052FCA1B2284608F0CCFA65
:1022400000F006FD0020FFF728BA0000257300000B
:102250003485FF1F844000008C40000025642C2042
:1022600025642C2025642C2025642C2025642C201A
:10227000256C642C25642C25640000002DE9F84FA2
:10228000DFF8986DDFF83C8A002030700121317052
:1022900090B009F035FB1122ADF800206B4601AA81
:1022A00004F0ECFF42F20F75FF23DFF8DC2A294629
:1022B000701C07F0A9F9441CA1B22D1B0220705418
:1022C000641C2D1BA9B2A5B241F20F03DFF86C2CE0
:1022D000701907F099F90419A1B203207054641C15
:1022E00008F05CFB054602210DA895ED020A04F0FA
:1022F0009DFE02210AA895ED030A04F097FE02F064
:102300000BFB07F022F90546D8F84C00454308F0CE
:102310000DFB814642F2107704F009FD3F1B4FF0A0
:10232000000A30B1012804D14FF0010A4FF0000B30
:1023300002E007F05AFC834607F04EF8D8F87C100C
:10234000099108F1E00208F1D8030892079308F117
:10235000B001069108F1800208F1A80101900591F1
:102360000492A0B2CDF80C900295CDF800B053467F
:10237000DFF8CC2BB9B2304407F046F954FA80F4B8
:10238000A2B20421B154641CDFF83C0404F0A6FBA3
:10239000A0B204F0AEFBDFF8340404F09FFBA1B25E
:1023A000304604F0A4FBDFF8280404F097FB0AF0A1
:1023B000FFFC012803D1A2B23146022004E00AF05A
:1023C000F7FC18B9A2B2314608F028FA00F040FC38
:1023D000002011B0BDE8F08F78B5DFF8404C002048
:1023E0002070012121708BB009F08AFA1122ADF81A
:1023F00000206B4601AA04F041FF42F20F76FF2352
:10240000DFF884293146601C07F0FEF8451CA9B2AC
:10241000761B022060546D1C761BB1B2AEB241F245
:102420001003DFF8182BA01907F0EEF84519A9B230
:10243000032060546D1C05F069F80646022108A8C7
:1024400096ED000A04F0F2FD022105A896ED010ABE
:1024500004F0ECFD022102A896ED020A04F0E6FD6C
:1024600005A902A80091019042F21071491BA8B27F
:1024700008ABDFF8502E83E1F0B5DFF8A04B002069
:102480002070012121708BB009F03AFA1122ADF8C9
:1024900000206B4601AA04F0F1FE42F20F76FF2302
:1024A000DFF8E4283146601C07F0AEF8451CA9B2FD
:1024B000761B022060546D1C761BB1B2AEB241F2A5
:1024C0001103DFF8782AA01907F09EF84519A9B280
:1024D000032060546D1C0AF065FD022108A804F079
:1024E000A5FD0AF07BFD022105A804F09FFD0AF07E
:1024F0009BFD022102A804F099FDADB242F21076D4
:1025000008F010FA761B102802D008F00BFAE0B998
:102510000A2108A80AF068FE0A2105A80AF064FE4C
:102520000A2102A80AF060FE0FF27407052239465C
:1025300008A807F025F80522394605A807F020F875
:102540000522394602A807F01BF802A805A9019048
:10255000009108AB0FF2E052B1B2601907F054F8E5
:1025600055FA80F5A9B2042060546D1C964804F019
:10257000B5FAADB2284604F0BCFA944804F0AEFABD
:102580002946204604F0B3FA914804F0A7FA2946F8
:10259000204608F021F900F05BFB00200BB0F0BDF5
:1025A000302E30300000000070B5DFF8704A002097
:1025B00020700121217086B009F0A2F91122ADF836
:1025C00000206B4601AA04F059FE42F20F76FF2369
:1025D000DFF8B4273146601C07F016F8451CA9B295
:1025E000761B022060546D1C761BB1B2AEB241F274
:1025F0001403DFF84829A01907F006F84519A9B215
:10260000032060546D1C08F0AFF9DFF8E41BD0ED37
:10261000010A91ED000ADFF8AC26116DF8EE600AB0
:1026200060EE800AFCEEE00A10EE903ACB18536799
:10263000D0ED000A516DF8EE600A20EE800ABCEE83
:10264000C00A10EE103ACB1893670368D16D02935D
:102650004068936D984A0091019042F21071FFF723
:1026600035BB0000BC28000070B5DFF8B049002081
:1026700020700121217086B009F042F91122ADF8D5
:1026800000206B4601AA04F0F9FD42F20F76FF2309
:10269000DFF8F4263146601C06F0B6FF451CA9B2EF
:1026A000761B022060546D1C761BB1B2AEB241F2B3
:1026B0001503DFF88828A01906F0A6FF4519A9B26E
:1026C000032060546D1C06F0D0FB42F210710378B9
:1026D000491BA8B2DAA289B2204406F095FFFFF7A1
:1026E000FBBA10B55021DFF8640D05F081FC002421
:1026F00000B10524204610BD70B5DFF82049002048
:102700002070012121708CB009F0FAF81122ADF887
:1027100000206B4601AA04F0B1FD42F20F76FF23C0
:10272000DFF864263146601C06F06EFF451CA9B236
:10273000761B022060546D1C761BB1B2AEB241F222
:102740001A03DFF8F827A01906F05EFF4519A9B2B1
:10275000032060546D1C04A809F030FA0DF12A0022
:1027600003900DF1270102910DF12100019004AABF
:10277000009242F21071491BA8B209AB0FF2540249
:1027800089B2204406F040FF55FA80F5AAB2042130
:10279000A1546D1C0C4804F0A1F9A8B204F0A9F9E9
:1027A0000A4804F09BF9A9B2204604F0A0F90848B1
:1027B00004F094F9A9B2204608F00EF800F048FAA7
:1027C00000200CB070BD0000A46A0000B46A0000D4
:1027D000C06A000025732C25732C25732C25732CBF
:1027E0002573000070B5DFF8344800202070012107
:1027F00021708AB009F084F81122ADF800206B46F0
:1028000001AA04F03BFD42F20F76FF23DFF87825A2
:102810003146601C06F0F8FE451CA9B2761B02206A
:1028200060546D1C761BB1B2AEB241F21B03DFF8EF
:102830000C27A01906F0E8FE4519A9B20320605440
:102840006D1C03A809F032FA0DF1250002900DF17C
:10285000220101910DF11D00009042F21071491BFF
:10286000AEB203AB0FF2540289B2A01906F0CCFE4F
:1028700055FA80F5A9B2042060546D1CDFF8940C61
:1028800004F02CF9A8B204F034F9DFF88C0C04F051
:1028900025F9A9B2204604F02AF9DFF8800C04F0EB
:1028A0001DF9A9B2204607F097FF00F0D1F901F019
:1028B000F8BA0000484F00005435000025732C255D
:1028C000732C25732C25730078B5DFF85047002052
:1028D00020709FB009F0AFFD01211CA804F0A6FBF9
:1028E00009F0D4FD012119A804F0A0FB09F0BBFDFB
:1028F000012116A804F09AFB09F018FE012110A886
:1029000004F094FB0BA809F0EBFD9DF830009DED61
:102910000B0A08B9B1EE400A012113A804F086FBA6
:102920000120207042F20F7608F0EAFF1122ADF884
:1029300000206B4601AA04F0A1FCFF23DFF8482425
:102940003146601C06F060FE451CA9B2761B0220D1
:1029500060546D1C761BB1B2AEB241F21C03DFF8BD
:10296000DC25A01906F050FE4519A9B203206054D9
:102970006D1C09F025FD02210DA804F057FBDFF8BE
:10298000A00BDFF8A02B0178DFF89C0B1368DFF8B1
:102990009C2B0A910993AEB20168DFF8940B13687F
:1029A000DFF8902B0891079305920168DFF8880BF8
:1029B000DFF8883BDFF8882B0691049302920168C8
:1029C000DFF8803BDFF8800BDFF8802B0391019369
:1029D000009042F21071491BDFF8743B89B2A019D4
:1029E00006F012FE55FA80F5A9B2042060546D1C61
:1029F000DFF8200B04F072F8A8B204F07AF8DFF8E0
:102A0000180B04F06BF8A9B2204604F070F8DFF858
:102A10000C0B04F063F80AF0CBF9012803D1AAB239
:102A20002146022004E00AF0C3F918B9AAB22146EF
:102A300007F0F4FE00F00CF9002020B070BD00009B
:102A400025640000D0D0010070B5DFF8D04500212A
:102A5000217090B000200AF0CBFB022108A804F0FE
:102A6000E5FA01200AF0C4FB022105A804F0DEFA11
:102A700009F05CFD022102A804F0D8FA01202070C0
:102A800042F20F7608F03CFF1122ADF800206B46B1
:102A90000BAA04F0F3FBFF23BB4A3146601C06F08F
:102AA000B3FD451CA9B2761B022060546D1C761B39
:102AB000B1B2AEB241F21D03DFF88024A01906F0D6
:102AC000A3FD4519A9B20320605442F210762821D3
:102AD000A01907F097FA05A96D1C009102A8761BB2
:102AE0000190B1B2AEB208AB0FF24C02A01906F0E1
:102AF0008BFD55FA80F5A9B2042060546D1CDFF8F7
:102B0000140A03F0EBFFA8B203F0F3FFDFF8080AA2
:102B100003F0E4FFA9B2204603F0E9FFDFF8FC0967
:102B200003F0DCFFA9B2204607F056FE00F090F853
:102B3000002010B070BD000025732C25732C257368
:102B40000000000070B5DFF8D4440020207001219F
:102B5000217086B008F0D4FE1122ADF800206B463B
:102B600001AA04F08BFB42F20F76FF23864A31461E
:102B7000601C06F049FD451CA9B2761B022060547A
:102B80006D1C761BB1B2AEB241F22203EB4AA01922
:102B900006F03AFD4519A9B2032060546D1C07F0F8
:102BA0009EFEC16802918268019241680FF20C0298
:102BB000009142F210710378FFF788B825642C2544
:102BC0006C642C25642C256C64000000F8B5054667
:102BD000DFF8344C002020700121217086B008F00D
:102BE0008FFE1122ADF800206B4601AA04F046FBCF
:102BF000FF23654AC721601C06F006FD461CB2B2E1
:102C0000C6F1C7010220A054761C891BB7B241F25D
:102C10001113CA4A89B2E01906F0F6FC8619B1B25E
:102C200003206054761CB6B2C6F1C8012B46C2A27E
:102C300089B2A01906F0E8FC56FA80F080B20421AF
:102C40002154401C80B200222254204607B0F0BD1F
:102C500042F21071DFF8C4030AF0C6BAF8B50446B0
:102C600086B00D4601202070164629884A1E2A800B
:102C7000112708F045FEADF800706B4601AA04F07C
:102C8000FDFA2988404AFF23601C06F0BDFC471C62
:102C90002888C01BBAB228800221A1547F1C298831
:102CA000A64AC91B2980B8B2334689B2204406F02F
:102CB000ABFCC719BAB20321A1547F1C2F8001209D
:102CC00007B0F0BD6807FF1F0CE701002DE9F043D6
:102CD00085B00446884603F001FF05232C2269468F
:102CE000204604F001FA07460FF2582003F0F6FEE2
:102CF0000025012F0CDB6E463C460FF21C3956F8BE
:102D0000040B03F0EBFE484603F0E8FE641EF6D128
:102D1000052F30D10098DFF8642C414600F0CEFE3C
:102D2000441E0198DFF8582C08F10401A44100F07A
:102D3000C5FEE44300EAD4740298DFF8482C661E0E
:102D400008F10801B64100F0B9FEF64300EAD67674
:102D50000398DFF8342C741E08F10C01A44100F034
:102D6000ADFEE44310EAD47F0AD10FF2F41003F071
:102D7000B5FE042504E00FF2082003F0AFFE0325A2
:102D8000FEF7B9B806180020844000002DE9F04F86
:102D90008BB004460D4603F0A1FE0B232C2269469E
:102DA000204604F0A1F907460FF2981003F096FEB2
:102DB000012F4FF0000A0CDBE846B94696A458F8FC
:102DC000040B03F08BFE204603F088FEB9F10109E5
:102DD000F5D10B2F40F0A580DFF8B0BBDFF8D47C35
:102DE0000220CBF84800A946029807F03BF8CBF840
:102DF0006400069807F036F8CBF8680001F08CFD07
:102E00000098DFF8782B494600F058FEB0F1010831
:102E10000198DFF86C2B09F1040168EB080800F059
:102E20004DFE6FEA080400EAD470441E02983A4648
:102E300009F10801A44100F041FEE44300EAD47422
:102E4000651EDFF8744C224609F10C010BF5E070A9
:102E5000AD4100F033FEED4300EAD57503986E1ED8
:102E6000DFF8205B2A4609F11001B64100F026FE8A
:102E7000F64300EAD676701E8041C043C60F039821
:102E80002A4609F1110100F019FE0640701E80412A
:102E9000C043C60F04982A4609F1120100F00EFE45
:102EA0000640701E8041C043C60F04982A4609F1AF
:102EB000130100F003FE0640701E8041C043C60FA0
:102EC00005982A4609F1140100F0F8FD0640701E2D
:102ED0008041C043C60F05982A4609F1150100F04C
:102EE000EDFD06400698751E3A4609F11801AD4100
:102EF00000F0E4FDED4300EAD5756F1E224609F1AE
:102F00001C010BF5EA70BF4100F0D8FDFF4310EA49
:102F1000D77F0CD10FF2480003F0E0FD4FF0040A18
:102F200005E00FF25C0003F0D9FD4FF0030A5046B4
:102F30000BB0BDE8F08F0000255800008C40000069
:102F400070EA01000A50574D2053657420526563A2
:102F500065697665642056616C756573203A00007A
:102F60000A2050776D2053657456616C75652F7318
:102F7000204F7574206F662052616E6765000000F7
:102F80000A2050776D2053657456616C75652F73F8
:102F900020496E76616C6964000000002DE9FE43F3
:102FA000044689460FF2780003F098FD204603F0AE
:102FB00095FD02232C226946204604F095F8074629
:102FC0000FF2740003F08AFD0026012F0BDBE846A8
:102FD0003C4611A558F8040B03F080FD284603F089
:102FE0007DFD641EF6D1022F0FD10098DFF8B82BBB
:102FF000494600F074FD002812BF0FF24C00042671
:103000000FF2540003F06AFD04E00FF26C0003F0CD
:1030100065FD0326304651E12C0000003485FF1F7A
:103020000D0A496E2050726F636573735365745354
:10303000746174652D3E00000A73746174652056D6
:10304000616C756573203A000A204D6F64652053EA
:10305000657456616C7565000A204D6F6465205378
:10306000657456616C75652F73204F7574206F669B
:103070002052616E676500000A204D6F6465205321
:10308000657456616C75652F7320496E76616C6945
:10309000640000002DE9F043044687B00FF254109D
:1030A000DFF8089B03F01AFD204603F017FD072305
:1030B0002C226946204604F017F80746484603F0DC
:1030C0000DFD0025012F0CDB6C46B8467EA654F89A
:1030D000040B03F003FD304603F000FDB8F10108D6
:1030E000F5D1072F7AD108F0DFFB074600981021B1
:1030F00004F091F9441E0198A441402104F08BF999
:10310000E44300EAD4740298661EB641022104F03A
:1031100082F9F643039A00EAD676711E8941107847
:10312000C943002818BF302806D0312806D150786E
:10313000401E8041C00F02E0012000E00020049A00
:1031400000EAD1711078002818BF302806D0312845
:1031500006D15078401E8041C00F02E0012000E0FF
:103160000020059A01401078002818BF302806D0AA
:10317000312806D15078401E8041C00F02E0012066
:1031800000E00020014223D0009A1121384606F0C9
:103190003BFA019A412107F1110006F035FA029A33
:1031A000032107F1520006F02FFA03990A7807F17C
:1031B00055000270049B19784170059A117881704E
:1031C000012008F0F4FC0FF24C0003F087FC0AE049
:1031D00009F12C0003F082FC042504E009F15400FD
:1031E00003F07CFC0325284607B0BDE8F08300000F
:1031F000781800200D0A496E2050726F6365737352
:103200005365745A6967626565436F6E6669672DB9
:103210003E0000000A5A696762656520436F6E666A
:1032200069672020536574002DE9FE4304460FF2C0
:103230009C00DFF8749C03F051FC204603F04EFC28
:1032400002232C226946204603F04EFF07464846DB
:1032500003F044FC0025012F0BDBE8463C461AA690
:1032600058F8040B03F03AFC304603F037FC641EB8
:10327000F6D1022F1CD10098017861B130290DD010
:10328000312904BF4078002808D009F1300003F04C
:1032900025FC042511E04FF0FF3002E0A1F13000E1
:1032A00040B208F087FC0FF2400003F017FC04E086
:1032B00009F15C0003F012FC0325284603B0BDE8C9
:1032C000F0830000382B00002C0000000D0A496E2E
:1032D0002050726F6365737352657365745A6967C2
:1032E0006265654E572D3E000A5A69676265652022
:1032F000204E77205265736574202053657400005A
:103300002DE9F04F0446DFF878AC87B0504603F063
:10331000E5FB204603F0E2FB04F0EEF80746D7F8A1
:103320000090796801910523BA6800922C22D7F8A1
:103330000C8002A9204603F0D7FE05460AF12800BA
:1033400003F0CCFB0026012D0BDB0DF1080B2C4606
:103350005BF8040B03F0C2FB6DA003F0BFFB641E1F
:10336000F6D1052D6AD1029B187860B10A2200219E
:10337000184604F007F8044604F029F808B1A146FD
:1033800001E0002500E0012502AC6368187850B127
:103390000A220021184603F0F5FF834604F017F8CF
:1033A00010B1CDF804B00120A3680540187850B1E1
:1033B0000A220021184603F0E5FF834604F007F8CF
:1033C00010B1CDF800B00120E3680540187848B18D
:1033D0000A220021184603F0D5FF044603F0F7FF48
:1033E00008B1A0460120054205D10AF1540003F0BE
:1033F00075FB042627E00AF1880003F06FFBC7F88D
:10340000009043A4019878600099B960C7F80C80D7
:10341000386803F06EFB204603F060FB786803F029
:1034200068FB204603F05AFBB86803F062FB2046B5
:1034300003F054FBF86803F05CFB04E00AF1B4000D
:1034400003F04CFB03263046FEF727B90000FF1FB0
:1034500070B5DFF8184C002020700121217086B073
:1034600008F04EFA1122ADF800206B4601AA03F0D5
:1034700005FF42F20F76FF23DFF8F42B3146601C84
:1034800006F0C2F8451CA9B2761B022060546D1CE0
:10349000761BB1B2AEB241F21403DFF8D82BA019FB
:1034A00006F0B2F84519A9B2032060546D1C04F06F
:1034B00023F8C16802918268019241680FF2940278
:1034C000009142F210710368491BA8B289B22044EE
:1034D00006F09AF855FA80F5AAB20421A1546D1CA1
:1034E0000C4803F0FBFAA8B203F003FB0A4803F010
:1034F000F5FAA9B2204603F0FAFA084803F0EEFA0A
:10350000A9B2204607F068F9FFF7A2FBFEF703BC5B
:103510002C000000A46A0000B46A0000C06A000029
:10352000B409FF1FE009FF1FD809FF1FD409FF1FBF
:10353000D009FF1F680AFF1FDC09FF1F5C0AFF1F7D
:10354000500AFF1F440AFF1F380AFF1F94EA0100B8
:103550002C0AFF1F25642C25642C25642C2564006F
:103560002DE9F847ADF5006DB9B0054603F0B6FAA0
:1035700003232C2203A9284603F0B6FD0646DFF8F4
:10358000FC0A03F0ABFA0024002E0CDD0DF10C0850
:1035900035469CA758F8040B03F0A0FA384603F010
:1035A0009DFA6D1EF6D1032E3ED1039908780028AE
:1035B0001FBF03AE71680878002835D003980A222F
:1035C000002103F0DFFE054670680A22002103F0A7
:1035D000D9FE0646AE4221D340F2012086421DD2DA
:1035E000E5B100962B46DFF8982A322106A806F0AE
:1035F0000BF806A803F072FAB3B2AAB2322106A8F9
:1036000009F0AEFE06460FF204200FF2182803F070
:1036100065FA00254FF0250A06AF38E0DFF8BC0C4C
:1036200003F05CFA0424E4E0DFF8B40C03F056FA8B
:103630000324DEE04179827942EA012201920DF50C
:10364000D47C007900900AFB05FE424624210CEB55
:103650000E0018E006A800EBC50043780178C27898
:103660001B0443EA0163817843EA01231343002DDD
:10367000E0D17879B97941EA00210191424638795F
:10368000009025216AA805F0BFFF6D1CEDB2B54280
:1036900001D2322DDEDB3546DFF8D06942F21078F8
:1036A0003470ADF8088007F0DAF8022841F21F07FD
:1036B0000FF2501957D108F023F9CDE900013A462D
:1036C00002A9304609F07AFFBDF80870A8EB0700A0
:1036D000ADF80800F455304603F000FA7A1E92B2B5
:1036E0003146022007F09AF80FF24417384603F0EB
:1036F000F5F90C223946022007F090F8A0461EE0AA
:103700006AA80AFB08F14718384603F0E7F938467B
:1037100006F00CFF82B23946022007F07FF8A5EBD5
:103720000800022807D301224946022007F076F854
:10373000484603F0D3F908F101001FFA80F8A845C4
:10374000DED3FFF785FA5D20307022217D22717073
:10375000B270F470304603F0C1F903223146022002
:1037600007F05CF845E03A4602A93046FFF776FAE2
:10377000BDF80870A8EB0700ADF808003A463146DE
:10378000002007F04BF8F455304603F0A7F9A046A7
:103790001EE06AA80AFB08F14718384603F09EF9B4
:1037A000384606F0C3FE82B23946002007F036F8EC
:1037B000A5EB0800022807D301224946002007F0A4
:1037C0002DF8484603F08AF908F101001FFA80F845
:1037D000A845DED3FFF73CFA5D20042130707170FC
:1037E000B47002223146002007F018F8304603F08A
:1037F00075F9FFF72DFA0DF5006D20463AB0BDE8DA
:10380000F08700002C000000C00F00200D0A496E58
:10381000204150492050726F63657373696E672D44
:103820003E0000005B256C642C25642C25645D0043
:103830002C2256414C554553223A225B0000000091
:1038400080B503F04BF909F08DFD002002BD70B585
:103850009CB06A46C9B200F09BF8040015D10FF283
:10386000C80003F03BF9DDE9000103F042F9DDE9AE
:10387000000100244FF6FF72A14208BF904204D11C
:103880000FF2B40003F02AF90724250018BF072C13
:1038900035D10FF2BC0003F021F9BDF8080003F0A8
:1038A00028F9BDF80800DFF8AC2C002113465C882D
:1038B00084420BD0491C10335029F8DB5029DFF823
:1038C000546D09DB00203060022418E0DFF8440D5D
:1038D00002EB01120260F1E73168002479B1496816
:1038E0000DF10A008847040009D131688A68012077
:1038F000904720B10FF2680003F0F0F80524072D7F
:1039000018BF062D0CD02046FFF760F9054603F0DE
:10391000E5F8284606F00AFE81B2284606F05CFF6C
:1039200020461CB070BD00000D0A446576696365D1
:103930002049442D2D3E00000A2057696C64204325
:103940006172642044657669636520494400000023
:103950000A434D442056616C75653A200000000012
:103960000A456570726F6D204572726F72000000BB
:10397000DFF8E01B0160502070470000B5730000C5
:10398000B973000093730000F17400006807FF1F13
:10399000F0B50646B7B00020002433460D4601E0DE
:1039A000641CA4B213F8011B012901D0AC42F7DB5F
:1039B000335D012B57D1641CA4B2311907E011F813
:1039C000013B87B2641C0DF80730A4B2401C0B7891
:1039D000022B01D0AC42F2DB315D022943D180B22F
:1039E00000230DF80030174610220021684609F028
:1039F0001FFFC7E90001641CA4B200208DF800007D
:103A0000311907E011F8012B83B2641C0DF8032073
:103A1000A4B2401C0A78032A01D0AC42F2DB315D2B
:103A2000032920D180B200220DF8002000211022AD
:103A3000684603F0A7FC3881641CA4B200208DF80E
:103A40000000311907E011F8012B83B2641C0DF856
:103A50000320A4B2401C0A78042A01D0AC42F2DB55
:103A6000315D042902D0012037B0F0BD80B20021C1
:103A70000DF800106B46B3A2642107F10A0005F0AF
:103A8000C3FD1E232C2219A9684603F02DFB10B993
:103A9000032037B0F0BD19AB03EB8000102250F8C3
:103AA000040C002103F06EFC87F86E0037B0002094
:103AB000F0BD0000CB730000BD73000070B50C4674
:103AC0000178154649B10A22002103F05BFC064645
:103AD000A847010018BF266016E0012070BD70B530
:103AE0000C460178154669B10A22002103F04AFC10
:103AF000461EB641F643F60F3046A847010018BFF0
:103B0000267001E0012070BD401E8041C043C00FFF
:103B100070BDF8B50446DFF8545500202870012127
:103B2000297086B007F0ECFE1122ADF800206B463C
:103B300001AA03F0A3FB42F20F77FF230FF24452D6
:103B40003946681C05F060FD461CB1B2BF1B02205F
:103B50006854761CBF1BB9B2B7B24FF488530FF24A
:103B60002C52E81905F050FD8619B1B203206854B3
:103B7000761CB6B242F21071891B0FF2340371A2A7
:103B800089B2A81905F040FD56FA80F292B20420DD
:103B9000A854521C92B22946204606F03FFEFFF779
:103BA00057F807B0F0BD000007740000F0DC01001A
:103BB000534F4C415220434C45414E4552204856AC
:103BC0003A332E302046563A332E302E3100000044
:103BD0002DE9F0472DED048B044686B00FF26810F6
:103BE00002F07CFF204602F079FF03F097FC80464C
:103BF0000623D8F808A098ED008AD8ED018A2C2277
:103C00006946204603F070FA06460FF2581002F09B
:103C100065FF0025002E0BDDE9463446A3A759F8C1
:103C2000040B02F05BFF384602F058FF641EF6D129
:103C3000062E7CD1009A107868B10021104606F05B
:103C4000BBFDB0EE409A03F003FC10B1B0EE498A20
:103C500001E0002400E00124019A107850B1002115
:103C6000104606F0A9FDB0EE409A03F001FC10B139
:103C7000F0EE498A0120029B0440187848B10A22DC
:103C80000021184603F07EFB064603F082FB08B1D4
:103C9000B24601200440029806F0E4F8A0F1370192
:103CA0000A2938BF0F200FD3A0F14101062938BFE0
:103CB000052009D3A0F14701052938BF022003D30D
:103CC0004C380A288041C00FDFF8D41BC8662CB9D5
:103CD000DFF8D00B02F002FF04252DE00FF2A40064
:103CE00002F0FCFE88ED008AC8ED018AC8F808A041
:103CF000032098ED000A02F013FF032098ED010A5B
:103D000002F00EFF98ED020A0320B8EE400A02F01E
:103D100007FF66A002F0E2FE98ED000ADFF8880BCC
:103D2000DFED980A60EE200AC0ED000A04E00FF211
:103D3000740002F0D3FE032506B02846BDEC048BC8
:103D4000BDE8F087257300000D0A496E2050726FA0
:103D500063657373536574576865656C4469612D59
:103D60003E0000000A576865656C20446961205375
:103D700065742052656365697665642056616C756B
:103D800065203A000A20776865656C4469612053B4
:103D9000657456616C75652F7320736574203A20C5
:103DA000000000000A20776865656C446961205353
:103DB000657456616C75652F7320496E76616C6908
:103DC0006400000078B5A94C00202070012121700A
:103DD00089B007F095FD1122ADF800206B4601AACD
:103DE00003F04CFA42F20F76FF230FF2982231468D
:103DF000601C05F009FC451CA9B2761B022060542A
:103E00006D1C761BB1B2AEB241F231030FF27C22CF
:103E1000A01905F0F9FB4519A9B2032060546D1CE7
:103E200003F07CFB0646002106A896ED000A03F08D
:103E3000FDF8002103A896ED010A03F0F7F8DFF87A
:103E4000600AC16E029103AAB0680190009242F22A
:103E50001071491BA8B206AB0FF2540289B220447C
:103E600005F0D2FB55FA80F5AAB20421A1546D1CCD
:103E7000DFF8400D02F032FEA8B202F03AFEDFF8A1
:103E8000380D02F02BFEA9B2204602F030FEDFF81A
:103E90002C0D02F023FEA9B2204606F09DFCFEF791
:103EA000D7FE00200AB070BDD0D901002C00000060
:103EB00025732C25732C25642C2564002DE9F047EF
:103EC0002DED028B044682B00FF2BC00DFF824AD6A
:103ED00002F004FE204602F001FE03F021FB8046C2
:103EE000022398ED008A2C226946204603F0FCF854
:103EF0000646504602F0F2FD0025012E0BDBE94696
:103F000034465DA759F8040B02F0E8FD384602F08C
:103F1000E5FD641EF6D1022E26D1009A107840B13C
:103F20000021104606F048FCB0EE408A03F0B2FAD9
:103F3000A0B10AF1540002F0D1FD88ED008A002002
:103F400098ED000A02F0ECFD98ED000ADFF8000D94
:103F5000BDEEC00A80ED000A47A002E004250AF188
:103F6000280002F0BBFD04E00AF1780002F0B6FD83
:103F7000032502B02846BDEC028BBDE8F0870000A7
:103F8000D8C90100C3F548400D0A496E2050726F30
:103F9000636573735365744379636C6546726571C9
:103FA00075656E63792D3E0070B5304C0020207031
:103FB0000121217086B007F0A3FC1122ADF800208A
:103FC0006B4601AA03F05AF942F20F76FF230FF273
:103FD000B4023146601C05F017FB451CA9B2761BE4
:103FE000022060546D1C761BB1B2AEB241F23203B6
:103FF0000FF29802A01905F007FB4519A9B203209A
:1040000060546D1C03F08CFA02460021684692ED64
:10401000000A03F00BF842F21071491BA8B26B467C
:10402000ADA289B2204405F0EFFA55FA80F5AAB2A4
:104030000421A1546D1CDFF87C0B02F04FFDA8B2E7
:1040400002F057FDDFF8700B02F048FDA9B22046E0
:1040500002F04DFDDFF8640B02F040FDA9B22046EE
:1040600006F0BAFBFEF7F4FDFDF755BE3485FF1FE1
:10407000844000008C4000002C000000AC48000090
:1040800034680000253032580000000025303458D4
:10409000000000002DE9F04F04469BB0DFF8F40C5F
:1040A000DFF8F4BC02F01AFD204602F017FD03F021
:1040B00039FA824668465146382205F061FA0D23E6
:1040C0002C220EA9204603F00FF80746584602F0AE
:1040D00005FD012F4FF000090BDB0EAD3C46DDA6C0
:1040E00055F8040B02F0FAFC304602F0F7FC641EAF
:1040F000F6D10D2F40F0E580DFF8A04C0E98224657
:1041000069460EADFFF7DAFCDFF8948C471E68684D
:10411000424607A9BF41FFF7D1FCFF4300EAD7772A
:10412000A8687E1E224601A9B641FFF7C7FCF643E8
:1041300000EAD676E868771E424608A9BF41FFF735
:10414000BDFCFF4300EAD77728697E1E224602A9FC
:10415000B641FFF7B3FCF64300EAD6766869771EEE
:10416000424609A9BF41FFF7A9FCFF4300EAD77700
:1041700014987E1E224603A9B641FFF79FFCF64322
:1041800000EAD676E869771E42460AA9BF41FFF7E2
:1041900095FCFF4300EAD777286A7E1E224604A9D1
:1041A000B641FFF78BFCF64300EAD676686A771EC5
:1041B00042460BA9BF41FFF781FCFF4300EAD777D6
:1041C000A86A7E1E224605A9B641FFF777FCF64392
:1041D00000EAD676E86A741E42460CA9A441FFF7AD
:1041E0006DFCE44310EAD47F64D0DFF8B00C02F039
:1041F00075FC50466946382205F0C2F99AED000A6E
:104200000220B8EE400A02F08BFC92A4204602F095
:1042100065FC9AED070A0120B8EE400A02F080FC26
:10422000204602F05BFC9AED010A0220B8EE400A3B
:1042300002F076FC9AED080A0120B8EE400A02F07E
:104240006FFC9AED020A0220B8EE400A02F068FC08
:104250009AED090A0120B8EE400A02F061FC9AEDDD
:10426000030A0220B8EE400A02F05AFC9AED0A0A4C
:104270000120B8EE400A02F053FC9AED040A022035
:10428000B8EE400A02F04CFC9AED0B0A0120B8EEA1
:10429000400A02F045FC9AED050A0220B8EE400AF9
:1042A00002F03EFC9AED0C0A0120B8EE400A02F042
:1042B00037FC0CE00BF1240002F010FC4FF0040975
:1042C00005E00BF14C0002F009FC4FF003094846F1
:1042D0001BB0BDE8F08F000025730000F0E3010083
:1042E00014E4010070B5DFF8584C0020B0B0207025
:1042F00042F21076ADF82C6041F230020BA9204654
:10430000FEF7ACFCBDF82C50761BADF82C6003F02A
:1043100009F90646002196ED000A2DA8B8EE400ADC
:1043200002F084FE96ED070A00211BA8B8EE400AB1
:1043300002F07CFE96ED010A00212AA8B8EE400AA0
:1043400002F074FE96ED080A002118A8B8EE400AA3
:1043500002F06CFE96ED020A002127A8B8EE400A92
:1043600002F064FE96ED090A002115A8B8EE400A95
:1043700002F05CFE96ED030A002124A8B8EE400A84
:1043800002F054FE96ED0A0A002112A8B8EE400A87
:1043900002F04CFE96ED040A002121A8B8EE400A76
:1043A00002F044FE96ED0B0A00210FA8B8EE400A79
:1043B00002F03CFE96ED050A00211EA8B8EE400A68
:1043C00002F034FE96ED0C0A00210CA8B8EE400A6B
:1043D00002F02CFE1EA90CA809910FAA0A900892BF
:1043E00024A921AB12A8059115AA0793069004925F
:1043F0002AA927AB18A801911BAA03930290009247
:104400002DABBDF82C10DFF83C2B601905F0FCF843
:1044100055FA80F5AAB20421A1546D1CDFF8940767
:1044200002F05CFBA8B202F064FBDFF88C0702F03C
:1044300055FBA9B2204602F05AFBDFF8800702F0D4
:104440004DFBA9B2204606F0C7F9FEF701FC00209B
:1044500030B070BD2C0000002DE9FE4F04460FF275
:10446000B81002F03BFB204602F038FB03F05CF88A
:104470000646D6F80090D6F8048002232C2269461E
:10448000204602F031FE07460FF2A81002F026FB8C
:104490000025012F0CDBEA463C460FF2702B5AF840
:1044A000040B02F01BFB584602F018FB641EF6D109
:1044B000022F30D1009B187860B10A2200211846E3
:1044C00002F060FF044603F00AF808B1A14601E0DB
:1044D000002400E00124009805F0C4FC07462CB934
:1044E000DFF8C00D02F0FAFA04250AE0C6F80090E1
:1044F000C6F804800FF25C1002F0F0FA306802F0A7
:10450000F8FAFFB2012F0BD106F010FA40B90D20D6
:1045100006F004FA04E00FF2581002F0DFFA032567
:10452000284600F0B7BC7CB5DFF8144A00202070A4
:1045300042F21075ADF8005041F233026946204650
:10454000FEF78CFBBDF80060AD1BADF8005002F02B
:10455000EBFFB3E00000FF1F2DE9FC4704460FF21C
:10456000B80002F0BBFA204602F0B8FA02F0DEFF13
:1045700006460223D6F800802C226946204602F027
:10458000B3FD07460FF2AC0002F0A8FA0025012F98
:104590000CDBE9463C460FF2741A59F8040B02F0A2
:1045A0009DFA504602F09AFA641EF6D1022F29D1E4
:1045B000009B187860B10A220021184602F0E2FE42
:1045C000044602F08FFF08B1A04601E0002400E09D
:1045D0000124019805F046FC07462CB9DFF8C40C0D
:1045E00002F07CFA042508E0C6F800800FF26400AF
:1045F00002F074FA306802F07CFAFFB23FB904F0BE
:104600002BFC04E00FF2680002F068FA032528464C
:10461000BDE8F687601800200D0A496E2050726FC1
:1046200063657373536574436F6E74696E75652D3E
:104630003E0000000A436F6E74696E756520536515
:10464000742052656365697665642056616C756592
:1046500073203A000A20436F6E74696E75652053AB
:10466000657456616C75652F732053657400000086
:104670000A20436F6E74696E7565205365745661C8
:104680006C75652F7320496E76616C69640000005B
:104690007CB5DFF8AC480020207042F21075ADF810
:1046A000005041F2340269462046FEF7D7FABDF8C1
:1046B0000060AD1BADF8005002F038FF0368BDF894
:1046C000001075A2A01904F09FFF56FA80F5AAB257
:1046D0000421A1546D1CDFF8DC0402F0FFF9A8B23C
:1046E00002F007FADFF8D00402F0F8F9A9B2204688
:1046F00002F0FDF9DFF8C40402F0F0F9A9B2204697
:1047000006F06AF8FEF7A4FA002076BD2C0000003F
:104710002DE9F04383B0044602F0E0F902232C2295
:1047200001A9204602F0E0FC07460FF28010DFF8F6
:10473000106802F0D3F9304605F0F8FE0146304625
:1047400008F052FD002F4FF000080CDD01AD3C4693
:104750000FF2481955F8040B02F0C0F9484602F070
:10476000BDF9641EF6D1022F40F08C80019800281C
:1047700000F0888005F076FB044642F2107786F858
:104780000080ADF8007041F23F0269463046FEF706
:1047900065FABDF80050781BADF800002821F0192B
:1047A00005F030FCDFF8087B42F2117949463846C3
:1047B00009F042F84946DFF8FC0A09F03DF8012CFF
:1047C00002D109F00CF912E0022C02D109F009FA29
:1047D0000DE0032C02D109F04FFB08E0042C02D1BC
:1047E00009F0A6FD03E0052C09D109F04FFCBDF846
:1047F00000103B46D3A2701904F006FF17E0062C08
:1048000015D10FF2C8000AF031FF0FF2D0000AF004
:104810002DFF0FF2D4000AF029FF0FF2DC000AF09E
:1048200025FF0FF2E4000AF021FF09F009F83846ED
:1048300005F07CFE4519ADB2042070556D1CDD48B5
:1048400002F04CF9ADB2284602F053F9DA4802F012
:1048500045F92946304602F04AF9D84802F03EF9B7
:1048600008F0A6FA012803D12A463146022004E0C6
:1048700008F09EFA18B92A46314605F0CFFFFEF738
:10488000E7F905E0DFF89C0D02F028F94FF0030886
:104890004046FEF713BD0000256400002C00000018
:1048A0006807FF1FB8EA0100781800200A526571F6
:1048B00075657374204C6F67205265636569766512
:1048C000642056616C756573203A000054656D7004
:1048D000657261742E74787400000000534F436C4D
:1048E0006F672E74787400004D4F544F52435254EA
:1048F0002E747874000000004155544F4359434CC6
:104900002E747874000000004552524F524C4F47AD
:104910002E7478740000000070B5DFF88C5BDFF84F
:104920008C0BD5ED0A0A90ED000ADFF8844B60EE9F
:10493000200AFDEEE00AC4ED130A02F0EFFD94ED4B
:10494000130AD0ED010AE16EB8EEC00AC0EE200AEB
:10495000FDEEE00A10EE900A90FBF1F100EE101A65
:10496000E064B8EEC00A85ED0F0AA16C012935D1CB
:1049700000EE100AB8EEC00AD4ED0D0AC0EE800AAF
:10498000C5ED0C0AA16DD4ED0C0A91FBF0F200FB11
:104990001211216580EE800AE16D91FBF0F300FBBE
:1049A0001310606585ED0B0A0021201D02F03EFB0F
:1049B000002104F1180095ED0C0A02F037FBD4ED4C
:1049C000140A95ED0F0AF8EEE00AC0EE800AFDEE3B
:1049D000E00AC5ED160A94ED151A92E002290A467E
:1049E00042D1A16E00EE100A00EE901AB8EEC00A95
:1049F000F8EEE00AC0EE800AC5ED0E0A91FBF0F673
:104A0000626E92FBF0F300EE902A00FB132300FB92
:104A100016106865F8EEE00A2B6580EE800A85EDD9
:104A20000D0A002104F5E07002F000FB002104F5FE
:104A3000EA7095ED0E0A02F0F9FAD5ED140A95ED3B
:104A4000151A95ED0F0AF8EEE00AB8EEC11AC0EE9D
:104A5000800A81EE000AFDEEE00ABDEEC00AC5ED57
:104A6000180A85ED190A54E0032912D194ED1C0AA5
:104A7000B8EEC00AF8EEE00A80EE200ABDEEC00AE9
:104A800085ED1A0A00212846B8EEC00A02F0CEFAD7
:104A90003FE004293ED100EE100AB8EEC00AD4ED82
:104AA0000F0AC0EE800AC5ED110A216C91FBF0F2ED
:104AB00000FB1211A964616C91FBF0F300FB131071
:104AC000E8640021D4ED0E0A80EE800A85ED100A1C
:104AD00005F1140002F0AAFA0021DFF84C0D95ED63
:104AE000110A02F0A3FAD5ED120A95ED0F0A95ED21
:104AF000131AF8EEE00AC0EE800AFDEEE00AC5EDFA
:104B0000160AB8EEC11A81EE000ABDEEC00A85EDA4
:104B1000170A0022A26470BD10B5002008F068FBDF
:104B2000DFF8084D0221204602F080FA012008F04B
:104B30005FFB022104F10C0002F078FA07F0F6FCAA
:104B400050E00000257300001CB507F074FCDFF88E
:104B5000E04C0121204602F069FA07F097FC0121A0
:104B600004F10C0002F062FA07F07DFC012104F16F
:104B7000180002F05BFA07F0D9FC012104F13000C3
:104B800002F054FA684607F0ABFC9DF804009DED76
:104B9000000A08B9B1EE400A012104F1240002F034
:104BA00045FA07F00DFC022104F13C0002F03EFA48
:104BB00016BD0000A46A0000B46A0000C06A0000CC
:104BC00010B508F0EFF9DFF8684A0221204602F03C
:104BD0002DFA08F003FA022104F10C0002F026FA83
:104BE00008F022FA04F11800BDE81040022102F09A
:104BF0001DBA000008D4010030B58DB005F096FE56
:104C00000446DFF8345C6921284608F0EDFA2346B3
:104C1000C9A20321284604F0F7FC282103A805F0C7
:104C2000F1F903A9284607F0D1FEC4A4214607F0F4
:104C3000CDFE07F0C5FB0221684602F0F7F9694690
:104C4000284607F0C3FE214607F0C0FE0DB030BD78
:104C50007418002038B58EB00021ADF80010002285
:104C6000DFF8D80BDFF8D04B0178027030318DF8C7
:104C7000001004A8282105F0C5F904A9204607F072
:104C8000A5FEAEA5294607F0A1FE07F099FB02217B
:104C900001A802F0CBF901A9204607F097FE2946AA
:104CA00007F094FE6946204607F090FE0FB030BD35
:104CB00030B5DFF8FC4704F1E8058DB069212846DE
:104CC00008F0BAFD692104F5AA7008F0B5FD0FF2ED
:104CD0004401284607F07AFE282103A805F092F93E
:104CE00003A9284607F072FE94A107F06FFE03A9FE
:104CF00004F180000AF00AFD07F062FB0221684619
:104D000002F094F9694604F1A8000AF0FFFC0DB026
:104D100030BD00004379636C652053746172742068
:104D200054696D653A20000010B58EB00021ADF8D1
:104D300000100022DFF8040BDFF8744701780270DE
:104D400030318DF8001004A8282105F05BF90FF22E
:104D5000540104F1E80007F039FE04A907F036FE1B
:104D600004A904F1B0000AF0D1FC07F029FB0221EC
:104D700001A802F05BF901A904F1D8000AF0C6FC11
:104D8000694604F1E0000AF0C1FC012020700EB079
:104D900010BD00007C6900003CDF0100D174000000
:104DA000DB74000020456E642054696D653A200074
:104DB0002DE9FE4F04460FF2E800DFF8F08B01F01A
:104DC0008DFE204601F08AFE02F0B2FB83460223EC
:104DD000DBF800902C226946204602F085F9054652
:104DE000404601F07BFE0026012D0BDBEA462C46F7
:104DF00052A75AF8040B01F071FE384601F06EFE1E
:104E0000641EF6D1022D3FD1DFF8A4460320A06432
:104E1000009806F008FD51EC100B0AF083FC2067A7
:104E2000009805F01FF842F210718842206623DBDB
:104E3000FFF772FD0FF2840001F050FEDFF86836D4
:104E4000187840B10A220021184602F09BFA8146E8
:104E50000120C04650B10FF2780001F03FFECBF8C0
:104E60000090484601F045FEB2A002E0042608F199
:104E7000240001F033FE0CE008F14C0001F02EFE9E
:104E8000002003F07EFA03E008F14C0001F026FE5A
:104E90000326304603B0BDE8F08F00009C69000097
:104EA0000D0A496E2050726F6365737353657450B9
:104EB000756C7365436F756E742D3E000D0A496EF7
:104EC0002050756C736563616C632D3E00000000BB
:104ED0000A2050756C736520436F756E742053659E
:104EE0007456616C75652F7320736574203A2000C9
:104EF0007CB5134C0020207042F21075ADF80450C0
:104F000041F2350201A92046FDF7A8FEBDF8046074
:104F1000AD1BADF8045002F00BFBDFF894150068F0
:104F20000B6EBDF804100FF220020090A01904F0DF
:104F30006BFBFFF7CABB000025642C002C000000AF
:104F40003485FF1FDCEA010025642C256400000085
:104F50002DE9F04FADF5A06D054695B0DFF8540A88
:104F600001F0BCFD284601F0B9FD2B232C220DF5E4
:104F70009561284602F0B8F80746DFF83C0A01F0D0
:104F8000ADFD012F4FF000080CDB0DF5956B3D4694
:104F900069A45BF8040B01F0A1FD204601F09EFD21
:104FA0006D1EF6D12B2F00F3BB80DDF8A814087816
:104FB00000281FBF0DF5956569680878002800F086
:104FC000AF80DDF8A8040A22002102F0DBF90646D2
:104FD00068680A22002102F0D5F90546B542C0F002
:104FE0009880152D80F09580002E00F0928000951D
:104FF0003346DFF8A82B322105A804F005FB05A8ED
:1050000001F06CFDAD1B6D1C0095A7F1030ADFF8E4
:10501000900B01F063FD009801F06BFDDFF8840B4D
:1050200001F05CFD504601F064FD009840005045E1
:105030007AD101F0B7FD029012A802994FF48C6268
:1050400004F09EFADFF8602B0392701E12A95546F9
:1050500001274FF0020B01EBC0040DF59669824663
:1050600001961AE0039A59F8040B2146FEF726FD33
:105070000740039A59F8040B7E1EB641211DFEF726
:105080001DFDF64300EAD676771EBF41FF43FF0FB2
:105090000AF1010A0BF1020B083400980199081873
:1050A000401E04900498824501D25D45DAD2009DED
:1050B00047B3DFF8F80A01F011FD029812A94FF486
:1050C0008C6204F05DFA01980299A0F1010B01983D
:1050D000451901EBCB046D1E0FF2CC190FF2580AE3
:1050E000AB4523D2206801F004FD504601F0F6FCE8
:1050F000606801F0FEFC484601F0F0FC0BF1010B8A
:105100000834EDE7DFF8A80A01F0E8FC4FF00408E6
:105110000CE0DFF8A00A01F0E1FC4FF0040805E024
:10512000DFF8FC0B01F0DAFC4FF003080DF5A06D81
:10513000404675E3202C00002C0000002DE9F847C4
:10514000044691B0DFF8700A01F0C8FC204601F077
:10515000C5FC03232C2201A9204601F0C5FF05460A
:10516000DFF8C00B01F0BAFC0026012D0DDB0DF1BC
:1051700004092C460FF2341859F8040B01F0AEFC68
:10518000404601F0ABFC641EF6D1032D4AD10199D3
:10519000087800281FBF01AD69680878002841D051
:1051A00001980A22002102F0EDF8044668680A22FC
:1051B000002102F0E7F80746A7422DD3152F2BD286
:1051C00054B3381B152827D200972346DFF8CC2983
:1051D000322104A804F018FA04A801F07FFCDFF8DB
:1051E0004C9B42F2107889F80060ADF8008041F2E3
:1051F000410269464846FDF731FDBDF80050A8EB75
:105200000500ADF80000641E01F0CCFC7F1E00EB31
:10521000C40ADFF81C8B22E0DFF8180B01F05EFCFB
:1052200004263DE0DFF8100B01F058FC032637E0C0
:105230005AF8043BBDF80010A8B24246484404F0B6
:10524000E3F955FA80F55AF8043BBDF80010A8B20E
:105250004246484404F0D8F955FA80F5641CA74248
:10526000E6D26C1EA1B2042009F80100641CDFF82C
:10527000CC0A01F033FCA0B201F03BFCDFF8C00A1D
:1052800001F02CFCA1B2484601F031FCDFF8A00C83
:1052900001F024FCA1B2484605F09EFAFDF7D8FCC7
:1052A000BCE1000000EB0100202000002C00000009
:1052B0000C35FF1FF80DFF1F2DE9F04FADF5A06D68
:1052C000054695B0DFF8EC0601F008FC284601F031
:1052D00005FC2B232C220DF59561284601F004FFD7
:1052E0000646DFF8D40601F0F9FB012E4FF0000A64
:1052F0000DDB0DF5956B35460FF2A8185BF8040B26
:1053000001F0ECFB404601F0E9FB6D1EF6D12B2EBF
:1053100000F3C180DDF8A814087800281FBF0DF540
:10532000956569680878002800F0B580DDF8A80464
:105330000A22002102F026F8044668680A220021A9
:1053400002F020F80546A542C0F09E80152D80F0A1
:105350009B80002C00F0988000952346DFF83C28C5
:10536000322105A804F050F905A801F0B7FB2D1B68
:105370006D1C0095F61EDFF8280801F0AFFB0098C1
:1053800001F0B7FBDFF81C0801F0A8FB304601F084
:10539000B0FB00984000B04240F0818001F002FC78
:1053A000029012A802994FF48C6204F0E9F8601E92
:1053B00012A901EBC00202F1A008DFF8EC2703926A
:1053C000354601274FF0020B0DF59669064601940C
:1053D0001BE0039A59F8040B4146FEF76FFB0740A8
:1053E000039A59F8040B7C1E08F10401A441FEF74E
:1053F00065FBE44300EAD474671EBF41FF43FF0F1F
:10540000761C0BF1020B08F10808009801990818A6
:10541000401E04900498864201D25D45D9D2009D79
:105420005FB3DFF8880701F059FB029812A94FF427
:105430008C6204F0A5F8019E0298761E00EBC6016E
:105440000198451901F1A0086D1E0FF2DC190FF249
:10545000540BAE4225D2D8F8000001F04AFB584662
:1054600001F03CFBD8F8040001F043FB484601F092
:1054700035FB761C08F10808EBE7DFF8340701F08C
:105480002DFB4FF0040A0CE0DFF8280701F026FBA3
:105490004FF0040A05E0DFF8880801F01FFB4FF029
:1054A000030ABAE12C000000740AFF1F78180020DC
:1054B0006807FF1F2DE9F847044691B0DFF8F806AA
:1054C00001F00CFB204601F009FB03232C2201A96B
:1054D000204601F009FE0546DFF8480801F0FEFA13
:1054E0000026012D0DDB0DF104092C460FF23C18AE
:1054F00059F8040B01F0F2FA404601F0EFFA641E8D
:10550000F6D1032D4CD10199087800281FBF01ADB9
:1055100069680878002843D001980A22002101F028
:1055200031FF044668680A22002101F02BFF07467C
:10553000A7422FD3152F2DD264B3381B152829D29B
:1055400000972346DFF85426322104A804F05CF8C3
:1055500004A801F0C3FADFF8D49742F2107889F872
:105560000060ADF8008041F2420269464846FDF70E
:1055700075FBBDF80050A8EB0500ADF80000641EF7
:1055800001F010FB00EBC4007F1E00F1A00ADFF861
:10559000A08722E0DFF89C0701F0A0FA04263DE096
:1055A000DFF8940701F09AFA032637E05AF8043B33
:1055B000BDF80010A8B24246484404F025F855FA58
:1055C00080F55AF8043BBDF80010A8B242464844A2
:1055D00004F01AF855FA80F5641CA742E6D26C1E56
:1055E000A1B2042009F80100641CDFF8500701F0A3
:1055F00075FAA0B201F07DFADFF8440701F06EFA07
:10560000A1B2484601F073FADFF8240901F066FA06
:10561000A1B2484605F0E0F8FDF71AFB304612B09B
:10562000BDE8F08714E40100202000002C000000F9
:10563000F41400202DE9F04FADF5A06D054695B0AE
:10564000DC4801F04BFA284601F048FA2B232C22C3
:105650000DF59561284601F047FD0646D64801F054
:105660003DFA012E4FF0000A0DDB0DF5956B354626
:105670000FF2C0185BF8040B01F030FA404601F05D
:105680002DFA6D1EF6D12B2E00F3C180DDF8A81483
:10569000087800281FBF0DF595656968087800280F
:1056A00000F0B580DDF8A8040A22002101F06AFEAE
:1056B000044668680A22002101F064FE0546A542FE
:1056C000C0F09E80152D80F09B80002C00F098800B
:1056D00000952346DFF8C424322105A803F094FF87
:1056E00005A801F0FBF92D1B6D1C0095F61EDFF8D7
:1056F000B00401F0F3F9009801F0FBF9DFF8A4041D
:1057000001F0ECF9304601F0F4F900984000B042A5
:1057100040F0818001F046FA029012A802994FF4FD
:105720008C6203F02DFF601E12A901EBC00202F58E
:10573000A078DFF874240392354601274FF0020B5E
:105740000DF59669064601941BE0039A59F8040B7F
:105750004146FEF7B3F90740039A59F8040B7C1E43
:1057600008F10401A441FEF7A9F9E44300EAD47466
:10577000671EBF41FF43FF0F761C0BF1020B08F1C0
:105780000808009801990818401E04900498864261
:1057900001D25D45D9D2009D5FB3DFF8100401F05E
:1057A0009DF9029812A94FF48C6203F0E9FE019E64
:1057B0000298761E00EBC6010198451901F5A07804
:1057C0006D1E0FF2E4190FF26C0BAE4225D2D8F821
:1057D000000001F08EF9584601F080F9D8F8040075
:1057E00001F087F9484601F079F9761C08F10808BC
:1057F000EBE7DFF8BC0301F071F94FF0040A0CE0AD
:10580000DFF8B00301F06AF94FF0040A05E0DFF8B1
:10581000100501F063F94FF0030A0DF5A06D504635
:1058200015B0BDE8F08F0000A8160020D0140020AD
:10583000C81200202C000000A01100200518002034
:105840002DE9F847044691B0DB4801F047F92046BE
:1058500001F044F903232C2201A9204601F044FC65
:105860000546DFF8C00401F039F90026012D0DDBF3
:105870000DF104092C460FF2381859F8040B01F009
:105880002DF9404601F02AF9641EF6D1032D4BD1C3
:105890000199087800281FBF01AD696808780028C1
:1058A00042D001980A22002101F06CFD044668688C
:1058B0000A22002101F066FD0746A7422ED3152FCC
:1058C0002CD25CB3381B152828D200972346B34A44
:1058D000322104A803F098FE04A801F0FFF8DFF8D5
:1058E0004C9442F2107889F80060ADF8008041F2E3
:1058F000430269464846FDF7B1F9BDF80050A8EBF0
:105900000500ADF80000641E01F04CF900EBC40086
:105910007F1E00F5A07ADFF8188422E0DFF8140477
:1059200001F0DCF804263DE0DFF80C0401F0D6F8C5
:10593000032637E05AF8043BBDF80010A8B24246EF
:10594000484403F061FE55FA80F55AF8043BBDF86F
:105950000010A8B24246484403F056FE55FA80F5BE
:10596000641CA742E6D26C1EA1B2042009F8010013
:10597000641CDFF8C80301F0B1F8A0B201F0B9F877
:10598000DFF8BC0301F0AAF8A1B2484601F0AFF875
:10599000DFF8180701F0A2F8A1B2484604F01CFF96
:1059A000FDF756F93AE6000020200000C4C60100C9
:1059B0002C0000000C6600000CD701002DE9F04F10
:1059C000ADF5A06D054695B0DFF8340C01F086F812
:1059D000284601F083F82B232C220DF595612846EB
:1059E00001F082FB0646DFF81C0C01F077F8012E6F
:1059F0004FF0000A0DDB0DF5956B35460FF2981848
:105A00005BF8040B01F06AF8404601F067F86D1E80
:105A1000F6D12B2E00F3B980DDF8A8140878002801
:105A20001FBF0DF5956569680878002800F0AD8006
:105A3000DDF8A8040A22002101F0A4FC04466868ED
:105A40000A22002101F09EFC0546A542C0F0978085
:105A5000152D80F09480002C00F091800095234655
:105A60004E4A322105A803F0CFFD05A801F036F813
:105A70002D1B6D1C0095F61E494801F02FF800986B
:105A800001F037F8474801F029F8304601F031F8C5
:105A900000984000B0427CD101F084F8029012A836
:105AA00002994FF48C6203F06BFD601E12A901EBAA
:105AB000C00202F5F0783C4A0392354601274FF0C8
:105AC000020B0DF59669064601941BE0039A59F8FE
:105AD000040B4146FDF7F2FF0740039A59F8040B07
:105AE0007C1E08F10401A441FDF7E8FFE44300EA4D
:105AF000D474671EBF41FF43FF0F761C0BF1020BEE
:105B000008F10808009801990818401E04900498AC
:105B1000864201D25D45D9D2009D57B3234800F09B
:105B2000DDFF029812A94FF48C6203F029FD019E5B
:105B30000298761E00EBC6010198451901F5F07830
:105B40006D1E0FF2D8190FF2500BAE4223D2D8F8C7
:105B5000000000F0CEFF584600F0C0FFD8F8040067
:105B600000F0C7FF484600F0B9FF761C08F10808AE
:105B7000EBE70F4800F0B2FF4FF0040A0BE00D48CE
:105B800000F0ACFF4FF0040A05E0DFF8840800F0F5
:105B9000A5FF4FF0030A40E62C0000003468000027
:105BA0002C66000048660000CB73000060660000B1
:105BB00030D7010058D70100F46700002DE9F847FD
:105BC000044691B0DFF8240C00F088FF204600F076
:105BD00085FF03232C2201A9204601F085FA054602
:105BE000504800F07BFF0026012D0DDB0DF104096C
:105BF0002C460FF2341859F8040B00F06FFF4046A2
:105C000000F06CFF641EF6D1032D4BD1019908788A
:105C100000281FBF01AD69680878002842D00198AC
:105C20000A22002101F0AEFB044668680A22002126
:105C300001F0A8FB0746A7422FD3152F2DD264B33E
:105C4000381B152829D200972346DFF8A42B3221D0
:105C500004A803F0D9FC04A800F040FFDFF8CC90C2
:105C600042F2107889F80060ADF8008041F24402F9
:105C700069464846FCF7F2FFBDF80050A8EB050066
:105C8000ADF80000641E00F08DFF00EBC4007F1E25
:105C900000F5F07ADFF8988020E0264800F01EFF3B
:105CA00004263AE0244800F019FF032635E05AF8AC
:105CB000043BBDF80010A8B24246484403F0A4FCDF
:105CC00055FA80F55AF8043BBDF80010A8B24246D8
:105CD000484403F099FC55FA80F5641CA742E6D2CB
:105CE0006C1EA1B2042009F80100641C134800F0E6
:105CF000F5FEA0B200F0FDFE114800F0EFFEA1B2EB
