:020000040000fa
:020000040040ba
:10000000f0ff452001c942002389400069484300b0
:10001000754843007b4843008148430000000000ce
:1000200000000000000000000000000007a24000e7
:100030006f4843000000000007a2400065f6420040
:1000400007a2400007a2400007a2400007a240000c
:1000500007a2400007a2400007a2400041c24200a0
:10006000a9c242000000000041ee420007a2400089
:10007000f50a4300699f4200619e4200e59e4200ee
:10008000250b4300550b430025a241001d514100a3
:1000900007a2400007a2400007a24000a9d14200e9
:1000a00007a2400007a2400007a2400007a24000ac
:1000b00007a2400007a2400007a2400007a240009c
:1000c00007a2400007a2400007a240000000000075
:1000d0000000000000000000000000000000000020
:1000e00007a24000b54e410007a24000f1b2410016
:1000f00007a2400007a2400007a2400007a240005c
:1001000007a2400007a2400007a2400007a240004b
:1001100007a24000000000000000000000000000f6
:1001200007a2400007a240000d84420007a2400041
:1001300007a2400007a2400007a2400007a240001b
:1001400007a2400007a240000000000000000000dd
:0c01500007a2400007a2400007a24000e8
:020000040000fa
:020000040040ba
:10015c00f8b500bff8bc08bc9e46704725ed4200c0
:10016c00f8b500bff8bc08bc9e46704701ed4200d4
:020000040000fa
:020000040040ba
:08017c000a1f01000100000050
:020000040000fa
:020000040040ba
:1001840090b5d9b030af33f065fc034687f89730ab
:1001940034f008f8c7f89000042387f88f3032f061
:1001a400c1ff0a460146be4b1b684ff00004c91a42
:1001b40062eb0402bb4b1b684ff00004a24208bf71
:1001c400994202d3b84b01221a7033f0e1ffc7f809
:1001d400880097f897300f2b01f2118301a252f88f
:1001e40023f000bfed1740002902400097044000af
:1001f400090540001b05400059074000bb074000ab
:10020400251440000f154000e51540009d154000e1
:10021400691640001f174000311740003d17400089
:10022400ed164000a14b00221a70ff2032f09afa1a
:1002340027f0fef89e4b00221a709e4b00221a8073
:100244009c4b1b881a469c4b1a609c4b00221a80bc
:100254009b4a9c4b10461946c8231a4633f093fe1a
:10026400994b1b689ab2994b1a80954c984b2e93d4
:10027400684604f11003b822194633f084fe94e86a
:100284000f002bf00dfc03461a46924b1a708c4c4f
:100294008f4b2e93684604f11003b822194633f0ad
:1002a40072fe94e80f002bf0a4f803461a468a4b1a
:1002b4001a70884b1a78884b1b781344dab2874b30
:1002c4001a70874bd3e900347d4a02f5a472c2e95f
:1002d40000347b4b834a03f5a87311464ff42a720a
:1002e400184633f050fe002031f04ef8012032f071
:1002f40029fa7d4b01221a700023c7f89c30774bf2
:100304001b78013bc7f898303ee0724b1b781a46c5
:10031400d7f89c309a420edd694ad7f89c300433f2
:100324009b0013445b681946654ad7f8983032330a
:1003340042f823101ee0674b1b781a46d7f89c300e
:100344009a4217dc654b1b781a46d7f89c309a42c0
:1003540010db604b1b781a46d7f89c309b1a584a1e
:100364001e3352f823301946554ad7f898303233a1
:1003740042f82310d7f89c300133c7f89c30d7f8e3
:100384009830013bc7f89830544b1b781a46d7f87d
:100394009c309a42b9dcd7f890301b68002b0ed001
:1003a400d7f890301a68514b1b689a4207dc1b201f
:1003b40032f06cfe0b2032f065f901f020ba474ba5
:1003c4001b78002b08d033f05dfb0346002b0cd1c7
:1003d400022032f057f908e0102030f0d5ff4448ed
:1003e40031f04eff0b2032f04df9002030f0a0fc2c
:1003f4000346002b1cd0012030f09afc0346002b4e
:1004040016d03c4b03221a70132030f0bdff3a483b
:1004140031f036ff012032f065f9384b1b78013397
:10042400dab2364b1a70354b1a78354b1a702ce009
:10043400254b1b68002b03db2e4b00221a7024e093
:1004440033f088fc0346012b09d12b4831f018ff07
:100454000e2032f017f9032032f034f915e0254b61
:1004640003221a70132030f08fff234831f008ff65
:10047400012032f037f9214b1b780133dab21f4bdc
:100484001a701e4b1a781e4b1a702df065fe01f07f
:10049400b6b933f06bf9032032f0f4f801f0afb9d8
:1004a400ccff4020d0ff402098004120b182402062
:1004b400910041203ef54020e82f40203afd4020a5
:1004c400a07e40203c5b40208c694020d46c4020be
:1004d40098824020990041209a0041209b004120ad
:1004e400a8824020546140209c004120b0ff40205d
:1004f400149740009d00412050974000085d402023
:10050400fc7240209e4b01221a70012032f07af8ce
:10051400042032f0b7f89b4b01221a7033f0baf87a
:1005240032f0e0f9984b1b78002b3bd1974b1b78aa
:100534009ab2974b1b889a420cd9954b1b88954ac3
:1005440004339b0013445b6800221946002020f00a
:10055400ddfe1ce08d4b1b789ab28d4b1b889a42b2
:1005640015d88d4b1b789ab2894b1b889a420ed9a9
:10057400874b1b881a46854b1b78d31a854a1e3332
:1005840052f8233000221946002020f0bffe33f039
:100594006fff7f4b1b88dbb20133dbb2184632f0ae
:1005a400e1f83ee0784b1b78012b3ad1774b1b786e
:1005b4009ab2774b1b889a420cd9754b1b88754aa3
:1005c40004339b0013445b6800221946012020f089
:1005d4009dfe1ce06d4b1b789ab26d4b1b889a42b2
:1005e40015d86d4b1b789ab2694b1b889a420ed969
:1005f400674b1b881a46654b1b78d31a654a1e3312
:1006040052f8233000221946012020f07ffe33f0f7
:100614002fff5f4b1b88dbb20133dbb2184632f08d
:10062400a1f85d4b1b789ab2594b1b889a4211d89a
:10063400092032f027f832f075fd03460c461a46bd
:10064400564b1a60564b4ef660221a60554b0022e8
:100654001a707fe04b4b01221a70052032f012f819
:1006640032f060fd03460c461a464c4b1a6033f0d8
:10067400e5f90346002b35d1444b1b789ab2444b21
:100684001b889a420ed9424b1b88424a04339b0072
:1006940013445b6842f2107202fb03f31a46404ba8
:1006a4001a6054e0394b1b789ab2394b1b889a4232
:1006b4004dd8394b1b789ab2354b1b889a4246d990
:1006c400334b1b881a46314b1b78d31a314a1e33dd
:1006d40052f8233042f2107202fb03f31a46304bf5
:1006e4001a6034e0294b1b789ab2294b1b889a4232
:1006f4000ed9274b1b88274a04339b0013445b689d
:1007040042f2107202fb03f31a46254b1a601ee0f4
:100714001e4b1b789ab21e4b1b889a4217d81e4b4d
:100724001b789ab21a4b1b889a4210d9184b1b8813
:100734001a46164b1b78d31a164a1e3352f8233026
:1007440042f2107202fb03f31a46154b1a60154b62
:1007540000221a70144b1b78192b29d1134b1b78c8
:10076400dbb2002b01f042800f4b00221a70064bc3
:1007740000221a70032031f085ff01f037b800bf62
:1007840008614020940041209d00412099004120af
:100794003ef54020a07e40209b004120ccff40201d
:1007a400d0ff402098004120a282402096004120a2
:1007b400062031f067ff022031f0c4ff33f038fd2a
:1007c400c7f88400d7f884203b461146782218469f
:1007d40033f0d9fb31f07efaaf4834f03bf80346ee
:1007e400c7f880302df0b8fcac4b1b7883f00103c4
:1007f400dbb2002b00f0f78533f0f0f80346002b52
:1008040000f0c485d7f890301b68fb67fb6f002ba2
:1008140040f08881a24b1b68002b40f08381a14be0
:100824001b78012b0cd144f620602ff093fd9d4bd7
:1008340000221a709c4b00221a709c4b01221a70e1
:100844009b4b1b68002b10db994b1b68092b0cdca2
:10085400974b1b689b0007f1a002134453f8a03c7c
:100864001a46d7f880309a4230d0914b1b68092b36
:1008740012dd8f4b1b68132b0edc8d4b1b680a3b60
:100884000a339b0007f1a002134453f8a03c1a4614
:10089400d7f880309a4219d0854b1b68132b40f34c
:1008a400d280834b1b68192b00f3cd80804b1b68cf
:1008b400143b14339b0007f1a002134453f8a03ceb
:1008c4001a46d7f880309a4240f0bd80774b002218
:1008d4001a7033f067f901201df052fd29f0d0fea3
:1008e4000346022b40f01b81724b1b789ab2724b69
:1008f4001b889a4251d933f0affe01466e4b1b88d8
:100904006e4a04339b0013445b68cb1a002bb8bfb8
:100914005b421c4633f0aafc03461b689c4232d857
:10092400072031f0affe624b1b680133604a13604d
:100934005f4b1b68624a136032f0acfe614b1b785c
:10094400002b04d15c4b1a885f4b1a800ae05d4b84
:100954001b78012b06d1584b1a885b4b1a80594bd4
:1009640000221a70002031f09dfe4c4b00221a70b8
:1009740032f0d8fb03460c461a46544b1a60544bcb
:10098400544a1a60cbe00f2031f07cfe122030f084
:10099400fbfc514831f074fcc1e0464b1b789ab221
:1009a400454b1b889a4200f2ba804c4b1b789ab292
:1009b400414b1b889a4240f2b28033f04dfe01460f
:1009c4003d4b1b883d4a1e3352f82330cb1a002b73
:1009d400b8bf5b421c4633f049fc03461b689c428b
:1009e40027d8072031f04efe364b1b78002b04d15c
:1009f400314b1a88344b1a800ae0324b1b78012b96
:100a040006d12d4b1a88304b1a802e4b00221a70b7
:100a1400002031f047fe214b00221a7032f082fb95
:100a240003460c461a46294b1a60294b294a1a6078
:100a340075e00f2031f026fe122030f0a5fc264888
:100a440031f01efc6be0184b1b78dbb2002b00f07e
:100a5400e184164b1b78012b40f0dc8431f086f8de
:100a64000346002b3ed01e4b1b78192b0dd11c4b7b
:100a740000221a70134b00221a70032031f002fe78
:100a840001201df07dfc00f0babe1a2030f07cfc81
:100a94000f2031f0f7fd2ee0006f40209800412038
:100aa4009c694020940041209300412095004120fe
:100ab4008c694020990041203ef54020a07e4020d2
:100ac400b0ff40209d00412006ff4020ccff402085
:100ad400d0ff402020bf02008c9740009b004120a3
:100ae400a2824020192030f04ffc0f2031f0cafdc3
:100af4009c4b00221a709c4b01221a7032f0cafde2
:100b0400012031f0effd994b1b780133dab2974b9a
:100b14001a70964b1a78964b1a7000f07bbc00bf83
:100b240000f078bcfb6f002b40f0b582914b1b6842
:100b3400002b00f0b0828c4b1b78012b0cd142f2bd
:100b440010702ff007fc884b00221a708a4b002289
:100b54001a70844b01221a70864b1b68002b11d02b
:100b6400844b1b680a2b0dd8824b1b68013b9b00ee
:100b740007f1a002134453f8a03c1a46d7f880307a
:100b84009a4230d07b4b1b680a2b12d9794b1b68d5
:100b9400142b0ed8774b1b680b3b0a339b0007f1d1
:100ba400a002134453f8a03c1a46d7f880309a4266
:100bb40019d0704b1b68142b40f20e826d4b1b68ce
:100bc400192b00f209826b4b1b68153b14339b00f5
:100bd40007f1a002134453f8a03c1a46d7f880301a
:100be4009a4240f0f9815f4b00221a7032f0daff2a
:100bf40032f0e8fe0346102b40f04b825f4b1b782b
:100c0400012b13d15b4b1b689ab25d4b1a805c4b72
:100c14001b88013b9ab25b4b1a80564b1b681a46e1
:100c2400594b1a60534b00221a6020e1534b1b7836
:100c3400022b19d14f4b1b689ab2d7f888301b6826
:100c44009bb2d31a9ab24e4b1a804d4b1b88013b70
:100c54009ab24c4b1a80474b1b681a464a4b1a608f
:100c6400444b00221a6002e1444b1b78032b1fd132
:100c7400404b1b689ab2d7f888305b6899b2d7f8b2
:100c840088301b689bb20b449bb2d31a9ab23c4b7c
:100c94001a803b4b1b88013b9ab23a4b1a80354b66
:100ca4001b681a46384b1a60324b00221a60dee089
:100cb400324b1b78042b25d12e4b1b689ab2d7f8e4
:100cc40088309b6899b2d7f888305b689bb20b4434
:100cd40099b2d7f888301b689bb20b449bb2d31ae5
:100ce4009ab2274b1a80264b1b88013b9ab2254b9c
:100cf4001a80204b1b681a46234b1a601d4b002296
:100d04001a60b4e01d4b1b78052b3fd1194b1b68af
:100d14009ab2d7f88830db6899b2d7f888309b68e4
:100d24009bb20b4499b2d7f888305b689bb20b44f2
:100d340099b2d7f888301b689bb20b449bb2d31a84
:100d44009ab20f4b1a800e4b1b88013b9ab20d4b83
:100d54001a80084b1b681a460b4b1a60054b00227d
:100d64001a6084e09500412094004120085d4020f1
:100d7400fc7240209c694020930041202461402063
:100d84003afd40203ef540208c694020a04b1b7862
:100d9400062b31d19f4b1b689ab2d7f888301b6958
:100da40099b2d7f88830db689bb20b4499b2d7f874
:100db40088309b689bb20b4499b2d7f888305b6843
:100dc4009bb20b4499b2d7f888301b689bb20b4492
:100dd4009bb2d31a9ab2904b1a808f4b1b88013b5b
:100de4009ab28e4b1a808b4b1b681a468c4b1a6036
:100df400884b00221a603ae0854b1b78072b36d1ca
:100e0400844b1b689ab2d7f888305b6999b2d7f8db
:100e140088301b699bb20b4499b2d7f88830db68e1
:100e24009bb20b4499b2d7f888309b689bb20b44b1
:100e340099b2d7f888305b689bb20b4499b2d7f863
:100e440088301b689bb20b449bb2d31a9ab2724b84
:100e54001a80714b1b88013b9ab2704b1a806d4b00
:100e64001b681a466e4b1a606a4b00221a606c4b60
:100e74001b686c4a136001201df082fa6a4b1b78d0
:100e84009ab2664b1b889a424cd933f0e5fb014673
:100e9400624b1b88654a04339b0013445b68cb1a7e
:100ea400002bb8bf5b421c4633f0e0f903461b68d5
:100eb4009c422dd8072031f0e5fb32f0ebfb5c4b74
:100ec4001b78002b06d1544b1b88013b9ab2594b1b
:100ed4001a800ce0564b1b78012b08d14e4b1b8813
:100ee400013b9ab2534b1a80514b00221a700020d6
:100ef40031f0d8fb504b00221a7032f013f903463c
:100f04000c461a464d4b1a604d4b4e4a1a60c0e0cf
:100f14000f2031f0b7fb122030f036fa4a4831f096
:100f2400aff9b6e0404b1b789ab23c4b1b889a420f
:100f340000f2af80454b1b789ab2384b1b889a421b
:100f440040f2a78033f088fb0146344b1b88374ab4
:100f54001e3352f82330cb1a002bb8bf5b421c4619
:100f640033f084f903461b689c422bd8072031f0e8
:100f740089fb2f4b1b78002b06d1274b1b88013b89
:100f84009ab22c4b1a800ce0294b1b78012b08d108
:100f9400214b1b88013b9ab2264b1a80244b00221a
:100fa4001a70002031f07efb234b00221a7032f0bd
:100fb400b9f803460c461a46204b1a60204b214ac6
:100fc4001a6066e00f2031f05dfb122030f0dcf98e
:100fd4001d4831f055f95ce01d4b1b78dbb2002b4a
:100fe40000f01a821b4b1b78012b40f015821a4b20
:100ff4001b881a46074b1b689a4231d2032031f0f2
:1010040041fb144b00221a70144b01221a7003e2a4
:10101400246140209c6940203afd40203ef5402058
:101024008c694020b0ff402099004120a07e4020e0
:101034009d00412006ff402098004120ccff402025
:10104400d0ff402020bf02008c9740009b0041202d
:101054009300412095004120d46c4020940041200d
:101064001a2030f091f90f2031f00cfbb34b012220
:101074001a7032f00ffb012031f034fbb04b1b78b7
:101084000133dab2ae4b1a70ad4b1a78ad4b1a700d
:10109400c2e100bfc0e132f00dfd0346012b40f078
:1010a400a783fb6f002b00f0a383a74b1b68002bc7
:1010b40040f09e83a14b1b78012b0cd144f6206099
:1010c4002ff048f99d4b00221a70a04b00221a7091
:1010d4009f4b01221a70fb6f092b0cd8fb6f013b4d
:1010e4009b0007f1a002134453f8a03c1a46d7f81a
:1010f40080309a422ad0fb6f092b10d9fb6f132b37
:101104000dd8fb6f0b3b0a339b0007f1a00213447d
:1011140053f8a03c1a46d7f880309a4216d0fb6f99
:10112400132b40f2d680fb6f182b00f2d280fb6f9a
:10113400153b14339b0007f1a002134453f8a03c61
:101144001a46d7f880309a4240f0c380804b002280
:101154001a7032f027fd32f035fc0346102b40f0b4
:101164005d817c4b1b781a46fb6f9a4256d333f051
:1011740073fa0146fb6f013b774a04339b00134427
:101184005b68cb1a002bb8bf5b421c4633f06ef889
:1011940003461b689c4237d8fb6f704a13606f4b41
:1011a4001b686f4a1360072031f06cfa32f072fa50
:1011b4006c4b1b78002b06d1fb6f9bb2013b9ab2a0
:1011c400694b1a800ce0674b1b78012b08d1fb6f2d
:1011d4009bb2013b9ab2644b1a80624b00221a7094
:1011e400002031f05ffa614b00221a7031f09aff4f
:1011f40003460c461a465e4b1a605e4b5e4a1a6002
:101204005e4b01221a7009e10f2031f03bfa1220e3
:1012140030f0baf85a4831f033f8ffe04d4b1b7800
:101224001a46fb6f9a4200f2f980564b1b781a4615
:10123400fb6f9a42c0f0f28033f00efa0146fb6f66
:10124400013b454a1e3352f82330cb1a002bb8bf5a
:101254005b421c4633f00af803461b689c422ed8b6
:10126400072031f00ffa3f4b1b78002b06d1fb6fa0
:101274009bb2013b9ab23c4b1a800ce0394b1b7871
:10128400012b08d1fb6f9bb2013b9ab2364b1a80fb
:10129400344b00221a70002031f004fa334b002240
:1012a4001a7031f03fff03460c461a46304b1a6061
:1012b400304b314a1a60314b01221a70aee00f20d4
:1012c40031f0e0f9122030f05ff82d4830f0d8ff0b
:1012d400a4e01e4b1b78dbb2002b00f089821c4b70
:1012e4001b78012b40f08482274b1b881a46fb6f26
:1012f4009a4209d2032031f0c5f9154b00221a7025
:101304000e4b01221a7073e21a2030f03df80f20c0
:1013140031f0b8f9094b01221a7032f0bbf90120ff
:1013240031f0e0f9064b1b780133dab2044b1a7042
:10133400034b1a78034b1a705ae200bf9400412001
:10134400085d4020fc7240209c69402093004120ad
:101354009500412099004120a07e40208c694020c6
:10136400b0ff40209d00412006ff4020980041200e
:10137400ccff4020d0ff402020bf0200920041203b
:101384008c9740009b004120d46c402029f078f9d0
:10139400034618462ff0ccfc0346002b13d0112033
:1013a4002ff0f2ffb64830f06bff012031f09af9cc
:1013b400b44b1b780133dab2b24b1a70b14b1a78c2
:1013c400b14b1a7014e22df0a3f90346002b00f080
:1013d4000f820f2031f056f912202ff0d5ffab48c1
:1013e40030f04eff04e218202ff0ceffa84830f072
:1013f40047ff012031f076f9a24b1b780133dab2b2
:10140400a04b1a709f4b1a789f4b1a70a14b002265
:101414001a70ede100bfebe100bfe9e100bfe7e1d5
:101424009d4b07221a70042031f08cf99b4b1b88ca
:10143400012b01d12bf0a6fd994b1b88184603f014
:10144400c9fd034687f88f3097f88f30022b26d1d9
:10145400944b1b78002b22d1934b01221a70934b8f
:101464001b78002b924b1b680133914a1360914bfc
:101474001b8801339ab28f4b1a808e4b1b881a46f5
:101484008d4b1a608d4b00221a7001201cf078ffde
:10149400814b00221a70082031f0f4f834e0814bbb
:1014a4001b78012b1dd197f88f30022b19d10a20fc
:1014b40031f0e8f87b4b00221a707d4b00221a6051
:1014c4007f4b1b687f4a13607d4b00221a607e4b62
:1014d40000221a707d4b00221a6001201cf050ff7c
:1014e40012e097f88f30032b40f08481012031f013
:1014f400f9f8644b1b780133dab2624b1a70614b12
:101504001a78614b1a7075e174e1d7f88830da699a
:101514006b4b1b689a4218dc0a2031f0b3f8644b19
:1015240000221a60664b1b68664a1360644b0022f3
:101534001a60654b00221a70644b00221a6028f06e
:1015440071fa01201cf01cff59e15a4b1b88194603
:101554005d4b1b785a1ed7f8883053f822309942d5
:1015640005db0b2031f08ef828f05cfa47e1584b8c
:101574001b78192b0cd1564b00221a70554b19228b
:101584001a704a4b01221a7044f620602ef0fefeb7
:10159400032031f077f832e132f06aff012031f0b4
:1015a40031f84d4bd3f8f8330022194601201ff0cf
:1015b400adfe092031f066f831f0b4fd03460c4667
:1015c4001a46464b1a60444bd3f8f83342f2107271
:1015d40002fb03f3424a13602e4b00221a700ee101
:1015e400032031f0aff82b4b1b7883f00103dbb2ff
:1015f400002b1ed029f044f8034618462ff098fb20
:101604000346002b06d00b2031f03cf8274b1b7807
:10161400002b24e02df07cf80346002b1fd00f2074
:1016240031f030f812202ff0affe184830f028fec9
:1016340015e018202ff0a8fe154830f021fe0120f7
:1016440031f050f80f4b1b780133dab20d4b1a709e
:101654000c4b1a780c4b1a700e4b00221a702cf09b
:101664007bfdcce01f4b1b78002b00f0c58032f0d3
:1016740071f832f007fa1b4b00221a70bce000bf6d
:10168400d4974000085d4020fc7240200c98400034
:101694004498400098004120a18240200eff402041
:1016a40006ff402092004120a90041209d004120d6
:1016b4002c5f40203ef54020e82f4020b18240209e
:1016c4008c694020b0ff4020246140209c69402068
:1016d400a3824020a2824020a07e4020ccff402054
:1016e400d0ff40209c004120062031f02bf84648d2
:1016f40030f0c6fd454830f0c3fd32f0c3f903466f
:10170400184632f0bdfd424830f0bafd0c2030f0ee
:10171400b9ff0e2030f076ff71e032f053f9034642
:10172400102b6bd10d2030f0adff67e032f012f8d2
:101734000b2030f0a7ff62e036480ff09dfa034615
:1017440087f87b3097f87b30022b03d097f87b30f7
:10175400032b28d197f87b30022b15d12e4b002276
:101764001a70072030f08eff2a4b1a882b4b1a80f0
:10177400284b1b88dbb20133dbb2184630f0f2ff92
:10178400002030f08fff2be0234b00221a7008203a
:1017940030f078ff1f4b1b88dbb20133dbb21846f5
:1017a40030f0e0ff1ce097f87b30042b18d128f0d0
:1017b40067ff03461a46184b1a7013202ff0e4fdf6
:1017c400012030f08fff164b1b780133dab2144b33
:1017d4001a70134b1a78134b1a70134830f050fddb
:1017e4002cf0bafc00bf0ae000bf08e000bf06e02e
:1017f40000bf04e000bf02e000bf00e000bf00bf84
:10180400a437bd4690bd00bf78984000bc98400006
:10181400e49840003ef540209d00412006ff402012
:0c182400085d4020fc724020009940004c
:020000040000fa
:020000040040ba
:101830003cfd40201c0000000000000000e54020ae
:10184000400300000000000039fd402001000000be
:10185000010000000100000020f14020b80100005c
:101860000000000048fb40201400000000000000c1
:10187000d0fb4020300000000000000000004020ad
:10188000707900000000000005ff4020010000000a
:1018900000000000707940202800000000000000d7
:1018a000b0fe40200c00000000000000c8fe4020f8
:1018b0000800000000000000d0fe402008000000ea
:1018c0000000000030fc4020280000000000000064
:1018d000987940203000000000000000c8794020c6
:1018e0003000000000000000f879402030000000c7
:1018f00000000000287a40203000000000000000b6
:10190000587a40203000000000000000887a402013
:1019100010000000000000005cfb402004000000fc
:10192000000000004600412002000000000000000e
:101930000dff4020010000000000000030fe4020ac
:10194000100000000000000020ef40200002000016
:101950000000000000ed4020200200000000000018
:10196000a07a402074010000000000001cfe40200e
:101970001400000001000000e8234300ec234300b2
:10198000f0234300f8234300fc234300d8fe40200b
:101990000800000000000000490041200100000094
:1019a00000000000e0d74020000800000000000018
:1019b000c8d740201800000001000000207c402013
:1019c000607e40202847430000000000607c4020eb
:1019d00000000000207c40205c02000000000000ad
:1019e00040e840206002000000000000a0ea402023
:1019f000600200000000000060fb40203800000092
:101a0000000000004c004120010000000000000028
:101a100058fc4020280000000000000008f640208c
:101a2000a0000000000000004a0041200200000069
:101a3000010000000100000040fe402010000000f6
:101a400000000000a8f64020a000000000000000f8
:101a500050fe4020100000000000000048f7402029
:101a6000a00000000000000060fe40201000000008
:101a700000000000e8f74020a00000000000000087
:101a800070fe4020100000000000000088f8402098
:101a9000a00000000000000080fe402010000000b8
:101aa0000000000028f94020a00000000000000015
:101ab00090fe4020100000000000000080fa40204e
:101ac00048000000000000007c7e40201c00000058
:101ad0000000000010ff4020040000000000000093
:101ae00014ff402004000000000000004d004120d1
:101af00001000000010000000100000018ff40206c
:101b00000400000001000000640000001cff4020f1
:101b100004000000010000006400000020ff4020dd
:101b20000400000001000000e80300004e00412016
:101b3000010000000000000024ff4020040000001d
:101b4000000000004f0041200100000000000000e4
:101b5000c8fa402040000000010000000001000021
:101b60006400000064000000e803000001010000c0
:101b70006400000064000000e803000002010000af
:101b80006400000020030000e803000003010000df
:101b900064000000f00a0000e8030000500041204b
:101ba0000100000000000000510041200100000081
:101bb0000000000052004120010000000000000071
:101bc00053004120010000000000000054004120ab
:101bd00001000000010000000100000028ff40207b
:101be00004000000000000002cff40200400000062
:101bf000010000006400000030ff402004000000ed
:101c000001000000e8030000550041200100000031
:101c10000000000034ff402004000000000000002d
:101c20005600412001000000000000005700412044
:101c300001000000010000000100000000fc402045
:101c40003000000001000000000100000000000062
:101c500064000000e8030000010100000000000033
:101c600064000000e80300000202000064000000bd
:101c700064000000e803000058004120010000005b
:101c80000000000059004120010000000000000099
:101c90005a00412001000000000000005b004120cc
:101ca00001000000000000005c0041200100000075
:101cb000010000000100000038ff40200400000087
:101cc000000000003cff4020040000000100000074
:101cd0006400000040ff40200400000001000000fc
:101ce000e80300005d00412001000000000000004a
:101cf00044ff402004000000000000005e0041207e
:101d0000010000000000000008fb4020400000002f
:101d1000010000000001000000000000640000005d
:101d2000e803000001010000000000006400000062
:101d3000e8030000020200006400000064000000ec
:101d4000e8030000030100006400000064000000dc
:101d5000e80300005f0041200100000000000000d7
:101d600060004120010000000000000061004120ef
:101d7000010000000000000062004120010000009e
:101d8000000000006300412001000000000000008e
:101d900048ff4020040000000000000064004120d3
:101da000010000000000000065004120010000006b
:101db000000000004cff4020040000000000000074
:101dc00050ff402004000000000000006600412099
:101dd0000100000000000000670041200100000039
:101de0000000000054ff402004000000000000003c
:101df000680041200100000000000000690041204f
:101e0000010000000000000058ff40200400000016
:101e1000000000005cff4020040000000000000003
:101e20006a00412001000000000000006b0041201a
:101e3000010000000000000060ff402004000000de
:101e4000000000006c0041200100000000000000c4
:101e50006d004120010000000000000064ff4020f0
:101e6000040000000000000068ff402004000000a3
:101e7000000000006e004120010000000000000092
:101e80006cff402004000000000000006f004120b3
:101e9000010000000000000070ff4020040000006e
:101ea0000000000070004120010000000000000060
:101eb000710041200100000000000000720041207c
:101ec000010000000000000073004120010000003c
:101ed0000000000074ff402004000000000000002b
:101ee00078ff402004000000010000000500000011
:101ef0004800412001000000000000007400412063
:101f00000100000001000000320000007cff4020c2
:101f1000040000000100000020030000a889402008
:101f2000102700000000000040f54020c80000001d
:101f30000000000080ff40200400000000000000be
:101f4000e0df40202005000001000000000001004b
:101f500039f44100f5a04200ed45430013000110a3
:101f6000e92342008d2e4300df45430001000300ba
:101f7000555841008d2e4300df45430014000310e7
:101f8000f1f141008d2e4300df45430002000400c3
:101f90004d2e420001814000850e430015000410c3
:101fa000d12642008d2e4300df4543000700090083
:101fb000a55a4200619c40006516430019000910b3
:101fc000c12742008d2e4300df45430009000b006e
:101fd000d9db410085e34100692543001b000b105c
:101fe000a13542008d2e4300df4543000a000c005e
:101ff000a9cc420061964200f52f43001c000c1052
:10200000915142008d2e4300df4543000b000d002f
:1020100031d541008d2e4300df4543001d000d10da
:10202000e12442008d2e4300df45430022001100d1
:102030008dd64100a16b42004925430024001410b5
:10204000194942008d2e4300df4543002300120052
:10205000111c420085a74200db2f4300250015100c
:10206000655242008d2e4300df45430042002100af
:102070009dc541006d7a4100c51f430043002a10f1
:102080003d4842008d2e4300df45430045003000af
:1020900089b94000b53f4100bdcd42004600301037
:1020a000f52541008d2e4300df45430047003100f8
:1020b00049a7410025304200790243004800311011
:1020c000091142008d2e4300df45430049003200d4
:1020d0000d1242007ba24200293043004a00321018
:1020e000395342008d2e4300df4543004b0033003f
:1020f000119b4100fda24200892543004c00331092
:102100000d5442008d2e4300df4543004d00340046
:102110000d1d42007fa34200433043004e003410a7
:10212000e15442008d2e4300df4543004f0035004f
:102130009904420001a442005d3043005000351074
:10214000b55542008d2e4300df4543005100360057
:10215000518c41009d3e420029064300520036103a
:10216000e10a42008d2e4300df45430034001b008e
:1021700041e24100f9a84100df454300360022104a
:10218000b12842008d2e4300df4543003a001d0078
:10219000a905420025ec41000f3043003b0026100a
:1021a000315842008d2e4300df4543003c001e00a5
:1021b000c507420077a14200fb4543003c002710c1
:1021c000b95042008d2e4300df45430031003700f7
:1021d0000dea4000dd2d410051db42003200371096
:1021e000855341008d2e4300df45430053003800e6
:1021f0006d064100cd494100a1db4200540038107a
:10220000d96141008d2e4300df45430033001a00a1
:10221000b9064200dd2d4100df45430040002000ab
:10222000091e4200f9a14200413d4300410029102e
:10223000e14f42008d2e4300df4543003e00390050
:102240005112410009bb4100d50c43003f00391039
:102250002d6441008d2e4300df45430055004000b2
:102260003115410031b64100cb0943005600401002
:10227000816641008d2e4300df45430063004a0024
:1022800009184100d1b74100fd09430064004a101c
:10229000d56841008d2e4300df45430035004100e5
:1022a000359040006d6f4000e9f942003700411061
:1022b00091bd40008d2e4300df4543005700420092
:1022c00071cf400071f0400041f0420058004210d0
:1022d0006d3041008d2e4300df454300590043001f
:1022e000cdd2400095f3400081f042005a004310e7
:1022f000f93241008d2e4300df4543005b0044006e
:1023000029d64000b9f64000c1f042005c004410fc
:10231000853541008d2e4300df4543005d004500bb
:1023200085d94000ddf9400001f142005e00451012
:10233000113841008d2e4300df4543005f00460009
:10234000e1dc400001fd400041f142006000461028
:102350009d3a41008d2e4300df4543006100470058
:102360003de040002500410081f14200620047103d
:10237000293d41008d2e4300df4543000c000e0037
:10238000392f4200dda3410011e142001200191073
:10239000893642008d2e4300df4543003900251069
:1023a000051042008d2e4300df4543000e00100053
:1023b000ad5e42008d2e4300df4543002b0015002b
:1023c0003de642008d2e4300df4543001e000e1007
:1023d0000dc540008d2e4300df4543001f000f1048
:1023e00041ed40008d2e4300df45430010001710e3
:1023f000895642008d2e4300df454300110018101e
:102400005d5742008d2e4300df4543002a001c101b
:1024100089c841008d2e4300df454300650052000e
:10242000e90b420083a4420077304300660052105b
:10243000a12942008d2e4300df45430067003f1075
:1024400069d241008d2e4300df4543002f001f104d
:10245000e5d741008d2e4300df45430029001400dd
:10246000e54342008d2e4300df45430080fc4020c1
:102470002800000001000000300000000000000003
:10248000000000000000000000000000000000004c
:10249000000000000000000000000000000000003c
:1024a00000ff402005000000010000003000000097
:1024b00000000000a8fc40202800000001000000ef
:1024c00030000000000000000000000000000000dc
:1024d00000000000000000000000000000000000fc
:1024e000000000000000000008ff40200500000080
:1024f00001000000300000000000000084ff4020c8
:102500000400000000000000440041200200000020
:1025100000000000e0fe4020080000000000000075
:10252000b8b04020102700000000000075004120d6
:10253000010000000000000058fd40201c000000c9
:102540000000000074fd40201c000000000000009e
:1025500018fd40202100000000000000760041200e
:102560000100000000000000770041200100000091
:102570000000000078004120010000000000000081
:1025800079004120010000000000000088ff402089
:1025900004000000000000008cff40200400000048
:1025a000000000007a00412001000000000000004f
:1025b0007b00412001000000000000007c00412061
:1025c000010000000100000001000000e8fe4020c2
:1025d0000800000000000000bcfe40200c000000cd
:1025e0000000000090ff40200400000000000000f8
:1025f00098fb40203800000000000000f0fe402062
:10260000080000000000000094ff402004000000cb
:102610000000000098ff40200400000000000000bf
:102620009cff402004000000000000007d004120cd
:1026300001000000000000007e00412001000000b9
:1026400000000000a0ff4020040000000100000086
:1026500008000000a4ff402004000000000000006b
:10266000a8ff402004000000000000007f0041207f
:102670000100000000000000800041200100000077
:102680000000000081004120010000000000000067
:10269000820041200100000000000000d0fc40202a
:1026a0002400000000000000f4fc40202400000092
:1026b0000000000090fd40201c0000000000000011
:1026c000acfd40201c000000000000008300412001
:1026d0000100000000000000840041200100000013
:1026e00000000000acff40200400000000000000db
:1026f000b0ff4020040000000000000085004120e1
:1027000001000000010000000200000086004120de
:102710000100000000000000c8fd40201c00000077
:1027200000000000e4fd40201c000000000000004c
:1027300000fe40201c00000000000000b4ff40200c
:10274000040000000000000087004120010000009c
:1027500000000000b8ff402004000000000000005e
:102760008800412001000000000000008900412095
:1027700001000000000000008a004120010000006c
:10278000000000008b00412001000000000000005c
:102790008c00412001000000010000000b0000003f
:1027a0008d00412001000000010000000800000031
:1027b0008e00412001000000000000008f00412039
:1027c0000100000001000000050000009000412011
:1027d0000100000001000000ff0000009100412006
:1027e00001000000000000009200412001000000f4
:1027f00000000000bcff40200400000000000000ba
:10280000c0ff4020040000000000000093004120b1
:102810000100000000000000c4ff40200400000090
:1028200000000000940041200100000001000000b1
:1028300001000000950041200100000000000000a0
:10284000960041200100000000000000c8ff402069
:10285000040000000000000097004120010000007b
:102860000100000003000000ccff40200400000035
:1028700000000000d0ff4020040000000000000025
:102880009800412001000000000000003ef54020bb
:1028900002000000000000003afd4020020000009d
:1028a000000000009900412001000000000000002d
:1028b0009a00412001000000000000009b00412020
:1028c00001000000000000009c0041200100000009
:1028d000000000009d0041200100000001000000f8
:1028e0000300000006ff402002000000000000007e
:1028f000d4ff40200400000000000000d8ff40206a
:1029000004000000000000009e00412001000000c3
:10291000000000009f0041200100000000000000b6
:10292000a00041200100000000000000a1004120a3
:102930000100000000000000a20041200100000092
:1029400000000000dcff4020040000000000000048
:10295000e0ff40200400000000000000e4ff4020f1
:102960000400000000000000a3004120010000005e
:1029700000000000e8ff402004000000000000000c
:10298000a40041200100000000000000a50041203b
:102990000100000000000000a6004120010000002e
:1029a00000000000ecff40200400000000000000d8
:1029b000f0ff40200400000000000000987e40204e
:1029c0002104000000000000f4ff4020040000008b
:1029d00000000000a70041200100000000000000ee
:1029e000f8ff40200400000000000000fcff402031
:1029f0000400000000000000a800412001000000c9
:102a00000000000000004120040000000000000061
:102a1000a900412001000000000000000400412046
:102a20000400000000000000080041200400000035
:102a30000000000044f44020fa0000000000000004
:102a4000c0824020a004000000000000f8fe4020ea
:102a50000800000000000000aa0041200100000062
:102a6000000000000c0041200400000000000000f5
:102a700028fa40205800000000000000100041200b
:102a800004000000000000001400412004000000c9
:102a900000000000ab004120010000000000000029
:102aa000180041200400000000000000ac0041209c
:102ab0000100000000000000ad0041200100000006
:102ac0000100000001000000ae00412001000000f4
:102ad000000000001c004120040000000000000075
:102ae0006087402016000000000000002000412008
:102af0000400000000000000788740202802000049
:102b000000000000af0041200100000000000000b4
:102b1000b00041200100000000000000240041201e
:102b20000400000000000000280041200400000014
:102b3000000000000eff4020020000000000000026
:102b40002c0041200400000000000000a0fe4020f6
:102b5000100000000100000000001111b1eb420064
:102b600001002110fdfb4100a08940200100000070
:102b700000000000b1004120010000000000000042
:102b8000b2004120010000000000000030004120a0
:102b90000400000000000000b3004120010000001c
:102ba000010000000100000034004120040000008a
:102bb00001000000c8f94020c8f940206000000072
:102bc0000100000000000000c8294300e82943007c
:102bd000a8294300000000000000000000000000e1
:102be00000000000000000000000000000000000e5
:102bf00000000000000000000000000000000000d5
:102c000000000000000000000000000000000000c4
:102c100000000000000000000000000000000000b4
:102c200000000000d8f240206c010000010000000c
:102c30004300000000000000000000000000000051
:102c40000000000000000000000000000000000084
:102c50004300000000000000000000000000000031
:102c60000000000000000000000000000000000064
:102c70004300000000000000000000000000000011
:102c80000000000000000000000000000000000044
:102c900043000000000000000000000000000000f1
:102ca0000000000000000000000000000000000024
:102cb00043000000000000000000000000000000d1
:102cc0000000000000000000000000000000000004
:102cd00043000000000000000000000000000000b1
:102ce00000000000000000000000000000000000e4
:102cf0004300000000000000000000000000000091
:102d000000000000000000000000000000000000c3
:102d1000df3043005121430000000000181542003d
:102d20002d4843002c4843002c4843002c484300c6
:102d30002c4843002c4843002c4843002c484300b7
:102d40002c4843002c484300ffffffffffffffff1d
:102d5000ffffffffffff000001004153434949000f
:102d60000000000000000000000000000000000063
:102d700000000000000000000000415343494900ea
:102d80000000000000000000000000000000000043
:102d9000000000000000000000000000380041209a
:102da00004000000000000003c004120040000007e
:102db00000000000a4894020040000000000000082
:102dc000400041200400000000000000000000005e
:102dd000000000002222222222222222222222225b
:020000040000fa
:020000040040ba
:102de00025580000545241434b204348414e47452b
:102df000522048563a342e302046563a342e302e41
:102e0000330000bf257300000d0a64617461436fd5
:102e1000756e742d3e0000bf0d0a446174612d3e35
:102e2000000000bf0d0a456e640000bf0a434d4418
:102e30002056616c75653a20000000bf0a45787421
:102e40007261637420446174610000bf000000bfc0
:102e500053544152545f43484152206e6f74206670
:102e60006f756e64000000bf44454c494d495445a0
:102e70005231206e6f7420666f756e64000000bf63
:102e80000a4465766963652049442d2d3e0000bfe4
:102e900044454c494d4954455232206e6f7420666a
:102ea0006f756e64000000bf0a436f6d6d616e64e4
:102eb0002d2d3e0053544f505f43484152206e6fba
:102ec0007420666f756e64000a56616c7565732dab
:102ed0002d3e00000d0a746f74616c4e6f4f665387
:102ee00074722d2d3e0000bf0d0a56616c75655f32
:102ef000000000bf2d2d3e000d0a4352432d2d3ef4
:102f0000000000bf0d0a4465766963652049442dc1
:102f10002d3e00000a2057696c64204361726420d2
:102f20004465766963652049440000bf0a20496e04
:102f300076616c6964204465766963652049440064
:102f40000a456570726f6d204572726f720000bf26
:102f50000a456570726f6d2053746f72656400006e
:102f600025303258000000bf25303458000000bf23
:102f70000d0a496e2050726f636573735365744d0b
:102f80006f64652d3e0000bf0a737461746520563e
:102f9000616c756573203a002c0000bf0a205365f0
:102fa00074204d6f64652053657456616c75652f90
:102fb00073204f7574206f662052616e6765000044
:102fc0000a20536574204d6f646520536574566103
:102fd0006c7565203a2000000d0a302d3e41555495
:102fe0004f2c20312d3e4d414e55414c000000bf2d
:102ff0000a20536574204d6f6465205365745661d3
:103000006c75652f7320496e76616c69640000bf32
:10301000256400000d0a496e2050726f636573735a
:103020005365744d616e75616c4469726563746952
:103030006f6e2d3e000000bf0a204d616e75616c01
:10304000204d6f64652053657456616c75652f73f0
:10305000204f7574206f662052616e67650000bf57
:103060000a204d616e75616c204d6f64652053655b
:103070007456616c7565203a200000bf0d0a302d32
:103080003e504f5349544956452c20312d3e4e4514
:103090004741544956452c20322d3e4359434c4517
:1030a0002c20332d3e204e4f524d414c5f53544ff8
:1030b000502c20342d3e20454d5f53544f5000007e
:1030c0000a204d616e75616c204d6f6465205365fb
:1030d0007456616c75652f7320496e76616c6964f6
:1030e000000000bf0d0a496e2050726f6365737354
:1030f0005365744d6f746f7250574d4d616e7561ad
:103100006c2d3e000a50776d204d616e75616c200c
:103110004d6f64652053657456616c7565733a2014
:1031200025642c2025642c2025642c2025642c204b
:1031300025642c2025642c20256400000a50574d5e
:103140002053657420526563656976656420566115
:103150006c756573203a00000a2050776d20536526
:103160007456616c75652f73204f7574206f6620df
:1031700052616e67650000bf0a2050776d2053656d
:103180007456616c75652f7320496e76616c696445
:10319000000000bf25642c25642c25642c25642c9c
:1031a000256400000d0a496e2050726f63657373c9
:1031b0005365744d6f746f7250574d4175746f2d18
:1031c0003e0000bf0a50776d204175746f204d6f2f
:1031d00064652053657456616c7565733a20256487
:1031e0002c2025642c2025642c2025642c2025648b
:1031f0002c2025642c202564000000bf0d0a496e98
:103200002050726f636573735365744175746f53a7
:1032100063686564756c6554696d652d3e0000bf1b
:103220000a4175746f207363686564756c6520531b
:1032300065742052656365697665642056616c75b6
:103240006573203a000000bf0d0a486f75722d2d7e
:103250003e0000bf0d0a4d696e7574652d2d3e0050
:103260000a204175746f2074696d6520536574562a
:10327000616c75652f732053657400000a204175d9
:10328000746f2074696d652053657456616c756543
:103290002f73204f7574206f662052616e67650032
:1032a0000a204175746f2074696d652053657456ea
:1032b000616c75652f7320496e76616c69640000de
:1032c00025303264253032642c2564000d0a496ea5
:1032d0002050726f636573735365744564676553fb
:1032e000656e736f7253746174652d3e000000bf8c
:1032f0000d0a456467652073656e736f7220737481
:103300006174652073657420617320000d0a496e35
:103310002050726f63657373536574537461746581
:103320002d3e00000a204d6f646520536574566180
:103330006c75652f73204f7574206f662052616e17
:10334000676500000a204d6f6465205365745661ff
:103350006c7565000a204d6f646520536574566175
:103360006c75652f7320496e76616c69640000bfcf
:103370000d0a496e2050726f636573735365745202
:10338000544356616c75652d3e0000bf0a205254af
:10339000432053657456616c75652f73204f7574a7
:1033a000206f662052616e67650000bf0a2052548c
:1033b00043202053657456616c75652f7320496ee8
:1033c00076616c69640000bf25642d25642d256439
:1033d0002025643a25643a25640000bf0d0a496e31
:1033e0002050726f636573735365744465766963c7
:1033f00065496e666f2d3e000a44657669636520f7
:10340000496e666f20536574205265636569766501
:10341000642056616c756573203a00000a2044658b
:103420007669636520496e666f2053657456616cda
:1034300075652f7320536574000000bf0a20446532
:103440007669636520696e666f2053657456616c9a
:1034500075652f7320496e76616c6964000000bf4a
:1034600025732c25732c25732c25730046563a346e
:103470002e302e33000000bf0d0a496e2050726faf
:1034800063657373436c6561724572726f72436feb
:103490006465732d3e0000bf0a436c656172204570
:1034a00072726f7220636f6465205265636569761e
:1034b00065642056616c756573203a000a20436c80
:1034c000656172204572726f7220636f646520536c
:1034d000657456616c75652f73205365740000bf69
:1034e0000a20436c656172204572726f7220636faf
:1034f00064652053657456616c75652f7320496e41
:1035000076616c69640000bf0d0a496e2050726fcd
:10351000636573735365744c6f77426174536f4383
:103520002d3e00000a4c6f772042617474657279f9
:103530002053657420526563656976656420566121
:103540006c756573203a00000a204c6f7720426149
:1035500074206c696d69742053657456616c75656f
:103560002f73204f7574206f662052616e6765005f
:103570000a204c6f772042617420536f43205365bb
:103580007456616c75652f7320536574000000bf1d
:103590000a204c6f772042617420536f432053659b
:1035a0007456616c75652f7320496e76616c696421
:1035b000000000bf0d0a496e2050726f636573737f
:1035c000536574486561727462656174436f6e66b9
:1035d00069672d3e000000bf0a486561727462652c
:1035e000617420436f6e66696720506172616d651a
:1035f00074657273205265636569766564205661ef
:103600006c756573203a00000a48656172746265e2
:10361000617420436f6e66696720506172616d65e9
:10362000746572732053657456616c75652f733ab7
:10363000204f7574206f662052616e67650000bf71
:103640000a48656172746265617420436f6e6669d1
:103650006720506172616d65746572732053657483
:10366000000000bf0a486561722042656174205005
:103670006172616d65746572732053657456616c17
:103680007565733a200000bf2c2000000a48656170
:1036900072746265617420436f6e66696720506161
:1036a00072616d65746572732053657456616c75d3
:1036b000652f73203a20496e76616c6964204461fd
:1036c0007461000025642c25640000bf0d0a496e5a
:1036d0002050726f6365737353657450756c7365b6
:1036e000436f756e742d3e000a50756c73652043f0
:1036f0006f756e74205365742052656365697665d5
:10370000642056616c756573203a00000a2050757c
:103710006c736520436f756e742053657456616ccd
:1037200075652f73204f7574206f662052616e6728
:10373000650000bf0a2050756c736520436f756e7d
:10374000742053657456616c75652f7320736574ae
:10375000203a2000202c00000a2050756c73652050
:10376000436f756e742053657456616c75652f7365
:1037700020496e76616c6964000000bf300000bfb4
:1037800025642c25642c25642c25642c256c752c33
:1037900025642c25642c25642c25642c25732c256c
:1037a000640000bf25642c25642c25642c25642c22
:1037b00025642c25732c25732c25732c25732c251f
:1037c0006c582c256c7500000d0a496e2050726fe4
:1037d00063657373536574576865656c4469612ddf
:1037e0003e0000bf0a576865656c2044696120533c
:1037f00065742052656365697665642056616c75f1
:1038000065203a000a20776865656c446961205339
:10381000657456616c75652f73204f7574206f66e3
:103820002052616e676500000a20776865656c4408
:1038300069612053657456616c75652f73207365db
:1038400074203a20000000bf0a20776865656c4448
:1038500069612053657456616c75652f7320496edc
:1038600076616c69640000bf25732c25642c256487
:10387000000000bf0d0a496e2050726f63657373bc
:103880005365744379636c654672657175656e63e3
:10389000792d3e000a4379636c65467265717565e2
:1038a0006e6379205365742052656365697665643b
:1038b0002056616c7565203a000000bf0a204379ec
:1038c000636c654672657175656e637920536574c6
:1038d00056616c75652f73204f7574206f6620528a
:1038e000616e6765000000bf0a204379636c65461e
:1038f00072657175656e63792053657456616c7578
:10390000652f7320736574203a2000000a204379e4
:10391000636c654672657175656e63792053657475
:1039200056616c75652f7320496e76616c69640011
:103930000d0a496e2050726f636573735365744c42
:103940006f67496e74657276616c2d3e000000bf32
:103950000a4c6f67496e74657276616c20536574aa
:103960002052656365697665642056616c756520d3
:103970003a0000bf0a204c6f67496e746572766129
:103980006c2053657456616c75652f73204f757488
:10399000206f662052616e67650000bf0a204c6f81
:1039a00067496e74657276616c2053657456616cfc
:1039b00075652f7320736574203a20000a204c6fc0
:1039c00067496e74657276616c2053657456616cdc
:1039d00075652f7320496e76616c6964000000bfc5
:1039e00025732c25732c25732c25732c25732c25de
:1039f000732c25732c25732c25732c25732c257380
:103a00002c2573000d0a496e2050726f6365737325
:103a1000536574436f6e74696e75652d3e0000bf0b
:103a20000a436f6e74696e75652053657420526524
:103a30006365697665642056616c756573203a002c
:103a40000a20436f6e74696e756520536574566104
:103a50006c75652f73204f7574206f662052616ef0
:103a6000676500000a20436f6e74696e75652053a8
:103a7000657456616c75652f73205365740000bfc3
:103a8000312c32000a20436f6e74696e75652053c5
:103a9000657456616c75652f7320496e76616c692b
:103aa000640000bf0d0a496e2050756c7365636138
:103ab0006c632d3e000000bf25642c25642c25641a
:103ac0002c25642c25642c25642c25642c2564006d
:103ad000256c580025302e32662c25302e32662c6f
:103ae00025302e32662c25302e32662c25642c256e
:103af000302e32662c25302e32662c25642c25641f
:103b00002c25642c25642c25640000bf0a526571a5
:103b100075657374204c6f672052656365697665bf
:103b2000642056616c756573203a00000a52657115
:103b300075657374204c6f67732056616c75652fc3
:103b400073203a20496e76616c6964204461746127
:103b5000000000bf0d0a496e2050726f63657373d9
:103b600052657365745a69676265654e572d3e00ec
:103b70000a5a6967626565204e77205265736574dd
:103b800020506172616d6574657273205265636562
:103b9000697665642056616c756573203a0000bfd4
:103ba0000a5a696762656520204e77205265736501
:103bb000742053657456616c75652f733a204f7588
:103bc00074206f662052616e676500000a5a69674b
:103bd00062656520204e77205265736574205365b9
:103be0007456616c75652f73203a20496e76616c4e
:103bf00069642044617461000d0a496e2050726f3f
:103c000063657373536574547261636b496e666f59
:103c10002d3e00000a547261636b20496e666f206e
:103c200052656365697665642056616c75657320bd
:103c30003a0000bf0a5374617274496e646578205b
:103c40003d2025642c20456e64496e646578203dd6
:103c5000202564000d0a4e6f206f66206461746138
:103c60002061732070657220496e6465782d3e0076
:103c70000d0a41637475616c206e6f206f6620645d
:103c80006174612d3e0000bf0a20547261636b2095
:103c900044697374616e63652053657456616c7515
:103ca000652f7320736574203a2000000a20547237
:103cb00061636b2044697374616e6365205365743e
:103cc00056616c75652f73204f7574206f66205296
:103cd000616e6765000000bf0a547261636b204922
:103ce0006e666f2056616c75652f733a204f757440
:103cf000206f662052616e67650000bf0a547261d2
:103d0000636b20496e666f2056616c75652f73205a
:103d10003a20496e76616c696420446174610000e8
:103d20000d0a496e2050726f636573734765745452
:103d30007261636b496e666f2d3e00000a526571b9
:103d40007565737420547261636b20496e666f20d1
:103d500056616c75652f733a204f7574206f66201d
:103d600052616e67650000bf0a52657175657374b4
:103d700020547261636b20496e666f2056616c75ca
:103d8000652f73203a20496e76616c696420446126
:103d90007461000025642c000a5374617274496eca
:103da000646578203d20256c752c20456e64496e35
:103db000646578203d20256c750000bf0d0a436cba
:103dc000656172547261636b496e666f000000bf7b
:103dd0000d0a496e2050726f636573735365745298
:103de000666964446174612d3e0000bf0a52464911
:103df000442044617461205265636569766564207e
:103e000056616c756573203a000000bf0a20524667
:103e1000494420446174612053657456616c756532
:103e20002f7320736574203a200000bf0a20524689
:103e3000494420446174612053657456616c756512
:103e40002f73204f7574206f662052616e67650076
:103e50000a5246494420446174612056616c75657c
:103e60002f733a204f7574206f662052616e67651c
:103e7000000000bf0a524649442044617461205644
:103e8000616c75652f73203a20496e76616c6964a8
:103e900020446174610000bf0d0a496e2050726faa
:103ea0006365737347657452666964446174612d18
:103eb0003e0000bf0a526571756573742052464911
:103ec0004420446174612056616c75652f733a20fb
:103ed0004f7574206f662052616e6765000000bfe9
:103ee0000a526571756573742052464944204461d5
:103ef00074612056616c75652f73203a20496e7687
:103f0000616c696420446174610000bf0d0a496ef0
:103f10002050726f6365737353657452666964539e
:103f2000746174652d3e00000a205365742052466a
:103f30004944207374617465206d6f646520536516
:103f40007456616c7565203a200000bf0d0a302d53
:103f50003e524649442044495341424c452c20316d
:103f60002d3e5246494420454e41424c450000bf3b
:103f70000a20536574205246494420737461746565
:103f80002053657456616c75652f7320496e766198
:103f90006c6964000d0a496e2050726f636573731b
:103fa0002053657420436c65616e6572204d4143fa
:103fb0002d3e00000a436c65616e6572204d4143e1
:103fc0002052656365697665642056616c7565731a
:103fd000203a00000a20436c65616e6572204d41f5
:103fe000432053657456616c75652f73204f75744b
:103ff000206f662052616e67650000bf0a20436c27
:1040000065616e6572204d41432053657456616c45
:1040100075652f7320736574203a20000a20436c65
:1040200065616e6572204d41432053657456616c25
:1040300075652f7320496e76616c6964000000bf5e
:104040002558255825582558000000bf0d0a496eef
:104050002050726f63657373536574456e636f644c
:10406000657250756c7365546f6c6572616e6365d3
:104070002d3e00000a456e632050756c7365205418
:104080006f6c6572616e6365205365742052656361
:1040900065697665642056616c756573203a000029
:1040a0000a20456e632050756c736520546f6c65f3
:1040b00072616e63652053657456616c75652f730c
:1040c000204f7574206f662052616e67650000bfd7
:1040d0000a20456e632050756c736520546f6c65c3
:1040e00072616e63652053657456616c75652f73dc
:1040f00020536574000000bf0a20456e6320507590
:104100006c736520546f6c6572616e6365205365d6
:104110007456616c75652f7320496e76616c6964a5
:10412000000000bf256c75000d0a496e2050726fab
:10413000636573735365745463436f6e74726f6c0d
:104140004d6f64652d3e00000a2053657420544372
:1041500020636f6e74726f6c206d6f6465205365a1
:104160007456616c7565203a200000bf0d0a302d31
:104170003e454e434f444552204d4f44452c20313f
:104180002d3e50524f58494d495459204d4f4445aa
:10419000000000bf0a2053657420544320636f6ef3
:1041a00074726f6c206d6f64652053657456616c1a
:1041b00075652f7320496e76616c6964000000bfdd
:1041c0000d0a496e2050726f6365737353657452a4
:1041d0006f774c656e677468446174612d3e0000b2
:1041e0000a526f77204c656e67746820496e666f5f
:1041f0002052656365697665642056616c756573e8
:10420000203a00000a20526f77204c656e67746870
:104210002053657456616c75652f73207365742027
:104220003a200000202000000a20526f77204c65c1
:104230006e6774682053657456616c75652f7320c2
:104240004f7574206f662052616e6765000000bf75
:104250000a526f77204c656e6774682056616c75e2
:10426000652f733a204f7574206f662052616e6718
:10427000650000bf0a526f77204c656e6774682036
:1042800056616c75652f73203a20496e76616c69b2
:1042900064204461746100000d0a496e2050726f01
:1042a00063657373476574526f774c656e677468a6
:1042b000446174612d3e00000a5265717565737426
:1042c00020526f77204c656e6774682056616c755c
:1042d0006573203a000000bf0a52657175657374fa
:1042e00020526f77204c656e6774682056616c753c
:1042f000652f733a204f7574206f662052616e6788
:10430000650000bf0a5265717565737420526f773e
:10431000204c656e6774682056616c75652f73203c
:104320003a20496e76616c696420446174610000d2
:0843300025642c256c750000ca
:020000040000fa
:020000040040ba
:1043380080b586b002af78600023fb607b6893f895
:10434800e032212b00f2078601a252f823f000bfc9
:10435800e14340002b4440005b4440007b44400064
:10436800bd444000fb444000b745400005464000be
:10437800b74740001948400007494000414b4000fa
:104388009b4b4000e14b400075494000a949400063
:104398000b4a4000554a40009f4a4000e54a400009
:1043a800234c4000a94c4000154d40005d4d400095
:1043b800af4d40002d4e4000974e4000cd4e40007e
:1043c800214f4000494f4000494f4000e54640001a
:1043d800994740009b4840007b68d3f8b432be4af6
:1043e80093420ed07b689b689b68bb4898470346fe
:1043f800002b00f0b5857b68b74ac3f8b42200f0fb
:10440800afbd7b689b78012b05d17b68012283f8bf
:10441800e02200f0a5bd7b68032283f8e02200f0cb
:104428009fbd7b685a687b6803f53a731946104646
:1044380028f008fc0346002b05d17b68022283f88c
:10444800e02200f0bebd7b681e2283f8e02200f067
:10445800b8bd7b68d3f8e83218462cf08bfe0346cb
:10446800002b00f07f857b68032283f8e02200f0b0
:1044780079bd7b6803f2e323009300230022002127
:10448800786814f0c3fd7b6893f8e232032b40f0a0
:104498006b857b6803f53a731946022028f0d2fb36
:1044a8000346002b40f060857b68042283f8e022f5
:1044b80000f05abd7b68d3f8e83218462cf05afe53
:1044c8000346002b00f052857b6893f8f032002bee
:1044d80005d17b68052283f8e02200f047bd7b68a0
:1044e8001f2283f8e0227b681422a3f8fc2200f044
:1044f8003dbd7b6803f2e323009308234ff4d57294
:104508000821786814f082fd7b6893f8e232032b67
:1045180040f02e857b68062283f8e0227b6807221c
:1045280083f8e1227b68002283f8a5227b6803f5e3
:104538003b7319464ff4fa6028f084fb0346012bbd
:1045480005d17b681e2283f8e02200f03abd7b6823
:1045580093f8dd32002b19d17b689b681b6a07f141
:104568000c02114600209847fb68c3f30803b3f513
:10457800d57f05d17b68012283f8ac2200f0f8bc16
:104588007b681e2283f8e02200f0f2bc7b6893f877
:10459800dd32022b05d17b68002283f8ac2200f0c3
:1045a800e7bc7b681e2283f8e02200f0e1bc7b6850
:1045b800b3f8a2321b041a467b6803f2e323009384
:1045c80001233721786814f021fd7b6893f8e232e3
:1045d800032b40f0cf847b6893f8dd32002b07d1a2
:1045e8007b6893f8e1227b6883f8e02200f0c2bc84
:1045f8007b681e2283f8e02200f0bcbc7b6893f83d
:10460800ac329a077b6893f8a5321b0413431a4609
:104618007b6803f2e323009304232921786814f0cc
:10462800f5fc7b6893f8e232032b40f0a5847b68a5
:10463800d3f8ec3218462cf09dfd0346002b05d02c
:104648007b681e2283f8e02200f0bbbc7b6893f8ed
:10465800dd32002b39d17b689b681b6a07f10c029d
:10466800114600209847fb6803f47013002b05d10e
:104678007b681e2283f8e02200f07ebcfb68002bda
:1046880019dafb6803f08043002b04d07b68012211
:1046980083f8a62203e07b68002283f8a6227b68c1
:1046a800d3f8ec32184627f02afd7b68082283f8f5
:1046b800e02200f061bc7b683c2283f8a5227b687d
:1046c800062283f8e02200f057bc7b681e2283f89c
:1046d800e02200f051bc00bf801a06007b6803f29c
:1046e800e32300930423ad4a0121786814f08efc7b
:1046f8007b6893f8e232032b40f040847b6893f8a0
:10470800dd32002b3fd17b689b681b6a07f10c02e6
:10471800114600209847fb68002b12dafb6803f06b
:10472800c043b3f1804f0cbf01230023dbb21a460c
:104738007b6883f8a6227b68082283f8e02200f0d1
:104748001dbc7b68b3f8fc32002b17d07b68b3f82c
:10475800fc32013b9ab27b68a3f8fc227b6803f524
:104768003a731946322028f06dfa0346002b40f0c0
:1047780005847b68202283f8e022ffe37b681e2201
:1047880083f8e022fae37b681e2283f8e022f5e34f
:104798007b68d3f8e83218462cf0ecfc0346002b73
:1047a80000f0ee837b681f2283f8e022e8e37b6851
:1047b80003f2e3230093032300220221786814f014
:1047c80025fc7b6893f8e232032b40f0db837b689f
:1047d80093f8dd32002b16d17b689b681b6a7a68d8
:1047e80020321146042098477b6893f8f032002b5a
:1047f80004d17b68092283f8e022c3e37b68212285
:1048080083f8e022bee37b681e2283f8e022b9e346
:104818007b6803f2e32300930723002203217868cf
:1048280014f0f4fb7b6893f8e232032b40f0ac837e
:104838007b6893f8dd32002b26d17b689b681b6a66
:1048480007f10c02114600209847fb6803f4604307
:10485800002b04d07b681e2283f8e02294e3fb68d7
:104868001b0c9ab27b68a3f8a2227b68b3f8a23229
:10487800002b04d17b68092283f8e02284e37b685b
:104888000a2283f8e0227fe37b681e2283f8e02275
:104898007ae37b6803f2e323009301234ff40032a9
:1048a8000321786814f0b2fb7b6893f8e232032b9b
:1048b80040f06c837b6893f8dd32002b1ad17b685b
:1048c8009b681b6a07f10c02114600209847fb6899
:1048d80003f45903002b04d07b681e2283f8e022de
:1048e80054e37b680222a3f8a2227b680a2283f899
:1048f800e0224be37b681e2283f8e02246e37b68d4
:10490800b3f8a2321b041a467b6803f2e323009330
:1049180003230921786814f079fb7b6893f8e23265
:10492800032b40f035837b6893f8dd32002b18d1d8
:104938007b689b681b6a7a68303211460420984766
:104948007b6803f130007b6803f120017b6893f8f2
:10495800f0321a4615f0a0fa7b680e2283f8e0229e
:1049680016e37b681e2283f8e02211e37b689b68cc
:104978009b687a68d2f8b822104698470346002bfd
:1049880000f008837b68d3f8b8227b68c3f8b422a8
:104998007b680f2283f8e022fce200bf0000384069
:1049a8007b68b3f8a2321b041a467b6803f2e32340
:1049b800009302230721786814f028fb7b6893f89a
:1049c800e232032b40f0e8827b6893f8dd32002b5b
:1049d80012d17b6893f8f032002b08d17b6806224d
:1049e80083f8e0227b68102283f8e122d4e27b6816
:1049f8000b2283f8e022cfe27b681e2283f8e022b4
:104a0800cae27b689b681b6a07f10c02114600200a
:104a18009847fb6803f00073002b08d07b680122dd
:104a280083f8ae227b681d2283f8e022c9e2fb6886
:104a380003f40063002b04d07b68112283f8e02282
:104a4800bfe27b681e2283f8e022bae27b689b689b
:104a58009b6a082098477b68012283f8e3227b68d9
:104a6800012283f8e4227b68002283f8e5227b6830
:104a780040332021184627f0c9f97b689b685b6b97
:104a88007a6802f140000122082198477b681222c7
:104a980083f8e02295e27b6803f2e3230093012385
:104aa80000223321786814f0b1fa7b6893f8e23277
:104ab800032b40f073827b68002283f8e3227b6833
:104ac80093f8dd32002b04d17b68132283f8e022af
:104ad80064e27b681e2283f8e0225fe27b6893f839
:104ae800af32002b00f05c827b68b3f8b2321a4612
:104af80048f270231340002b04d07b681e2283f8f1
:104b0800e0224de27b6893f8413003f00403002b68
:104b18000dd07b6893f8f232012b08d17b6806220e
:104b280083f8e0227b68142283f8e12238e27b686c
:104b3800152283f8e02233e27b68012283f8e3221e
:104b48007b68012283f8e4227b68002283f8e5224f
:104b58007b689b685b6a002098477b689b689b6ab8
:104b68004ff4007098477b68a0334ff400711846e3
:104b780027f04cf97b689b685b6b7a6802f1a000b0
:104b880001224ff4007198477b680c2283f8e022d9
:104b980017e27b6803f2e323009301230022082134
:104ba800786814f033fa7b6893f8e232032b40f00c
:104bb800f9817b68002283f8e3227b6893f8dd3271
:104bc800002b04d17b680d2283f8e022eae17b68a0
:104bd8001e2283f8e022e5e17b6893f8af32002bd0
:104be80000f0e2817b6893f877311b061a467b68f0
:104bf80093f876311b0413437a6892f875211202f0
:104c080013437a6892f874211a437b68c3f8a82280
:104c18007b68142283f8e022c6e17b6893f8f032bf
:104c2800002b0ad17b6803f2e323009301230222bd
:104c38000621786814f0eaf90fe07b6893f8f232fd
:104c48001a02b04b13431a467b6803f2e32300931e
:104c580002230621786814f0d9f97b6893f8e232c8
:104c6800032b40f0a3817b6893f8dd32002b12d12f
:104c78007b689b68db6a7a6892f8f222104698474c
:104c88007b6893f8f2227b6883f8a1227b6815225f
:104c980083f8e0228ae17b681e2283f8e02285e11e
:104ca8007b6893f8f032002b14d17b6893f840307e
:104cb80003f00f03002b0dd07b6893f8f132012b22
:104cc80008d17b68002283f8a4227b68162283f827
:104cd800e0221ae07b6893f8f032012b10d17b6850
:104ce80093f8643103f00103002b09d07b6893f833
:104cf800f132012b04d17b68192283f8e02204e009
:104d08007b681b2283f8e0225be15ae17b689b68a1
:104d18009b6a402098477b68012283f8e3227b68de
:104d2800012283f8e4227b68002283f8e5227b686d
:104d380060334021184627f069f87b689b685b6bf5
:104d48007a6802f160000122402198477b681722a7
:104d580083f8e0227b6893f8a432da076a4b13439e
:104d68001a467b6803f2e32300930123062178683f
:104d780014f04cf97b6893f8e232032b40f0188169
:104d88007b68002283f8e3227b6893f8dd32002bee
:104d980004d17b68182283f8e02209e17b681e228f
:104da80083f8e02204e17b6893f8af32002b00f02f
:104db80001817b68b3f8b2321a4648f27023134077
:104dc800002b04d07b681e2283f8e022f2e07b6887
:104dd80093f8a432012b10d17b6893f8703003f05c
:104de8000f03012b04d17b681a2283f8e022e1e04b
:104df8007b681d2283f8e022dce07b6893f86d3045
:104e080003f00203002b08d07b68012283f8a42258
:104e18007b68162283f8e022cce07b681d2283f8a9
:104e2800e022c7e07b6803f2e32300930223374aba
:104e38000621786814f0eaf87b6893f8e232032bcd
:104e480040f0ba807b6893f8dd32002b1ad17b687a
:104e58009b689b682e4898470346002b0dd07b68bb
:104e68002b4ac3f8b4227b689b681b6b01209847c8
:104e78007b681b2283f8e0229ee07b681e2283f871
:104e8800e02299e07b681e2283f8e02294e07b68a8
:104e98009b689b681f4898470346002b0dd07b688a
:104ea8001c4ac3f8b4227b689b681b6b0120984797
:104eb8007b681b2283f8e02283e07b681e2283f84c
:104ec800e0227ee07b6803f2e323009301234ff4a2
:104ed80000721021786814f099f87b6893f8e23230
:104ee800032b6bd17b6893f8dd32002b04d17b68f0
:104ef8001c2283f8e02261e07b681e2283f8e0220e
:104f08005ce000bf0100b70301ffff000101b90326
:104f18000075190380f0fa027b6803f2e32300931b
:104f2800002300220721786814f070f87b6893f852
:104f3800e232032b44d17b681d2283f8e0223fe054
:104f48007b68d3f8ec32184627f0d9f87b68002242
:104f580083f8e02235e07b68002283f8e02230e025
:104f680000bf2ee000bf2ce000bf2ae000bf28e011
:104f780000bf26e000bf24e000bf22e000bf20e021
:104f880000bf1ee000bf1ce000bf1ae000bf18e031
:104f980000bf16e000bf14e000bf12e000bf10e041
:104fa80000bf0ee000bf0ce000bf0ae000bf08e051
:104fb80000bf06e000bf04e000bf02e000bf00e061
:0c4fc80000bf00bf1037bd4680bd00bf19
:020000040000fa
:020000040040ba
:044fd4004449440008
:020000040000fa
:020000040040ba
:104fd80090b591b004af0346fb802ef045fd034623
:104fe80087f82e30002387f82f302ff057f8b86253
:104ff800bb6a1b681a46a64b1a602ef091f80a463f
:105008000146a44b1b684ff00004c91a62eb040266
:10501800a14b1b684ff00004a24208bf994202d37b
:105028009e4b01221a702ef07bf80a4601469c4bd3
:105038001b684ff00004c91a62eb0402944b1b680a
:105048004ff00004a24208bf994202d3012387f817
:105058002f3097f82e300d2b00f23b8501a252f825
:1050680023f000bfa5504000db5a4000e950400043
:1050780031514000ad534000215440008b56400050
:10508800c5574000155840003f584000c1584000df
:1050980083594000f7594000775a4000814b00225d
:1050a8001a7002202df0fcfa2ef03af803460c464e
:1050b8001a46784b1a60784b42f210721a60774b96
:1050c80000221a70784b00221a70784b01221a704d
:1050d8002ef0b6fe2ef090fe2ef0d6fe00f0f9bcb3
:1050e8002cf02efd0346002b04d003202df0d8fa17
:1050f80000f0dabc694b1b78002b00f0d5846c48b3
:105108002df0bcf815202cf03df908202df0c8fa38
:10511800624b00221a702ef003f803460c461a461a
:105128005c4b1a6000f0c0bc624b1b78012b19d194
:10513800fb88614a2a3352f83340fb885e4adb0019
:105148001344d3f854315d4a12685a49097807f173
:1051580008000291019200932346594a1e2126f025
:105168002dffcce0534b1b78022b19d1fb88524af8
:10517800433352f83340fb884f4adb001344d3f8db
:105188001c324e4a12684b49097807f1080002910f
:105198000192009323464a4a1e2126f00fffaee0f3
:1051a800444b1b78032b19d1fb88434a4d3352f8e3
:1051b8003340fb88404adb001344d3f86c323f4a43
:1051c80012683c49097807f108000291019200939e
:1051d80023463b4a1e2126f0f1fe90e0354b1b7812
:1051e800042b19d1fb88344a573352f83340fb88d3
:1051f800314adb001344d3f8bc32304a12682d49d7
:10520800097807f1080002910192009323462c4a7d
:105218001e2126f0d3fe72e0264b1b78052b19d1f0
:10522800fb88254a613352f83340fb88224adb0069
:105238001344d3f80c33214a12681e49097807f140
:10524800080002910192009323461d4a1e2126f070
:10525800b5fe54e0174b1b78062b33d1fb88164a52
:105268006b3352f83340fb88134adb001344d3f8fe
:105278005c33124a12680f49097807f10800029155
:105288000192009323460e4a1e2126f097fe36e02f
:10529800dcff4020e0ff4020e4ff4020a300412045
:1052a800e8ff4020a4004120a5004120a60041209d
:1052b800009a400024614020a07e40208c69402054
:1052c800449a4000ba4b1b78072b18d1fb88b94a7f
:1052d800753352f83340fb88b64adb001344d3f8e1
:1052e800ac33b54a1268b249097807f1080002914f
:1052f800019200932346b14a1e2126f05ffe97f8db
:105308002f30002b00f0d283aa4b03f5a473d3e906
:10531800000107f108031d221ef026fa0346002ba0
:1053280019d1a74b01221a7004202df0b9f92ef0db
:1053380063fda44b42f210721a60002387f82f30e5
:10534800a14b00221a702df0ebfe03460c461a46bc
:105358009e4b1a601be09e4b1b78022b11d99d486f
:105368002cf08cff14202cf00df8924b03f5a4734d
:10537800d3e90001984b03221ef0f6f9974b03225c
:105388001a70934b1b780133dab2914b1a700023d1
:1053980087f82f302df0c4fe03460c461a46904b72
:1053a8001a6083e3884b1b7883f00103dbb2002b80
:1053b8001ed02ef015fd0346002b00f079832ef049
:1053c8001bfd2ef03dfd05202df06af9834b0122cf
:1053d8001a702df0a5fe03460c461a467b4b1a6040
:1053e800784b40f6b8321a60774b00221a705fe3a8
:1053f8002df096fe03460c461a46744b1a60724b03
:1054080000221a7077482cf039ff14202bf0baffcd
:10541800724b03221a704be36b4b1b78002b00f086
:10542800498306202df03cf92df07afe03460c4600
:105438001a46664b1a605e4b1b78012b20d1fb88fd
:105448005c4a2a3352f83320fb885a49db000b4464
:10545800d3f85431134407ee903af8eee77ab7eef2
:10546800e77ab0ee046b27ee067b9fed4f6b27eed5
:10547800067bfceec77b17ee902a524b1a60fce0c5
:105488004b4b1b78022b20d1fb884a4a433352f8f6
:105498003320fb884749db000b44d3f81c32134404
:1054a80007ee903af8eee77ab7eee77ab0ee046bdb
:1054b80027ee067b9fed3c6b27ee067bfceec77b59
:1054c80017ee902a3f4b1a60d7e0394b1b78032b15
:1054d80020d1fb88374a4d3352f83320fb883549b1
:1054e800db000b44d3f86c32134407ee903af8ee25
:1054f800e77ab7eee77ab0ee046b27ee067b9fed0e
:105508002a6b27ee067bfceec77b17ee902a2d4b05
:105518001a60b2e0264b1b78042b20d1fb88254a61
:10552800573352f83320fb882249db000b44d3f869
:10553800bc32134407ee903af8eee77ab7eee77a12
:10554800b0ee046b27ee067b9fed176b27ee067b0c
:10555800fceec77b17ee902a1a4b1a608de0144bad
:105568001b78052b40d1fb88124a613352f833204f
:10557800fb881049db000b44d3f80c33134407eec7
:10558800903af8eee77ab7eee77ab0ee046b27eeda
:10559800067b9fed056b27ee067bfceec77b17eebf
:1055a800902a084b1a6068e000000000004cdd40bb
:1055b80024614020a07e40208c694020449a40000d
:1055c800b1824020e4ff4020a3004120e0ff4020ba
:1055d800a5004120549a4000949a4000a40041201c
:1055e800e8ff4020989a4000a14b1b78062b20d159
:1055f800fb88a04a6b3352f83320fb889d49db00b7
:105608000b44d3f85c33134407ee903af8eee77a8c
:10561800b7eee77ab0ee046b27ee067b9fed926b50
:1056280027ee067bfceec77b17ee902a924b1a609a
:1056380023e08f4b1b78072b1fd1fb888d4a7533ce
:1056480052f83320fb888b49db000b44d3f8ac338a
:10565800134407ee903af8eee77ab7eee77ab0ee41
:10566800046b27ee067b9fed806b27ee067bfcee36
:10567800c77b17ee902a804b1a60804b00221a7065
:1056880018e27e4b1b7883f00103dbb2002b78d045
:105698002ef0cafb034683f00103dbb2002b4dd08a
:1056a80097f82f30002b39d0724b03f5a473d3e948
:1056b8000001734b41f221021ef056f80346002bfd
:1056c80002d12ef0bdfb1fe02df02afd03460c464b
:1056d8001a466c4b1a606c4b1c682df021fd024673
:1056e8000b461346e21a644b1b681344674a13605f
:1056f80067482cf0c3fd0a202cf0d2ff2ef07cfb6b
:105708002ef09efb2ef0c0fb002387f82f302df0e3
:1057180007fd03460c461a465e4b1a602ef0a8fb9e
:105728000346002b00f0c8815b482cf0a7fd16202b
:105738002bf028fe594b03221a70bde12ef080fb96
:1057480007202cf0adff4d4b00221a702df0e8fc1d
:1057580003460c461a464c4b1a60474b42f21072ed
:105768001a602ef085fb0346002b00f0a5814a48fd
:105778002cf084fd16202bf005fe484b03221a70ee
:105788009ae147482cf07afd3c4b00221a702df024
:10579800c7fc03460c461a463b4b1a6010202bf0f8
:1057a800f1fd3e4b03221a70324b03f5a473d3e983
:1057b80000013c4b03221df0d7ff7de12f4b1b78e6
:1057c80083f00103dbb2002b0cd02cf0b9f90346af
:1057d800002b03d008202cf063ff7ae106202cf080
:1057e8005fff76e130482cf049fd15202bf0cafd0b
:1057f80008202cf055ff214b00221a702df090fc48
:1058080003460c461a46204b1a6062e1234b0222db
:105818001a70264b1b78002b00f05081154b03f5ae
:10582800a473d3e90001224b03221df09dff1f4bf7
:1058380000221a7042e1194b03221a701d482cf0fd
:105848001dfd1a4b1b78002b00f03a81094b03f51c
:10585800a473d3e90001134b03221df085ff134bfa
:1058680000221a702ce100bf00000000004cdd404f
:1058780024614020a07e4020e4ff4020a300412076
:10588800cc9a4000ecff4020e0ff4020f0ff402091
:10589800d09a4000e8ff4020249b4000a40041200b
:1058a800649b4000949a4000a89b4000a6004120b9
:1058b800e89b4000ec9b40002df032fc0a46014674
:1058c800874b1b684ff00004cb1a62eb0404ba6ada
:1058d800526811464feae172a24208bf994242d388
:1058e80097f82f30002b1cd02ef086fa2ef0a8fa4d
:1058f8002ef0cafa7b482cf0c1fc7b4b03f5a4734d
:10590800d3e90001794b41f221021df02dff00235c
:1059180087f82f302df004fc03460c461a46744bca
:105928001a602ef0a5fa034603f40063002b10d08a
:105938000b202cf0b5fe6f4b00221a70002387f85d
:105948002f302df0edfb03460c461a46684b1a60c3
:10595800b8e02ef045fa0346002b00f0b38006208d
:105968002cf09efeaee064482cf088fc14202bf04e
:1059780009fd624b03221a70a4e007f10803604a8c
:105988001a6097f82f30002b00f09e80564b03f5d5
:10599800a473d3e9000107f1080303221df0e4fe14
:1059a800584b01221a7004202cf07afe2ef024faab
:1059b8002ef02efa2ef044fa2ef066fa524b42f2ee
:1059c80010721a60002387f82f30504b00221a708b
:1059d8002df0a6fb03460c461a464d4b1a602df0d7
:1059e8009ffb03460c461a46414b1a606ce0474b36
:1059f8001b7883f00103dbb2002b1bd02ef0f0f9eb
:105a08000346002b62d02ef0f7f90d202cf048fe4b
:105a18003a4b01221a702df083fb03460c461a46b6
:105a28003b4b1a60384b40f6b8321a60374b0022ad
:105a38001a704be02df074fb03460c461a46344ba3
:105a48001a60324b00221a7032482cf017fc1420ce
:105a58002bf098fc244b03f5a473d3e900012e4bdb
