:020000040000fa
:020000040040ba
:10000000f0ff4520712741003d61410043614100ff
:100010004f614100556141005b61410000000000fb
:100020000000000000000000000000006b584000cd
:1000300049614100000000006b584000f940410058
:100040006b5840006b5840006b5840006b584000a4
:100050006b5840006b5840006b58400059224100db
:10006000c1224100000000006b5840006b58400066
:100070006b584000010d4100f90b41007d0c41001f
:100080006b5840006b584000699040006b5840002e
:100090006b5840006b5840006b5840006b58400054
:1000a0006b5840006b5840006b5840006b58400044
:1000b0006b5840006b5840006b584000f9464100b7
:1000c0006b5840006b5840006b5840006b58400024
:1000d0006b5840006b5840006b5840006b58400014
:1000e0006b584000556d40006b5840006b58400005
:1000f0006b5840006b5840006b5840006b584000f4
:100100006b5840006b5840006b5840006b584000e3
:100110006b584000000000000000000000000000dc
:100120006b5840006b5840006df840006b58400021
:100130006b5840006b5840006b5840006b584000b3
:100140006b5840006b5840006b5840006b584000a3
:100150006b5840006b5840006b5840006b58400093
:080160006b5840006b58400091
:020000040000fa
:020000040040ba
:10016800f8b500bff8bc08bc9e467047313c41005a
:10017800f8b500bff8bc08bc9e4670470d3c41006e
:020000040000fa
:020000040040ba
:08018800a65c0000010000006c
:020000040000fa
:020000040040ba
:1001900080b586b002af78600023fb607b6893f87f
:1001a000e032212b00f2078601a252f823f000bfb3
:1001b0003902400083024000b3024000d3024000f5
:1001c00015034000530340000f0440005d0440004d
:1001d0000f064000710640005f074000990940008b
:1001e000f3094000390a4000cd07400001084000f3
:1001f00063084000ad084000f70840003d0940009a
:100200007b0a4000010b40006d0b4000b50b400025
:10021000070c4000850c4000ef0c4000250d40000d
:10022000790d4000a10d4000a10d40003d054000aa
:10023000f1054000f30640007b68d3f8b432be4ab3
:1002400093420ed07b689b689b68bb4898470346e7
:10025000002b00f0b5857b68b74ac3f8b42200f0e4
:10026000afbd7b689b78012b05d17b68012283f8a9
:10027000e02200f0a5bd7b68032283f8e02200f0b5
:100280009fbd7b685a687b6803f53a731946104630
:1002900012f012fc0346002b05d17b68022283f882
:1002a000e02200f0bebd7b681e2283f8e02200f051
:1002b000b8bd7b68d3f8e832184614f01ffd03463a
:1002c000002b00f07f857b68032283f8e02200f09a
:1002d00079bd7b6803f2e323009300230022002111
:1002e000786808f03dfa7b6893f8e232032b40f01f
:1002f0006b857b6803f53a731946022012f0dcfb2c
:100300000346002b40f060857b68042283f8e022de
:1003100000f05abd7b68d3f8e832184614f0eefcc2
:100320000346002b00f052857b6893f8f032002bd7
:1003300005d17b68052283f8e02200f047bd7b6889
:100340001f2283f8e0227b681422a3f8fc2200f02d
:100350003dbd7b6803f2e323009308234ff4d5727d
:100360000821786808f0fcf97b6893f8e232032be7
:1003700040f02e857b68062283f8e0227b68072206
:1003800083f8e1227b68002283f8a5227b6803f5cd
:100390003b7319464ff4fa6012f08efb0346012bb3
:1003a00005d17b681e2283f8e02200f03abd7b680d
:1003b00093f8dd32002b19d17b689b681b6a07f12b
:1003c0000c02114600209847fb68c3f30803b3f5fd
:1003d000d57f05d17b68012283f8ac2200f0f8bc00
:1003e0007b681e2283f8e02200f0f2bc7b6893f861
:1003f000dd32022b05d17b68002283f8ac2200f0ad
:10040000e7bc7b681e2283f8e02200f0e1bc7b6839
:10041000b3f8a2321b041a467b6803f2e32300936d
:1004200001233721786808f09bf97b6893f8e23262
:10043000032b40f0cf847b6893f8dd32002b07d18b
:100440007b6893f8e1227b6883f8e02200f0c2bc6d
:100450007b681e2283f8e02200f0bcbc7b6893f826
:10046000ac329a077b6893f8a5321b0413431a46f3
:100470007b6803f2e323009304232921786808f0c2
:100480006ff97b6893f8e232032b40f0a5847b6818
:10049000d3f8ec32184614f031fc0346002b05d09b
:1004a0007b681e2283f8e02200f0bbbc7b6893f8d7
:1004b000dd32002b39d17b689b681b6a07f10c0287
:1004c000114600209847fb6803f47013002b05d1f8
:1004d0007b681e2283f8e02200f07ebcfb68002bc4
:1004e00019dafb6803f08043002b04d07b680122fb
:1004f00083f8a62203e07b68002283f8a6227b68ab
:10050000d3f8ec32184611f0a2fd7b68082283f87c
:10051000e02200f061bc7b683c2283f8a5227b6866
:10052000062283f8e02200f057bc7b681e2283f885
:10053000e02200f051bc00bf801a06007b6803f285
:10054000e32300930423ad4a0121786808f008f9f9
:100550007b6893f8e232032b40f040847b6893f889
:10056000dd32002b3fd17b689b681b6a07f10c02d0
:10057000114600209847fb68002b12dafb6803f055
:10058000c043b3f1804f0cbf01230023dbb21a46f6
:100590007b6883f8a6227b68082283f8e02200f0bb
:1005a0001dbc7b68b3f8fc32002b17d07b68b3f816
:1005b000fc32013b9ab27b68a3f8fc227b6803f50e
:1005c0003a731946322012f077fa0346002b40f0b6
:1005d00005847b68202283f8e022ffe37b681e22eb
:1005e00083f8e022fae37b681e2283f8e022f5e339
:1005f0007b68d3f8e832184614f080fb0346002be2
:1006000000f0ee837b681f2283f8e022e8e37b683a
:1006100003f2e3230093032300220221786808f009
:100620009ff87b6893f8e232032b40f0db837b6812
:1006300093f8dd32002b16d17b689b681b6a7a68c1
:1006400020321146042098477b6893f8f032002b43
:1006500004d17b68092283f8e022c3e37b6821226e
:1006600083f8e022bee37b681e2283f8e022b9e330
:100670007b6803f2e32300930723002203217868b9
:1006800008f06ef87b6893f8e232032b40f0ac83fd
:100690007b6893f8dd32002b26d17b689b681b6a50
:1006a00007f10c02114600209847fb6803f46043f1
:1006b000002b04d07b681e2283f8e02294e3fb68c1
:1006c0001b0c9ab27b68a3f8a2227b68b3f8a23213
:1006d000002b04d17b68092283f8e02284e37b6845
:1006e0000a2283f8e0227fe37b681e2283f8e0225f
:1006f0007ae37b6803f2e323009301234ff4003293
:100700000321786808f02cf87b6893f8e232032b19
:1007100040f06c837b6893f8dd32002b1ad17b6844
:100720009b681b6a07f10c02114600209847fb6882
:1007300003f45903002b04d07b681e2283f8e022c7
:1007400054e37b680222a3f8a2227b680a2283f882
:10075000e0224be37b681e2283f8e02246e37b68bd
:10076000b3f8a2321b041a467b6803f2e32300931a
:1007700003230921786807f0f3ff7b6893f8e232de
:10078000032b40f035837b6893f8dd32002b18d1c2
:100790007b689b681b6a7a68303211460420984750
:1007a0007b6803f130007b6803f120017b6893f8dc
:1007b000f0321a4608f096fa7b680e2283f8e0229f
:1007c00016e37b681e2283f8e02211e37b689b68b6
:1007d0009b687a68d2f8b822104698470346002be7
:1007e00000f008837b68d3f8b8227b68c3f8b42292
:1007f0007b680f2283f8e022fce200bf0000384053
:100800007b68b3f8a2321b041a467b6803f2e32329
:10081000009302230721786807f0a2ff7b6893f812
:10082000e232032b40f0e8827b6893f8dd32002b44
:1008300012d17b6893f8f032002b08d17b68062236
:1008400083f8e0227b68102283f8e122d4e27b68ff
:100850000b2283f8e022cfe27b681e2283f8e0229d
:10086000cae27b689b681b6a07f10c0211460020f4
:100870009847fb6803f00073002b08d07b680122c7
:1008800083f8ae227b681d2283f8e022c9e2fb6870
:1008900003f40063002b04d07b68112283f8e0226c
:1008a000bfe27b681e2283f8e022bae27b689b6885
:1008b0009b6a082098477b68012283f8e3227b68c3
:1008c000012283f8e4227b68002283f8e5227b681a
:1008d00040332021184611f019fb7b689b685b6b45
:1008e0007a6802f140000122082198477b681222b1
:1008f00083f8e02295e27b6803f2e323009301236f
:1009000000223321786807f02bff7b6893f8e232ee
:10091000032b40f073827b68002283f8e3227b681c
:1009200093f8dd32002b04d17b68132283f8e02298
:1009300064e27b681e2283f8e0225fe27b6893f822
:10094000af32002b00f05c827b68b3f8b2321a46fb
:1009500048f270231340002b04d07b681e2283f8da
:10096000e0224de27b6893f8413003f00403002b52
:100970000dd07b6893f8f232012b08d17b680622f8
:1009800083f8e0227b68142283f8e12238e27b6856
:10099000152283f8e02233e27b68012283f8e32208
:1009a0007b68012283f8e4227b68002283f8e52239
:1009b0007b689b685b6a002098477b689b689b6aa2
:1009c0004ff4007098477b68a0334ff400711846cd
:1009d00011f09cfa7b689b685b6b7a6802f1a0005f
:1009e00001224ff4007198477b680c2283f8e022c3
:1009f00017e27b6803f2e32300930123002208211e
:100a0000786807f0adfe7b6893f8e232032b40f084
:100a1000f9817b68002283f8e3227b6893f8dd325a
:100a2000002b04d17b680d2283f8e022eae17b6889
:100a30001e2283f8e022e5e17b6893f8af32002bb9
:100a400000f0e2817b6893f877311b061a467b68d9
:100a500093f876311b0413437a6892f875211202d9
:100a600013437a6892f874211a437b68c3f8a8226a
:100a70007b68142283f8e022c6e17b6893f8f032a9
:100a8000002b0ad17b6803f2e323009301230222a7
:100a90000621786807f064fe0fe07b6893f8f23275
:100aa0001a02b04b13431a467b6803f2e323009308
:100ab00002230621786807f053fe7b6893f8e23240
:100ac000032b40f0a3817b6893f8dd32002b12d119
:100ad0007b689b68db6a7a6892f8f2221046984736
:100ae0007b6893f8f2227b6883f8a1227b68152249
:100af00083f8e0228ae17b681e2283f8e02285e108
:100b00007b6893f8f032002b14d17b6893f8403067
:100b100003f00f03002b0dd07b6893f8f132012b0b
:100b200008d17b68002283f8a4227b68162283f810
:100b3000e0221ae07b6893f8f032012b10d17b6839
:100b400093f8643103f00103002b09d07b6893f81c
:100b5000f132012b04d17b68192283f8e02204e0f2
:100b60007b681b2283f8e0225be15ae17b689b688b
:100b70009b6a402098477b68012283f8e3227b68c8
:100b8000012283f8e4227b68002283f8e5227b6857
:100b900060334021184611f0b9f97b689b685b6ba4
:100ba0007a6802f160000122402198477b68172291
:100bb00083f8e0227b6893f8a432da076a4b134388
:100bc0001a467b6803f2e323009301230621786829
:100bd00007f0c6fd7b6893f8e232032b40f01881e2
:100be0007b68002283f8e3227b6893f8dd32002bd8
:100bf00004d17b68182283f8e02209e17b681e2279
:100c000083f8e02204e17b6893f8af32002b00f018
:100c100001817b68b3f8b2321a4648f27023134060
:100c2000002b04d07b681e2283f8e022f2e07b6870
:100c300093f8a432012b10d17b6893f8703003f045
:100c40000f03012b04d17b681a2283f8e022e1e034
:100c50007b681d2283f8e022dce07b6893f86d302e
:100c600003f00203002b08d07b68012283f8a42242
:100c70007b68162283f8e022cce07b681d2283f893
:100c8000e022c7e07b6803f2e32300930223374aa4
:100c90000621786807f064fd7b6893f8e232032b45
:100ca00040f0ba807b6893f8dd32002b1ad17b6864
:100cb0009b689b682e4898470346002b0dd07b68a5
:100cc0002b4ac3f8b4227b689b681b6b01209847b2
:100cd0007b681b2283f8e0229ee07b681e2283f85b
:100ce000e02299e07b681e2283f8e02294e07b6892
:100cf0009b689b681f4898470346002b0dd07b6874
:100d00001c4ac3f8b4227b689b681b6b0120984780
:100d10007b681b2283f8e02283e07b681e2283f835
:100d2000e0227ee07b6803f2e323009301234ff48b
:100d300000721021786807f013fd7b6893f8e232a7
:100d4000032b6bd17b6893f8dd32002b04d17b68d9
:100d50001c2283f8e02261e07b681e2283f8e022f7
:100d60005ce000bf0100b70301ffff000101b90310
:100d70000075190380f0fa027b6803f2e323009305
:100d8000002300220721786807f0eafc7b6893f8cb
:100d9000e232032b44d17b681d2283f8e0223fe03e
:100da0007b68d3f8ec32184611f051f97b680022c9
:100db00083f8e02235e07b68002283f8e02230e00f
:100dc00000bf2ee000bf2ce000bf2ae000bf28e0fb
:100dd00000bf26e000bf24e000bf22e000bf20e00b
:100de00000bf1ee000bf1ce000bf1ae000bf18e01b
:100df00000bf16e000bf14e000bf12e000bf10e02b
:100e000000bf0ee000bf0ce000bf0ae000bf08e03a
:100e100000bf06e000bf04e000bf02e000bf00e04a
:0c0e200000bf00bf1037bd4680bd00bf02
:020000040000fa
:020000040040ba
:040e2c00205f410002
:020000040000fa
:020000040040ba
:100e30002de9f04f57ec106b95b0cde90067466a8d
:100e4000079105460b9210931e9c3eb9102015f099
:100e5000edf86862466086600660c6606b6a196875
:100e600051b15a684a60012393408b60284613f0c1
:100e700051fe6b6a00221a60019b002bbfbf012349
:100e80002360019b23f00043b2bf01930023236042
:100e9000019c734ba34318d1109a42f20f73136055
:100ea000009b23b9c4f31304002c00f018851f9b8a
:100eb0003bb96c4b1de06c4b049308331f9a1360d5
:100ec000a6e2684b04930333f8e79ded007bb5ee93
:100ed000407bf1ee10fa8ded047b0cd1109a0123ca
:100ee00013601f9b002b00f0f784604b1f9a136068
:100ef000013b04938ce213a912aa9ded040b284632
:100f00000ef0f6fdc4f30a5103901298002946d062
:100f1000dde90423c3f3130444f07f53a1f2ff3a45
:100f200043f44013002107ee90aa43ec162bb8eed1
:100f3000e75b9fed454bb7ee087b36ee477b9fedb9
:100f4000446ba7ee046bb0ee467b9fed436ba5eec2
:100f5000067bfdeec76bb5eec07bf1ee10fa11918a
:100f600016ee90ba08d5b8eee66bb4ee467bf1ee1d
:100f700010fa18bf0bf1ff3bbbf1160f31d83c4bf9
:100f800003ebcb0393ed007b9ded006bb4eec67bd2
:100f9000f1ee10fa01dd0bf1ff3b002322e0139983
:100fa000014401f23243202b15dd009e01f2124272
:100fb000c3f1400326fa02f204fa03f31a4307eee0
:100fc000902ab8ee677b01f1ff3a53ec172b012111
:100fd000a3f1f873a7e7c3f12002009b03fa02f222
:100fe000ede70123a0eb0a0abaf1010746bfcaf1f7
:100ff000010a00274ff0000abbf1000f0d93bcbfa0
:1010000000230c93079ba3bfcdf830b05f444ff093
:101010000008aaeb0b0ab8bfcbf10008092b00f2bd
:10102000f880052bc4bf043b0793079ba3f1020381
:10103000ccbf00240124032b00f2f780dfe813f07b
:10104000e500e7001a00d90061436f63a787d23f2c
:10105000b3c8608b288ac63ffb799f501344d33fa7
:101060000000f07f456041003c6041004a60410063
:1010700030e1400001230a930b9b002b40f3d88002
:10108000069399466e6a00227260042101f11402ef
:101090009a4240f2d2807168284611f0adf96b6a2d
:1010a00030601b680493b9f10e0f75d8002c73d013
:1010b0009ded007bbbf1000f8ded0e7b40f3ce80ec
:1010c000b54a0bf00f0302ebc3034fea2b1293ed6b
:1010d000007bd30640f1b680b04b9ded0e4b93edf7
:1010e000086b84ee065b8ded005b02f00f020323bc
:1010f000aa49002a40f0a8809ded005b85ee076bb1
:101100008ded006b0d9a002a00f0da80b7ee006bcf
:101110009ded007bb4eec67bf1ee10fa40f1d0807d
:10112000b9f1000f00f0cc80069a002a30ddb2ee53
:10113000046b27ee067b8ded007b069c0bf1ff32e6
:1011400001339ded006bb1ee0c5b07ee903ab8ee0b
:10115000e77ba7ee065b8ded005b019ba3f150736f
:101160000193002c40f0af80b1ee047b36ee476b6c
:101170009ded007bb4eec76bf1ee10fa00f3008337
:10118000b1ee477bb4eec76bf1ee10fa00f1f682d8
:10119000dde90e34cde90034139b002bc0f25881f9
:1011a000bbf10e0f00f354817b4b03ebcb0393edac
:1011b000006b0b9b002b80f2f380b9f1000f00f362
:1011c000ef8040f0da82b1ee047b26ee076b9dedf6
:1011d000007bb4eec76bf1ee10fa4c464e4680f23f
:1011e000ac82049b0499312201330a700bf1010b8c
:1011f000a7e201230a930b9b5b4403f101090693c9
:101200004b46012bb8bf01233ce7002333e7002303
:10121000f0e70124002307930a944ff0ff3306936d
:101220009946002212230b922ce701230a93f4e73c
:101230000123069399461a46f5e7726801327260f7
:10124000490023e7022353e7d60704d591ed006b4d
:10125000013327ee067b521008314ae72ed0cbf13e
:1012600000024d4b02f00f0103ebc10393ed007b35
:101270009ded0e6b26ee077b8ded087bdde90834d6
:101280004649cde900341211002002233ab9002862
:101290003ff438afdde90812cde9001232e7d40798
:1012a00009d59ded086b91ed007b26ee077b8ded5a
:1012b000087b0133012052100831e7e7022321e7c0
:1012c0005a464c463de70498334b611e04440a9845
:1012d00003ebc10393ed005b58b3b6ee004b84ee15
:1012e000057b9ded005bb7ee002bb2ee043b049b4b
:1012f00037ee457bfdeec64b14ee901ab8eee45b7c
:10130000303136ee456bb4eec76bf1ee10fa03f8f0
:10131000011b39d432ee465bb4eec75bf1ee10fa36
:101320007bd4a3423ff434af27ee037b26ee036b5e
:10133000e0e79ded007bb2ee043b049b25ee075bee
:10134000fdeec64b14ee901a303103f8011b9c429f
:10135000b8eee47b36ee476b1ad1b6ee007b35ee85
:10136000074bb4eec46bf1ee10fa56dc37ee455b7a
:10137000b4eec56bf1ee10fa7ff50aaf13f8011c5d
:10138000302903f1ff3001d0934631e00346f5e701
:1013900026ee036bd4e700bf30e14000f852410075
:1013a0009ded007bb1ee463bb2ee044b049b87ee15
:1013b000065bbdeec55b15ee102a303203f8012b3b
:1013c000049a9a1a9145b8eec52ba3ee027b37d149
:1013d00037ee077bb4eec76bf1ee10fa1cd4b4ee17
:1013e000476bf1ee10fa03d115ee102ad20713d491
:1013f00003990093284613f08dfb009b109900225f
:101400001a700bf101020a601f9a002a7ff457ad8f
:10141000049815b0bde8f08f5a4613f8010c39282e
:1014200003f1ff3106d10498884207d130210170c1
:1014300001320146087801300870a5e70b46ece759
:1014400027ee047bb5ee407bf1ee10faafd1cfe78b
:101450000a9a002a00f02981079a012a00f30b81d9
:10146000119a002a00f0038103f233434446cdf879
:1014700020a0012128469a441f4414f08dfd064601
:10148000089b002b0add002f08ddbb42089aa8bf8d
:101490003b46d21aaaeb030a0892ff1ab8f1000fd2
:1014a0001fd00a9b002b00f00581002c11dd314676
:1014b000224628460ef0f2fc039a014606462846cc
:1014c0000af0f0fb03990e90284613f023fb0e9bc5
:1014d0000393b8eb040204d0039928460ef0defc17
:1014e00003900121284614f057fd0c9b002b044665
:1014f00040f3e2801a46014628460ef0cffc079bd7
:10150000012b044640f3db804ff00008236904eb15
:101510008303186912f094fdc0f12000384410f0e4
:101520001f0000f0f180c0f12003042b40f3e380a2
:10153000089bc0f11c000344824408930744baf19d
:10154000000f05dd5246039928460ef04df8039032
:10155000002f05dd21463a4628460ef045f80446a0
:101560000d9b002b00f0d2802146039813f0aef9ba
:10157000002880f2cb8000230a220399284610f02d
:10158000d2f80a9b03900bf1ff3b002b00f0ae81d9
:10159000002331460a22284610f0c5f8069b002b8e
:1015a000064603dc079b022b00f3b880089b002b48
:1015b00005dd31461a4628460ef016f80646b8f103
:1015c000000f00f015817168284610f015ff326990
:1015d00002320746920006f10c010c3014f06cfc4c
:1015e0000122394628460df0ffff009b049f03f0bf
:1015f0000103b14608930646214603980af0f8fc19
:101600004946824600f13008039813f05ff93246ec
:101610000090214628460df051f9c3680246002b80
:1016200040f0e88001460a90039813f04ff90a9ab7
:101630000346114628460a9313f06cfa0a9b002bc6
:1016400040f0da80079a002a40f0d680089a002af3
:1016500040f0d280b8f1390f00f0ee80009b002bf3
:1016600001dd0af131087b1c87f800806be0129bda
:10167000c3f13603fae609f1ff34a045bfbf0c9b66
:10168000a4eb080843440c93b6bfa046a8eb04049f
:101690000024b9f1000fbbbfaaeb09030893cdf8f2
:1016a00020a00023a8bf4b46e3e64446cdf820a087
:1016b0000a9ee5e642460fe7079b012b16dc009bde
:1016c000a3b9019bc3f3130383b9019b23f0004328
:1016d0001b0d1b056bb10af1010a01374ff0010820
:1016e0000c9b002b7ff412af012017e74ff000088e
:1016f000f6e79846f4e73ff422af089a1c331a4401
:101700009a4408921f441ae70346f6e7b9f1000f1e
:1017100039dc079b022b36ddcdf81890069b63b9a8
:101720002146052228460ff0feff01460446039895
:1017300013f0ccf800283ff754ad0b9b6fea030b76
:10174000049b4ff0000921462846009313f0e2f96c
:10175000009b002e3ff44caeb9f1000f06d0b1450e
:1017600004d04946284613f0d5f9009b0093314632
:10177000284613f0cff9009b3ae600242646dce722
:10178000934626462de50a9bcdf81890002b7ff452
:101790000daf049f039821460af02afc00f130089f
:1017a00007f8018b049b069afb1a9a4200f381808a
:1017b000049b012aacbf9b1801331f464ff0000960
:1017c0000122039928460df00fff2146039013f0e4
:1017d0007df8002833dc02d118f0010f2fd13b46f1
:1017e00013f8012c302a03f1ff31acd10b46f7e797
:1017f0003046fae601231ce7009a002a04db27d1d1
:10180000079a2abb089a1abb002b7ff72caf01223c
:10181000039928460df0e8fe2146039013f056f890
:10182000002805dc7ff41faf18f0010f3ff41baf59
:10183000b8f1390f7ff415af39233b7001373b46c0
:1018400013f8012c392a03f1ff313ad001323fe07d
:10185000002b07f1010305ddb8f1390fecd008f1d9
:10186000010801e71f4603f8018c049b069afb1a46
:101870009342a5d000230a22039928460ff053ff74
:10188000b14503904ff000034ff00a024946284645
:1018900004d10ff048ff81460646ade60ff043ff46
:1018a0003146814600230a2228460ff03cff0646b7
:1018b000a2e600230a22039928460ff034ff039082
:1018c00068e7049a8a4205d104990bf1010b312291
:1018d0000a7038e70b46b3e7094bfff70abb1f9bbb
:1018e000002b7ff4e8aa074bfff703bb069b002bf6
:1018f0003ff74faf079b022b7ff74baf0ee700bfc1
:08190000496041003c60410018
:020000040000fa
:020000040040ba
:10190800f0b589b002af7860c8220021ba4814f057
:1019180071fbba49ba4812f0b5fe0346002b1ad03b
:10192800b54bb84a14469e4604f1200c7546264627
:101938000fce28606960aa60eb6010340ef1100ebb
:101948006445f3d17346224610681860ae4b0222f4
:101958001a7000f000bdad49a94812f093fe034685
:10196800002b12d0aa4b20221a63a34aa94b154672
:101978001c460fcc28606960aa60eb6023882b8224
:10198800a14b02221a7000f0e6bca3499c4812f051
:1019980079fe0346002b06d1a049994812f072fe41
:1019a8000346002b12d09e4b10221a63924a9d4b7d
:1019b80015461c460fcc28606960aa60eb60238836
:1019c8002b82914b02221a7000f0c5bc96498c48b4
:1019d80012f058fe0346002b06d19449884812f0ad
:1019e80051fe0346002b13d0914b4ff400421a636b
:1019f800814a904b15461c460fcc28606960aa6046
:101a0800eb6023882b82804b02221a7000f0a3bc63
:101a180089497b4812f036fe0346002b06d18749d8
:101a2800774812f02ffe0346002b12d07c4b802201
:101a38001a63714a824b15461c460fcc28606960b0
:101a4800aa60eb6023882b826f4b02221a7000f089
:101a580082bc7c496a4812f015fe0346002b06d169
:101a68007949674812f00efe0346002b0fd0624af0
:101a7800764b15461c460fcc28606960aa60eb605f
:101a880020682861604b02221a7000f064bc70491b
:101a98005b4812f0f7fd0346002b2cd0604bdb6b44
:101aa8005b0803f00103002b12d0614bdb6b9b0d2d
:101ab80003f00103002b0bd04f4a664b15461c461a
:101ac8000fcc28606960aa60eb6023882b820de048
:101ad800494a614b15461c460fcc28606960aa60cc
:101ae800eb602388a2782b821346ab74464b022204
:101af8001a7000f030bc5949414812f0c3fd034642
:101b0800002b2fd0464bdb6b5b0b03f00103002b44
:101b180014d0434bdb6b9b0f03f00103002b0dd05c
:101b2800354a4f4b15461c460fcc28606960aa60a1
:101b3800eb6020682861a388ab820fe02e4a494bee
:101b480014461d460fcd20606160a260e3602868de
:101b58002061ab88aa79a3821346a3752a4b022277
:101b68001a70f8e34049264812f08cfd0346002b12
:101b780024d02f4bdb6b9b0c03f00103002b0ed101
:101b88001d4a3a4b15461c460fcc28606960aa606e
:101b9800eb602388a2782b821346ab740ae0164abe
:101ba800334b15461c460fcc28606960aa60eb6071
:101bb80020682861144b02221a70cce32d49104882
:101bc80012f060fd0346002b02d003f0a1fac2e335
:101bd80029490b4812f056fd0346002b50d001212d
:101be80001200af075f9044a244b03cb10605160b8
:101bf800054b02221a70aee30c004020384d40001d
:101c0800d8004020404d400014074020644d40005b
:101c180000160e406c4d4000804d4000884d40003d
:101c280000120e40904d4000a44d4000ac4d4000c5
:101c3800000e0e40b44d4000c84d4000d04d40004d
:101c4800d84d4000ec4d4000f44d4000fc4d4000a4
:101c5800104e4000244e4000384e40004c4e40008c
:101c6800644e40007c4e4000944e4000a84e400018
:101c7800bc4e4000d04e4000e44e4000f04e4000c4
:101c88009b499c4812f0fefc0346002b0cd0022115
:101c980001200af01df9984a984b03cb1060516057
:101ca800974b02221a7056e39649924812f0eafcc2
:101cb8000346002b0ed0012102200af009f98e4ab2
:101cc800914b03cb106051601b7813728c4b02222e
:101cd8001a7040e38d49874812f0d4fc0346002b64
:101ce8000ed0022102200af0f3f8834a864b03cb78
:101cf800106051601b781372814b02221a702ae31c
:101d080083497c4812f0befc0346002b0ed001210b
:101d180003200af0ddf8784a7b4b03cb1060516052
:101d28001b781372764b02221a7014e379497148b2
:101d380012f0a8fc0346002b0ed0022103200af063
:101d4800c7f86d4a704b03cb106051601b78137253
:101d58006b4b02221a70fee26f49664812f092fc41
:101d68000346002b1bd0644b6c4a14469e4604f174
:101d7800200c754626460fce28606960aa60eb6085
:101d880010340ef1100e6445f3d1734622461068e4
:101d9800186092889a805a4b02221a70dbe223213b
:101da800544813f0b3fe0346002b61d0c82200212b
:101db8005b4814f01ff94f4814f02cf903461a46f3
:101dc8004c49574813f003f95649554812f05afc44
:101dd80078617b6902337b615349786912f052fc60
:101de80038613a697b69d31afb60c82200214f48e1
:101df80014f000f9fb681a4679694c4813f0e7f8c3
:101e08004a4814f007f903461a464849002010f0da
:101e1800b5ffc8220021454814f0ecf8434a642174
:101e280000200ff02bfd344a414b15461c460fccc1
:101e380028606960aa60eb602388a2782b82134629
:101e4800ab743a4814f0e6f803461a4637492a486c
:101e580013f03afa284814f0ddf803461a46264be0
:101e68001344344a10681860254b02221a7072e233
:101e78003149204812f006fc0346002b06d12f49b1
:101e88001c4812f0fffb0346002b0ed01a4a2c4bbd
:101e980015461c460fcc28606960aa60eb60206874
:101ea8002861174b02221a7055e22649114812f090
:101eb800e9fb0346002b47d00f4b184a14469e46b1
:101ec80004f1200c754626460fce28606960aa608a
:101ed800eb6010340ef1100e6445f3d173462246c0
:101ee8001068186092889a80054b02221a7032e2b4
:101ef800f84e4000d80040200c004020f04e400032
:101f080014074020044f4000104f40001c4f400071
:101f1800284f4000344f4000404f4000544f40008d
:101f28009c0b40207c4f4000804f4000640c4020b8
:101f3800844f4000984f40009c4f4000a84f4000fd
:101f4800fc4d4000b44f40008749884812f09afb86
:101f58000346002b54d0c8220021854814f04af8c3
:101f6800824814f057f803461a468049804813f00f
:101f78002ef87d497e4812f085fb78617b69023333
:101f88007b617c49786912f07dfb38613a697b692d
:101f9800d31afb60c8220021774814f02bf8fb689d
:101fa8001a467969744813f012f8fb6819467248a2
:101fb80012f034f9c82200216f4814f01bf86f4a58
:101fc8006f4b14461d460fcd20606160a260e36030
:101fd80028682061ab88aa79a3821346a37567484d
:101fe80014f018f803461a46644b1344654a1068ff
:101ff8001860654b02221a700a2013f05efbaae1f2
:1020080062495a4812f03efb0346002b06d160494c
:10201800564812f037fb0346002b0ed0574a5d4b4b
:1020280015461c460fcc28606960aa60eb602068e2
:102038002861554b02221a708de157494b4812f01e
:1020480021fb0346002b13d0544b04221a634b4a3e
:10205800534b15461c460fcc28606960aa60eb609c
:102068002068286123792b75474b02221a7072e188
:102078004c493e4812f006fb0346002b06d14a495c
:102088003a4812f0fffa0346002b11d0434b402286
:102098001a633a4a454b15461c460fcc28606960be
:1020a800aa60eb6023882b82374b02221a7052e118
:1020b8003f492e4812f0e6fa0346002b06d13d4967
:1020c8002a4812f0dffa0346002b2cd0334b4ff48a
:1020d80080121a63314b4ff480221a632f4b4ff44e
:1020e80000021a63344b10221a63334b4ff4807288
:1020f8001a63314b4ff400721a632f4b4ff00052a2
:102108001a631e4a2d4b15461c460fcc2860696081
:10211800aa60eb602388a2782b821346ab741a4b13
:1021280002221a7017e12649104812f0abfa03464a
:10213800002b06d123490d4812f0a4fa0346002bc0
:1021480042d0164b40221a630c4a124b15461c46c5
:102158000fcc28606960aa60eb60206828610a4b90
:1021680002221a70f7e000bfc44f4000d800402098
:102178009c0b4020c84f4000640c40200c004020bd
:10218800cc4f4000984f400014074020e44f4000d7
:10219800f04f4000fc4d4000fc4f400000120e4044
:1021a800145040002c50400038504000445040002b
:1021b800585040006050400000140e4068504000e5
:1021c8007c504000845040006749684812f05afa31
:1021d8000346002b00f08d80654b00221a70022305
:1021e8000093644b01226249482010f0a9fb00bf0c
:1021f80013f002f90346002bfad15f4b9b795bb2cf
:10220800dbb2db09dbb21a465c4b1a705a4b9b797e
:1022180003f07f03dab25a4b1a70574bdb7923f07d
:102228000f03dab2574b1a70564b1b781b09dab2f8
:10223800544b1a70534b1b7807ee903ab8eee77b75
:102248009fed476b27ee067bf7eec77b4e4bc3ed42
:10225800007a4b4b1b7807ee903ab8eee77a4a4b78
:10226800d3ed007a77ee277a474bc3ed007a434bdc
:102278001b78012b05d1444bd3ed007af1ee677a38
:1022880002e0414bd3ed007a3f4bc3ed007a3e4b61
:10229800d3ed007ab7eee77a53ec172b3b493c486d
:1022a80011f08ffcc82200213a4813f0a3fe394ae6
:1022b800394b14461d460fcd20606160a260e36073
:1022c800334813f0a7fe03461a463149314812f045
:1022d800fbff304813f09efe03461a462d4b13446d
:1022e8002e4a1068186092889a802d4b02221a7024
:1022f80031e02c491d4812f0c5f90346002b17d0d0
:10230800294b4ff000521a63284b04221a63214ac2
:10231800274b15461c460fcc28606960aa60eb6005
:1023280020682861a388ab821d4b02221a7012e034
:10233800c82200210d4813f05dfec822002115486f
:1023480013f058fec82200211a4813f053fe144b0c
:1023580000221a70ffe700bf1c37bd46f0bd00bf62
:10236800000000000000b03f90504000d80040201e
:10237800d80340202609402020094020360b402061
:10238800cd034020b4084020e0054020a050400084
:10239800bc0a40200c004020a4504000b45040002b
:1023a80014074020bc504000000e0e4000140e40a0
:0823b800cc5040001805402044
:020000040000fa
:020000040040ba
:1023c00090b5a1b000aff860b9607a603b6007f1ea
:1023d0000c0318460ef004f8f864fb6c002b02dacc
:1023e0000b2300f09ebca74afb6c52f82330002b55
:1023f00005d0a44afb6c52f8233000221a70a24a7e
:10240000fb6c12f8133087f84b309f4afb6c5b0073
:1024100013445b7887f84a30bb68002b01d19b4b93
:10242000bb6097f84b30184613f0def9034687f887
:10243000493097f8493003f00103002b02d0032301
:1024400000f06fbc97f8493003f00403002b02d072
:102450000a2300f066bcbb685b683b623b6a002bea
:102460000cd107f1200297f84b30032118460ff0ea
:102470001ff90346002b01d001233b623b6a002b6e
:1024800009d03b6ab3f5004f05d83b6a5a1e3b6a38
:102490001340002b01d001233b624ff40073a7f8d7
:1024a0004630bb681b7803f00f0387f84530bb68e4
:1024b0005b78002b06d0bb685b78022b02d8bb6828
:1024c0005b7800e001233b64bb689b68002b14d061
:1024d000bb689b68b3f5004f0fd8bb689b68b7f823
:1024e0004620520992b2b3fbf2f102fb01f29b1ab1
:1024f000002b02d1bb689b6801e04ff40073fb63c3
:10250000bb68db68b3f1807f0ad8bb68da68bb6858
:10251000db68013b1340002b02d1bb68db6800e0a5
:1025200000237b65b7f846307a6db2fbf3f37b6529
:10253000b7f846303a68b2fbf3f3bb63bb6b002bd2
:1025400001d11123ede37b687b637b6b002b01d111
:102550001123e6e30023fb61fb69fb6697f84a3031
:10256000002b3cd097f84b0001230022796b07f039
:10257000d7ff0346002b01d00123d2e37b6b03f589
:10258000ff73184612f01efa03461a464af6552300
:102590009a4201d00e23c4e397f84a30013b1b0155
:1025a00003f5df731a467b6b13443b6397f84a309d
:1025b000042b04d83b6b04331b78002b01d10e2372
:1025c000afe33b6b0833184611f002f9f8663b6b3a
:1025d0000c33184611f0fcf80346fb611be007f1d1
:1025e0001c0297f84b30012118460ff061f80346a2
:1025f000002b01d0012394e397f8453003f0080342
:10260000002b08d1fb693f2b05d93f23fb66fa69f4
:10261000fb6ed31afb61fb697f2b01d80e2380e38d
:102620007b6d802b01d980237b6597f8453003f0c3
:102630000203002b09d097f8453003f00103002b6b
:1026400003d1032387f87f300ae097f8453003f081
:102650000103002b01d1132363e3022387f87f30aa
:102660007b6dbb6797f87f30032b45d1bb6f002b89
:1026700022d1fb695b0c3b6700233b650123bb67f1
:102680000ce000bf9472402088104020cc5f4100d5
:102690003b6d01333b65bb6f5b00bb67974a3b6d8e
:1026a00032f81330002b07d0944a3b6d32f81330c8
:1026b0001a463b6f9a42ebd9fa69bb6fb2fbf3f350
:1026c000fb62fb6a02339a00b7f8463013445a1e85
:1026d000b7f84630b2fbf3f3fb6520233b660023db
:1026e000bb65fb6a4ff6f572934203d9fb6a844ad5
:1026f00093424dd90e2314e3bb6f002b1bd1fb6912
:102700001b0b3b6700233b650123bb6705e03b6d6b
:1027100001333b65bb6f5b00bb677a4a3b6d32f8a8
:102720001330002b07d0774a3b6d32f813301a462e
:102730003b6f9a42ebd9fa69bb6fb2fbf3f3fb62d2
:10274000fb6a40f6f572934204d9fb6a02335b00e0
:102750003b670ae0012387f87f30fa6a13465b0083
:10276000134401335b0803333b67b7f846203b6fe4
:1027700013445a1eb7f84630b2fbf3f3fb6501234e
:102780003b66fb6b5a01b7f84630b2fbf3f3bb650f
:10279000fa6e3b6e1344bb66fb6d3a6c02fb03f2b0
:1027a000bb6e1a44bb6d1344bb623a6abb6a1344e6
:1027b0005a1e3b6a5b421a40bb6ad31a3b6797f8c2
:1027c0007f30032b08d13a6e3b6f13443b66ba6ee1
:1027d0003b6f1344bb6619e03b6f3a6cb3fbf2f2fc
:1027e000396c01fb02f29b1a002b08d03b6f013bb6
:1027f0003b673b6e01333b66bb6e0133bb663a6f92
:102800003b6cb2fbf3f3fa6d1344fb65bb6f1a012b
:10281000bb6a1a44fb6ed21afb699a4201d90e2395
:102820007fe2fa693b6ed21afb6d396c01fb03f350
:10283000d21abb6dd21abb6fb2fbf3f3fb6297f8ef
:102840007f30032b0fd1fb6a4ff6f57293420ad803
:102850007b6d002b05d1bb6f5b087b657b6d002b0f
:1028600045d10e235de297f87f30022b34d1fb6a0d
:102870004ff6f57293421fd97b6d002b07d1bb6fca
:102880005b00402b03d8bb6f5b007b6534e097f89f
:10289000453003f00203002b03d0032387f87f3079
:1028a0002ae07b6d002b05d1bb6f5b007b657b6de8
:1028b000802b1ed90e2334e2fb6a40f6f572934258
:1028c0000ad87b6d002b05d1bb6f5b007b657b6df0
:1028d000802b10d90e2324e297f87f30012b13d1df
:1028e000fb6a40f6f57293420ed90e2319e200bf3f
:1028f000b6e600bfb4e600bfb2e600bfdc5f410051
:10290000f5ffff0fec5f410000bfb7f846301a46f5
:102910000021786b11f072ff0b22b749786b11f030
:10292000f1f87b6b0b33b7f846201146184611f0cf
:1029300041fe7b6b0d33ba6fd2b21a707b6b0e33d4
:102940003a6e92b21146184611f034fe7b6b10338a
:102950003a6cd2b21a707b6b03f1110297f87f3098
:10296000032b02d0fb6b9bb200e0002319461046fc
:1029700011f020fefb69b3f5803f08d27b6b133367
:10298000fa6992b21146184611f014fe06e07b6b0c
:102990002033fa691146184610f09cf97b6b153309
:1029a000f8221a707b6b18333f21184611f002fe93
:1029b0007b6b1a33ff21184611f0fcfd7b6b1c3337
:1029c000f96e184610f086f997f87f30032b31d155
:1029d0007b6b03f1430410f029fb034619462046a4
:1029e00010f078f97b6b2433f96d184610f072f90a
:1029f0007b6b2c330221184610f06cf97b6b303363
:102a00000121184611f0d6fd7b6b323306211846a2
:102a100011f0d0fd7b6b403380221a707b6b423308
:102a200029221a707b6b473313227449184611f020
:102a300069f820e07b6b03f1270410f0f7fa0346f6
:102a40001946204610f046f97b6b1633fa6d92b2a8
:102a50001146184611f0aefd7b6b243380221a70ac
:102a60007b6b263329221a707b6b2b33132264492c
:102a7000184611f047f87b6b03f5ff734af65521b2
:102a8000184611f097fd97f84b000123fa6e796b09
:102a900007f0fafd0346002b01d0012341e197f82e
:102aa0007f30032b41d1fb6e9a1d97f84b00012319
:102ab000796b07f0e9fdb7f846301a460021786bcc
:102ac00011f09cfe4f49786b10f004f97b6b03f515
:102ad000f2734d49184610f0fdf87b6b03f5f47264
:102ae000fb6a013b1946104610f0f4f87b6b03f5c6
:102af000f6730221184610f0edf87b6b03f5ff73b7
:102b00004af65521184611f055fdfb6eda1d97f86f
:102b10004b000123796b07f0b7fdfb6e5a1c97f849
:102b20004b000123796b07f0affdb7f84630ba6b65
:102b300002fb03f31a460021786b11f05ffebb6eb7
:102b40007b6600233b654ce097f87f30032b13d165
:102b50006ff00701786b10f0bdf87b6b04334ff01a
:102b6000ff31184610f0b6f87b6b08336ff07041f8
:102b7000184610f0aff80be097f87f30012b01d129
:102b8000224b01e06ff007031946786b10f0a2f8b2
:102b9000fb6d7b677a6fbb6b934228bf13463b6725
:102ba00097f84b003b6f7a6e796b07f06dfd03462b
:102bb000002b01d00123b4e0b7f846301a460021bb
:102bc000786b11f01bfe7a6e3b6f13447b667a6f55
:102bd0003b6fd31a7b677b6f002bdbd13b6d0133df
:102be0003b653a6d3b6c9a42aed397f87f30032b2e
:102bf0000ed1bb6f0de000bffc2e4100082f41003d
:102c00001c2f41005252614172724161f8ffff0076
:102c1000bb6d7b677a6fbb6b934228bf13463b67e4
:102c200097f84b003b6f7a6e796b07f02dfd0346ea
:102c3000002b01d0012374e07a6e3b6f13447b6656
:102c40007a6f3b6fd31a7b677b6f002be2d197f8cb
:102c50007f30032b03d10c2387f87e3010e0fb6913
:102c6000b3f5803f03d3062387f87e3008e097f85a
:102c70007f30022b01d1042300e0012387f87e304e
:102c800097f84a30002b22d097f84b0001230022fe
:102c9000796b07f045fc0346002b01d0012340e08f
:102ca00097f84a30013b1b0103f5e1737a6b13443b
:102cb00097f87e201a7097f84b0001230022796b59
:102cc00007f0e2fc0346002b1ed0012329e097f811
:102cd000453003f00803002b16d1fb697b6100230c
:102ce000bb6197f87e2007f1140197f84b007b6bce
:102cf00004f0f4fc034687f8273097f82730002bc0
:102d000002d097f827300ce097f84b3000220021d2
:102d100018460ef0cdfc0346002b01d0012300e045
:0c2d2000002318468437bd4690bd00bf5c
:020000040000fa
:020000040040ba
:102d2c0080b58cb002af786000233b620023fb615e
:102d3c000023bb61002387f827300023bb607b682e
:102d4c004ff4507202fb03f3b54a13443b623b6ae7
:102d5c0003f54b737b614ff6ff737b827b691b78aa
:102d6c00012b02d17b6900221a70386a12f02cfcfc
:102d7c00b8613b6a93f8df32102b00f2f48301a2a6
:102d8c0052f823f0d52d40001d2e40003d2e400062
:102d9c008f2e4000252f40002731400093314000fa
:102dac00073240005d324000f932400043334000ae
:102dbc0097334000d533400037344000673440002f
:102dcc00dd3440005b3540003b6a9b78002b0cd116
:102ddc003b6a9b689b6b98470346002b00f0c583ae
:102dec003b6a012283f8df22bfe33b6a203319469a
:102dfc0078680cf0f1f83b6a9b685b6898473b6a13
:102e0c00884ac3f8b4223b6a032283f8df22ace37e
:102e1c003b6a03f53a731946fa200ff047fe034656
:102e2c00002b40f0a4833b6a022283f8df229ee34e
:102e3c003b6ad3f8e832184611f05aff0346002bd0
:102e4c0000f097833b6a9b689b6b98470346002b6b
:102e5c0012d03b6a2033194678680cf0bdf83b6af7
:102e6c009b685b6898473b6a6e4ac3f8b4223b6a1e
:102e7c00032283f8df227ce33b6a002283f8df2203
:102e8c0077e3386afdf77ef93b6a93f8e0321d2b45
:102e9c0030d13b6a002283f8fa223b6a93f8dc3289
:102eac00002b0ed03b6a9b68db6b002b0dd03b6a72
:102ebc009b68db6b984703461a463b6a83f8ad2246
:102ecc0003e03b6a002283f8ad22386a0ef07ffde6
:102edc003b6a9b78012b04d13b6a4ff0ff32c3f85d
:102eec00ec223b6a012283f8de223b6a042283f83f
:102efc00df2240e33b6a93f8e0321e2b40f03b8329
:102f0c003b6a9b78012b40f036833b6a2033194691
:102f1c0078680cf061f82ee3386a12f055fbb86152
:102f2c00bb69002b00f0a8803b6a93f8e232032bbc
:102f3c0040f0a2803b6a9b78012b0ad13b6ad3f804
:102f4c00ec3218460ff07df83b6a4ff0ff32c3f8b5
:102f5c00ec223b6a93f8ae32002b07d0bb69ff2200
:102f6c001a723b6a0e2283f8df2219e33b6a9b78c4
:102f7c00002b0ed13b6a9b689b6b9847034683f0f2
:102f8c000103dbb2002b04d03b6a102283f8df2252
:102f9c0006e3bb6902221a723b6a93f8a632002b35
:102fac0004d1bb695b695a02bb695a61bb695b7f1f
:102fbc00012b17d13b6a012283f8e422bb699b6980
:102fcc00012b07d1bb6911221a773b6a002283f8c7
:102fdc00e52230e0bb6912221a773b6a012283f8a2
:102fec00e52228e03b6a93f8ad32002b07d0bb6991
:102ffc00ff221a723b6a0e2283f8df22d0e23b6a70
:10300c00002283f8e422bb699b69012b0cd1bb69bc
:10301c0018221a773b6a002283f8e5220be000bfe6
:10302c00405d4020801a0600bb6919221a773b6a62
:10303c00012283f8e5223b6a9b78022b17d13b6a6d
:10304c0093f8f032012b0dd13b6a93f8fa32012b35
:10305c0008d13b6a002283f8fa223b6a052283f8e6
:10306c00df2259e03b6a072283f8df2254e03b6af7
:10307c00072283f8df224fe03b6a9b78022b1ad1a0
:10308c003b6a93f8f032012b40f077823b6a93f85d
:10309c00f932002b00f071823b6a93f8fa32002b64
:1030ac0040f06b823b6a012283f8fa223b6a0522cc
:1030bc0083f8df2261e23b6a9b78012b40f05d8252
:1030cc003b6ad3f8ec32b3f1ff3f11d13b6a5a683b
:1030dc003b6a03f53b73194610460ff0e7fc0346b9
:1030ec00012b40f04a823b6a0e2283f8df2257e222
:1030fc003b6ad3f8ec32184611f0fafd0346002b6c
:10310c0000f03b823b6a4ff0ff32c3f8ec223b6a83
:10311c00062283f8df2230e22fe23b6a002283f89a
:10312c00e3223b6ab3f8a2321a043b6a93f8fa32f0
:10313c00db0313431a463b6a03f2e3230093022397
:10314c000521386a05f006fb3b6a93f8e232032b43
:10315c0040f015823b6a93f8dd32002b0ed13b6aae
:10316c0093f8fa32012b04d13b6a042283f8df2254
:10317c0005e23b6a072283f8df2200e23b6a102259
:10318c0083f8df22fbe13b6a002283f8e3223b6aef
:10319c00b3f8a2321b041a463b6a03f2e3230093f2
:1031ac0001230d21386a05f0d5fa3b6a93f8e23217
:1031bc00032b40f0e6813b6a93f8dd32002b17d1ec
:1031cc003b6a9b681b6a07f108021146002098476e
:1031dc00bb685b0a03f00f03032b04d03b6a10227d
:1031ec0083f8df22cde13b6a042283f8df22c8e1b9
:1031fc003b6a102283f8df22c3e13b6ab3f8a232a8
:10320c001b041a463b6a03f2e323009302230721b3
:10321c00386a05f09ffa3b6a93f8e232032b40f0d0
:10322c00b2813b6a93f8dd32002b0cd13b6a9b6870
:10323c001b6a07f108021146002098473b6a0822d6
:10324c0083f8df229fe13b6a0e2283f8df229ae1aa
:10325c00bb69002b04d13b6a0e2283f8df229fe16d
:10326c00bb699b69012b05d13b6a9b685b6a00209b
:10327c00984707e03b6a9b685b6aba69926992b2ad
:10328c00104698473b6a9b689b6a4ff400709847be
:10329c00bb695b7f002b09d1bb691a69bb699b6950
:1032ac005b02194610460ef061fe0ce0bb695b7fb9
:1032bc00012b08d1bb691a69bb699b695b02194672
:1032cc0010460ef01dfe3b6a012283f8e3223b6a96
:1032dc009b685b6bba691069ba6992695102ba69e9
:1032ec00527f98473b6a092283f8df22bb69197f1a
:1032fc00bb695a693b6a03f2e32300930123386ae2
:10330c0005f028fa3b6a93f8e232032b40f03d813a
:10331c003b6a002283f8e3223b6a93f8dd32002bf0
:10332c0004d13b6a0a2283f8df222ee13b6a0e228b
:10333c0083f8df2229e13b6a93f8af32002b00f0cf
:10334c0026813b6ab3f8b2321a4648f27023134016
:10335c00002b04d03b6a0e2283f8df2217e1bb69f5
:10336c00002b0dd0bb699b69012b04d93b6a0b2246
:10337c0083f8df220be13b6a0c2283f8df2206e1a3
:10338c003b6a0e2283f8df2201e13b6a03f2e3235e
:10339c000093022300220c21386a05f0dbf93b6a0a
:1033ac0093f8e232032b40f0f4803b6a93f8dd3261
:1033bc00002b04d13b6a0c2283f8df22e9e03b6a44
:1033cc000e2283f8df22e4e03b6ab3f8a2321b043e
:1033dc001a463b6a03f2e323009301230d21386a5a
:1033ec0005f0b8f93b6a93f8e232032b40f0d38036
:1033fc003b6a93f8dd32002b12d13b6a9b681b6a47
:10340c0007f10802114600209847bb6803f480734b
:10341c00002b00f0c0803b6a0d2283f8df22bae05b
:10342c003b6a0e2283f8df22b5e03b6a03f2e3230a
:10343c000093002300220721386a05f08bf93b6ac0
:10344c0093f8e232032b40f0a880bb6900221a7279
:10345c003b6a0f2283f8df229fe03b6a9b78002bac
:10346c000fd13b6a9b689b6b984703461a46524b9d
:10347c001a70bb69ff221a723b6a0f2283f8df2293
:10348c008de03b6a002283f8e3223b6ab3f8a23258
:10349c001b041a463b6a03f2e323009301230d211c
:1034ac00386a05f057f93b6a93f8e232032b76d170
:1034bc00bb69ff221a723b6a0f2283f8df223b6a38
:1034cc0093f8dd32002b6ad03b4b00221a7066e079
:1034dc00bb69002b2ad0bb695b68dbb21a013b6a63
:1034ec00d3f8d8321344fb61fb69da68bb695b68bb
:1034fc009a4218d1bb6993f90830002b03d10023f1
:10350c0087f8273002e0012387f82730fb695b68d6
:10351c00002b08d0fb695b68ba69d168fa699268bc
:10352c0097f827009847386a10f08afb224b1b78d3
:10353c00002b04d03b6a042283f8df2230e01e4bc0
:10354c0001221a703b6a102283f8df2228e0386ac5
:10355c000ef005fa3b6a002283f8de223b6a002259
:10356c0083f8df221ce000bf1ae000bf18e000bfa8
:10357c0016e000bf14e000bf12e000bf10e000bf77
:10358c000ee000bf0ce000bf0ae000bf08e000bf87
:10359c0006e000bf04e000bf02e000bf00e000bf97
:1035ac003b6a03f54b73fb60fb6801221a7000bf8a
:0c35bc002837bd4680bd00bfbb72402018
:020000040000fa
:020000040040ba
:1035c800b07140201c00000000000000405d402059
:1035d8004003000000000000bb7240200100000012
:1035e80001000000010000003055402010000000dc
:1035f800000000009072402004000000010000005c
:10360800305540208872402006000000000000006d
:10361800b8724020030000000000000068724020db
:103628000c00000000000000387140202800000055
:10363800010000000100000000002000410000001f
:1036480000002000020000000000400042000000ce
:103658000000400043000000000080006069402036
:10366800b801000000000000ec70402014000000c9
:1036780000000000000040200800000000000000da
:10368800747240200c0000000000000060714020af
:10369800280000000000000008004020ec0d000099
:1036a80000000000f40d4020300000000000000081
:1036b800240e40203000000000000000540e40207e
:1036c8003000000000000000840e402030000000a0
:1036d80000000000b40e40201000000000000000b0
:1036e8009472402004000000000000008e72402008
:1036f8000200000000000000c47240200100000029
:1037080000000000f87140201000000000000000d8
:103718006067402000020000000000004065402073
:103728002002000000000000e00e402074010000ac
:1037380000000000e47140201400000001000000b7
:10374800085841000c5841001058410018584100d1
:103758001c58410080724020080000000000000052
:10376800c5724020010000000000000040554020c4
:103778000008000000000000cc7140201800000084
:103788000100000060104020a0124020d0604100dd
:1037980000000000a0104020000000006010402041
:1037a8005c02000000000000806040206002000011
:1037b80000000000e06240206002000000000000fd
:1037c800007140203800000000000000c672402050
:1037d800010000000000000088714020280000005f
:1037e80000000000846c4020a000000000000000e1
:1037f800bc7240200200000001000000010000002f
:10380800087240201000000000000000246d4020d5
:10381800a000000000000000187240201000000006
:1038280000000000c46d4020a0000000000000005f
:10383800287240201000000000000000646e402044
:10384800a0000000000000003872402010000000b6
:1038580000000000046f4020a000000000000000ed
:10386800487240201000000000000000a46f4020b3
:10387800a000000000000000587240201000000066
:1038880000000000a4704020480000000000000074
:10389800bc12402020000000000000009872402068
:1038a80004000000000000009c724020040000009a
:1038b80000000000a072402004000000000000008a
:1038c800a47240200400000000000000e012402024
:1038d8003840000000000000be72402002000000d6
:1038e80000000000c072402002000000010000003b
:1038f800c4090000c272402002000000010000005c
:103908008813000018534020140200000000000033
:10391800a87240200400000001000000447040200c
:10392800447040206000000001000000000000001a
:10393800e858410008594100c858410000000000fb
:10394800000000000000000000000000000000006f
:10395800000000000000000000000000000000005f
:10396800000000000000000000000000000000004f
:10397800000000000000000000000000000000003f
:10398800000000000000000000000000186b40204c
:103998006c0100000100000043000000000000006e
:1039a800000000000000000000000000000000000f
:1039b80000000000000000004300000000000000bc
:1039c80000000000000000000000000000000000ef
:1039d800000000000000000043000000000000009c
:1039e80000000000000000000000000000000000cf
:1039f800000000000000000043000000000000007c
:103a080000000000000000000000000000000000ae
:103a1800000000000000000043000000000000005b
:103a2800000000000000000000000000000000008e
:103a3800000000000000000043000000000000003b
:103a4800000000000000000000000000000000006e
:103a5800000000000000000043000000000000001b
:103a6800000000000000000000000000000000004e
:103a78000000000000000000bb5b4100d954410079
:103a88000000000044c6400009614100086141008f
:103a98000861410008614100086141000861410076
:103aa8000861410008614100086141000861410066
:103ab800ffffffffffffffffffffffffffff00000c
:103ac8000100415343494900000000000000000084
:103ad80000000000000000000000000000000000de
:103ae8000000415343494900000000000000000065
:103af80000000000000000000000000000000000be
:103b080000000000ac72402004000000000000002b
:103b1800b072402004000000000000002c55402036
:103b28000400000000000000b472402004000000ff
:103b380000000000000000000000000022222222f5
:020000040000fa
:020000040040ba
:103b48002de9f04f2ded028b8bb00c461646ddf8b3
:103b580058901f46054611f0f5ff03680293184672
:103b680012f058fa23680393d9f800300490073309
:103b780023f0070303f1080294f818b0c9f80020ed
:103b8800d3e90023c4e912239fedb57b94ed128b92
:103b9800b0eec86bb4ee476bf1ee10fa40f34f820b
:103ba800b5eec08bf1ee10fa02d52d2384f8433020
:103bb800ad4b1a1fbbf1470f8cbf994691460323a3
:103bc8002361039b4ff0000a23f004032360d046cf
:103bd8000097334608aa2146284609f001fa013021
:103be80040f0f4804ff0ff300bb0bdec028bbde825
:103bf800f08f6368591c2bf020091cd106236360e1
:103c0800039bd4f804a043f48063236018ee903a31
:103c18005ffa89f8002bb6bf2d230023b1ee488b3d
:103c2800b8f1460f05930dd0b8f1450f01d10af14f
:103c3800010a022107e0b9f1470fe1d1002bdfd1da
:103c48000123dce7032108ab019307ab009352463d
:103c580006abb0ee480b2846fdf7e6f8b8f1470f7b
:103c6800814653d1039bda0750d4089b069ab8f1d2
:103c7800470fa3eb090a6dd1d31c03db63689a4293
:103c880040f39380abf1020b5ffa8bfb531e002bc2
:103c98000693b6bfc2f101032b222d22092b04f192
:103ca800500884f850b004f1520184f851206dddb9
:103cb8000df127024ff00a0c93fbfcfe0cfb1e33a0
:103cc800303302f8013c7346092b02f1ff3056dc11
:103cd800303300f8013c023a0df127039a420846b6
:103ce8004fd3a0eb08080aeb0803baf1010f2361d0
:103cf80002dc2268d00701d501332361059b002b24
:103d08003ff466af2d2384f8433061e7b8f1460fde
:103d180009eb0a020dd199f80030302b07d1b5ee26
:103d2800408bf1ee10fa1cbfcaf101030693069b03
:103d38001a44b5ee408bf1ee10fa08bf0892089bc2
:103d4800934292d23021581c08901970089b9a42cd
:103d5800f9d88ae7bbf1650f98d9bbf1660f26d170
:103d6800002a636819dd226113b92168c90702d5e1
:103d7800013313442361a2654ff00008bee70246f1
:103d88009ae712f8010b01f8010ba7e73022084661
:103d9800134400f8022b4b70a3e713b92168c80736
:103da80001d50233e6e70123e4e74ff0670b5245fc
:103db80005db23682261d907ddd5531cdae7002a21
:103dc800d4bfc2f1020301235344d3e723685a0541
:103dd80007d423694a4631462846b847013029d1d5
:103de80000e7bbf1650f40f2e08094ed127bb5ee81
:103df800407bf1ee10fa46d101231c4a3146284691
:103e0800b84701303ff4eeae069b534502db23680a
:103e1800d8070fd5049b029a31462846b847013087
:103e28003ff4e0ae0af1ff394ff0000804f11a0a36
:103e3800c8451ddb23689b0709d54ff0000804f12e
:103e48001909e368089a9b1a9845c0f2ed80e06862
:103e5800089b9842b8bf1846c6e600bfaff300807b
:103e6800ffffffffffffef7fb4554100c055410042
:103e78000123524631462846b84701303ff4b2aed6
:103e880008f10108d4e7069b002b2cdc0123704abb
:103e980031462846b84701303ff4a4ae069b2bb9fb
:103ea800baf1000f02d12368d907c3d5049b029a3f
:103eb80031462846b84701303ff494ae4ff0000829
:103ec80004f11a0b069b5b42984501db534681e7d8
:103ed80001235a4631462846b84701303ff482ae9e
:103ee80008f10108eee7a36d5345a8bf5346002b20
:103ef800984637dc04f11a034ff0000b28eae878fb
:103f08000593a36d0393a3eb08039b4531db069b45
:103f1800534539db2368da0736d4039baaeb030839
:103f2800069baaeb03039845a8bf9846b8f1000f73
:103f380032dc4ff0000928eae87804f11a0b069bf6
:103f4800aaeb0303a3eb08039945bff673af01235c
:103f58005a4631462846b84701303ff443ae09f186
:103f68000109ece74a4631462846b8470130c1d135
:103f780038e60123059a31462846b84701303ff410
:103f880031ae0bf1010bbce7049b029a314628467f
:103f9800b8470130c1d125e6039a43464a44314621
:103fa8002846b8470130c4d11ce6baf1010f01dc3c
:103fb800db0736d501234a4631462846b847013043
:103fc8003ff410ae049b029a31462846b8470130a8
:103fd8003ff408ae94ed127bb5ee407bf1ee10fa9b
:103fe8000af1ff3a09d14ff0000904f11a0bd14543
:103ff8000cdb434604f15002ede6534609f1010299
:1040080031462846b8470130f3d1ebe501235a463b
:1040180031462846b84701303ff4e4ad09f10109bb
:10402800e5e701234a46ebe701234a46314628469d
:10403800b84701303ff4d6ad08f1010801e7b4ee06
:10404800488bf1ee10fafff5d4ad024bb1e500bf95
:08405800c0554100bc554100b8
:020000040000fa
:020000040040ba
:1040600080b5a8b000aff860b9607a607b68c7f827
:10407000803007f13403f968184611f0effabb6895
:104080005a1cba601b7887f88b3097f88b30002b5e
:1040900000f00c8297f88b30252b08d097f88b20f6
:1040a00007f13403114618460df0e8fdfde1002349
:1040b00087f89f300023c7f89030bb685a1cba605d
:1040c0001b7887f88b3097f88b30302b09d1012380
:1040d00087f89f30bb685a1cba601b7887f88b3012
:1040e0000ce097f88b302d2b08d1022387f89f30f6
:1040f000bb685a1cba601b7887f88b3097f88b30f6
:104100002a2b21d1d7f880301a1dc7f880201b68d0
:10411000c7f89030bb685a1cba601b7887f88b30a0
:104120001ae0d7f8902013469b0013445b001a4610
:1041300097f88b301344303bc7f89030bb685a1c5b
:10414000ba601b7887f88b3097f88b302f2b03d908
:1041500097f88b30392be4d997f88b306c2b03d040
:1041600097f88b304c2b0bd197f89f3043f004031a
:1041700087f89f30bb685a1cba601b7887f88b3071
:1041800097f88b30002b00f0938197f88b3087f8ed
:104190008a3097f88a30602b08d997f88a307a2bc2
:1041a00004d897f88a30203b87f88a3097f88a300d
:1041b000423b162b00f2a28001a252f823f000bf6e
:1041c000dd424000c1424000ed424000fd4240005f
:1041d000fd424000fd424000fd424000fd424000e3
:1041e000fd424000fd424000fd424000fd424000d3
:1041f000fd424000e5424000fd424000fd424000db
:10420000fd4240001d424000fd424000ed424000a2
:10421000fd424000fd424000f5424000d7f88030aa
:104220001a1dc7f880201b68c7f884300023c7f820
:10423000943004e0d7f894300133c7f89430d7f8bd
:104240008420d7f8943013441b78002bf2d197f8d0
:104250009f3003f00203002b1cd105e007f134036b
:10426000202118460df00afdd7f894305a1cc7f8e3
:104270009420d7f890209342f0d30be0d7f8843005
:104280005a1cc7f884201a7807f1340311461846df
:104290000df0f4fcd7f884301b78002beed105e04c
:1042a00007f13403202118460df0e8fcd7f89430cc
:1042b0005a1cc7f89420d7f890209342f0d3f4e02a
:1042c000d7f880301a1dc7f880201b68dab207f1d2
:1042d0003403114618460df0d1fce6e0022387f8be
:1042e0009e3014e0082387f89e3010e00a2387f8f8
:1042f0009e300ce0102387f89e3008e097f88b2062
:1043000007f13403114618460df0b8fccde097f8dc
:104310009f3003f00403002b06d0d7f880301a1d1d
:10432000c7f880201b6810e097f88a30442b06d12c
:10433000d7f880301a1dc7f880201b6805e0d7f831
:1043400080301a1dc7f880201b68c7f88c3097f89a
:104350008a30442b0ed1d7f88c30002b0adad7f8ec
:104360008c305b42c7f88c3097f89f3043f00803dd
:1043700087f89f300023c7f8983097f89e20d7f829
:104380008c30b3fbf2f102fb01f29b1a87f88a3002
:1043900097f89e30d7f88c20b2fbf3f3c7f88c3037
:1043a00097f88a30092b0bd997f88b30782b01d1ed
:1043b000272200e0072297f88a30134487f88a30d2
:1043c000d7f898305a1cc7f8982097f88a203032ce
:1043d000d2b207f1a0010b4403f88c2cd7f88c3033
:1043e000002b03d0d7f898301f2bc6d997f89f30f1
:1043f00003f00803002b0ad0d7f898305a1cc7f8ee
:10440000982007f1a00213442d2203f88c2cd7f832
:104410009830c7f8943097f89f3003f00103002bd1
:1044200001d0302300e0202387f88a3097f89f30ae
:1044300003f00203002b11d107e097f88a2007f15f
:104440003403114618460df019fcd7f894305a1c65
:10445000c7f89420d7f890209342eed3d7f898303d
:10446000013bc7f8983007f11402d7f8983013448d
:104470001a7807f13403114618460df0fffbd7f800
:104480009830002bead107e097f88a2007f134032f
:10449000114618460df0f2fbd7f894305a1cc7f8b5
:1044a0009420d7f890209342eed3e8e500bf00e0d7
:1044b00000bf07f1340318460ef018ff03461846f4
:0844c000a037bd4680bd00bf1e
:020000040000fa
:020000040040ba
:1044c80080b58ab000af786039603b681b68bb6014
:1044d8007b681b68db683b6100237b6107f108038d
:1044e80018460cf067f9f860fb68b3f1ff3f01d19b
:1044f800062304e2fb68b3f5803f09d37b695a1ca5
:104508007a615b003a691344fa68120c92b21a8015
:10451800fb68bb84bb8c1f2b20d9bb8c2f2b1dd0d9
:10452800bb8c5c2b1ad0bb8c7f2b09d8bb8c194653
:10453800a74810f056f80346002b01d00623dee109
:104548007b69fe2b01d90623d9e17b695a1c7a6164
:104558005b003a691344ba8c1a80bfe7bb8c1f2be7
:1045680003d8042387f826300ee0002387f8263086
:1045780002e0bb680133bb60bb681b782f2bf8d007
:10458800bb681b785c2bf4d0ba683b681a607b69ff
:10459800012b09d17a696ff0004313445b003a6933
:1045a80013441b882e2b15d07b69022b4dd17a69b9
:1045b8006ff0004313445b003a6913441b882e2ba9
:1045c80043d17a69834b13445b003a6913441b88cf
:1045d8002e2b3ad17b695b003a69134400221a807a
:1045e80000233b620fe03a6a7b699a4201d22e218e
:1045f80000e020217a683b6a134424330a461a7083
:104608003b6a01333b623b6a0a2becd997f82630a8
:1046180043f02003d9b27a683b6a134424330a462c
:104628001a7000236be17a696ff0004313445b0052
:104638003a6913441b88bb84bb8c202b02d0bb8ceb
:104648002e2b06d17b69013b7b617b69002bead16c
:1046580000e000bf7b695b003a69134400221a80be
:104668007b69002b01d1062349e10023bb6102e0ed
:10467800bb690133bb61bb695b003a6913441b88a2
:10468800202bf5d0bb69002b06d1bb695b003a69ca
:1046980013441b882e2b09d197f8263043f00303c7
:1046a80087f8263002e07b69013b7b617b69002b40
:1046b80009d07a696ff0004313445b003a691344e8
:1046c8001b882e2befd17b6824330b222021184620
:1046d80010f090f8002387f8273000233b62082366
:1046e800fb61bb695a1cba615b003a6913441b88b9
:1046f800bb84bb8c002b00f0b880bb8c202b06d071
:10470800bb8c2e2b0ad1ba697b699a4206d097f8de
:10471800263043f0030387f82630a5e03a6afb69a0
:104728009a4203d2ba697b699a4224d1fb690b2b5e
:1047380006d197f8263043f0030387f8263097e030
:10474800ba697b699a4205d097f8263043f003038b
:1047580087f82630ba697b699a4200f288807b69bb
:10476800bb6108233b620b23fb6197f827309b0052
:1047780087f8273078e0bb8c7f2b18d997f826303c
:1047880043f0020387f82630bb8c40f2b511184677
:104798000df03af80346bb84bb8c03f08003002b72
:1047a80005d0bb8c03f07f030b4ad35cbb84bb8c66
:1047b800ff2b20d9fb695a1e3b6a9a420ed897f8fc
:1047c800263043f0030387f82630fb693b624be051
:1047d800dc2e4100feffff7f080f41003b6a5a1c98
:1047e8003a62ba8c120a92b2d1b27a6813440a4673
:1047f80083f824202ee0bb8c002b07d0bb8c1946f5
:1048080041480ff0eefe0346002b08d05f23bb841f
:1048180097f8263043f0030387f826301ae0bb8c5c
:10482800402b08d9bb8c5a2b05d897f8273043f072
:10483800020387f82730bb8c602b0bd9bb8c7a2bf3
:1048480008d897f8273043f0010387f82730bb8c46
:10485800203bbb843b6a5a1c3a62ba8cd1b27a6854
:1048680013440a4683f824203be700bf00e000bf5a
:104878007b6893f82430e52b03d17b68052283f805
:104888002420fb69082b04d197f827309b0087f870
:10489800273097f8273003f00c030c2b05d097f836
:1048a800273003f00303032b05d197f8263043f094
:1048b800020387f8263097f8263003f00203002b0e
:1048c80017d197f8273003f00103002b05d097f88c
:1048d800263043f0100387f8263097f8273003f086
:1048e8000403002b05d097f8263043f0080387f817
:1048f80026307b6897f8262083f82f200023184657
:0c4908002837bd4680bd00bfe82e4100ee
:020000040000fa
:020000040040ba
:1049140080b590b000aff860b9601346fb71bb6816
:1049240000221a60f8680bf059fdf862fb6a002b4c
:1049340001da0b23f1e1a94afb6a52f82330bb6286
:10494400bb6a002b01d10c23e7e1bb68ba6a1a6089
:10495400fb7923f00103fb71bb6a1b78002b1ad08f
:10496400bb6a5b78184611f02ffa034687f82730a4
:1049740097f8273003f00103002b0cd1fb79002baf
:1049840007d097f8273003f00403002b01d00a2343
:10499400c3e10023c1e1bb6a00221a70904afb6a9a
:1049a40012f81320bb6a5a70bb6a5b78184610f081
:1049b40019ff034687f8273097f8273003f00103df
:1049c400002b01d00323a8e1fb79002b07d097f833
:1049d400273003f00403002b01d00a239de1804a11
:1049e400fb6a5b0013445b781946b86a09f004fa61
:1049f40038633b6b042b01d101238ee13b6b012b0c
:104a040001d90d2389e1bb6a5b6b3b62bb6a40330e
:104a14000b3318460ff0d4ff0346b3f5007f01d0e3
:104a24000d237ae1bb6a4033163318460ff0c8fff2
:104a34000346bb63bb6b002b06d1bb6a40332433f4
:104a440018460ef0c3feb863bb6aba6b1a62bb6a3f
:104a540093f85020bb6a9a70bb6a9b78012b05d0ef
:104a6400bb6a9b78022b01d00d2356e1bb6a9b786d
:104a74001a46bb6b02fb03f3bb63bb6a93f84d306e
:104a84009ab2bb6a5a81bb6a5b89002b08d0bb6aa5
:104a94005b891a46bb6a5b89013b1340002b01d03a
:104aa4000d233ae1bb6a4033113318460ff088fff7
:104ab40003461a46bb6a1a81bb6a1b8903f00f03bb
:104ac4009bb2002b01d00d2327e1bb6a4033133383
:104ad40018460ff075ff0346fb63fb6b002b06d1f2
:104ae400bb6a4033203318460ef070fef863bb6a8d
:104af40040330e3318460ff063ff0346fb83fb8bf2
:104b0400002b01d10d2308e1fa8bbb6b1344ba6a65
:104b14001289120992b21344bb61fa6bbb699a42bf
:104b240001d20d23f9e0fa6bbb69d31aba6a528930
:104b3400b3fbf2f37b617b69002b01d10d23ece025
:104b440000233b637b69274a934201d803233b63d9
:104b54007b694ff6f572934201d802233b637b696c
:104b640040f6f572934201d801233b633b6b002b63
:104b740001d10d23d1e07b699a1cbb6ada61bb6a5f
:104b84003a6a5a62fa8b3b6a1a44bb6a9a623a6a74
:104b9400bb691a44bb6a1a633b6b032b24d1bb6aff
:104ba40040332a3318460ff00bff0346002b01d085
:104bb4000d23b2e0bb6a1b89002b01d00d23ace0ae
:104bc400bb6a40332c3318460ef000fe0246bb6a23
:104bd400da62bb6adb699b007b6324e09472402049
:104be40088104020f5ffff0fbb6a1b89002b01d101
:104bf4000d2392e0bb6a9a6abb6b1a44bb6ada6201
:104c04003b6b022b03d1bb6adb695b000ae0bb6a26
:104c1400da6913465b0013445a08bb6adb6903f084
:104c2400010313447b63bb6a1a6a7b6b03f2ff13b1
:104c34005b0a9a4201d20d236fe0bb6a4ff0ff3248
:104c44005a61bb6a5a69bb6a1a61bb6a80221a71cb
:104c54003b6b032b49d1bb6a4033303318460ff00a
:104c6400affe0346012b40d13b6a01331946b86ab3
:104c74000df07bff0346002b37d1bb6a00221a716b
:104c8400bb6a403303f5ff7318460ff099fe0346e1
:104c94001a464af655239a4227d1bb6a403318462e
:104ca4000ef094fd02461f4b9a421ed1bb6a40335c
:104cb40003f5f27318460ef089fd02461a4b9a4228
:104cc40013d1bb6a403303f5f47318460ef07efd2e
:104cd4000246bb6a5a61bb6a403303f5f673184651
:104ce4000ef074fd0246bb6a1a613b6bdab2bb6a12
:104cf4001a700e4b1b8801339ab20c4b1a800b4b63
:104d04001a88bb6ada80bb6a094ada60bb6a002285
:104d14009a61b86a0ef05efc002318464037bd461f
:104d240080bd00bf52526141727241618e72402057
:044d34006067402054
:020000040000fa
:020000040040ba
:104d380053544152540000bf0d0a44656275672000
:104d48005541525420506f727420697320776f72e6
:104d58006b696e672046696e650d0a004c454454c0
:104d680045535400434f4e4649524d204c4544311b
:104d7800204f4e0d0a0000bf4c4544314f4b0000f8
:104d88004c4544314e4f4b00434f4e4649524d20ff
:104d98004c454432204f4e0d0a0000bf4c4544326a
:104da8004f4b00004c4544324e4f4b00434f4e464c
:104db80049524d204c454433204f4e0d0a0000bf48
:104dc8004c4544334f4b00004c4544334e4f4b0049
:104dd800434f4e4649524d204c454434204f4e0dca
:104de8000a0000bf4c4544344f4b00004c45443446
:104df8004e4f4b004d4f564520544f204e4558546a
:104e080020544553540d0a004c494d4954205357da
:104e18004954434820544553540000bf4c494d4918
:104e28005420535749544348204f4b0d0a0000bfa4
:104e38004c494d495420535749544348204e4f4bf1
:104e48000d0a000050524f58494d495459205345b6
:104e58004e534f5220544553540000bf50524f58a0
:104e6800494d4954592053454e534f52204f4b0ded
:104e78000a0000bf50524f58494d495459205345d4
:104e88004e534f52204e4f4b0d0a0000534146459a
:104e980054592053454e534f522054455354000003
:104ea8005341464554592053454e534f52204f4b7a
:104eb8000d0a00005341464554592053454e534f5f
:104ec80052204e4f4b0d0a0054454d502053454e2d
:104ed800534f522054455354000000bf4d4f544f78
:104ee8005231204f4e0000bf436865636b0d0a00c6
:104ef8004d4f544f5231204f464600004d4f544fae
:104f08005232204f4e0000bf436865636b0d0a2084
:104f1800000000bf4d4f544f5232204f464600000c
:104f28004d4f544f5233204f4e0000bf4d4f544ffa
:104f38005233204f46460000464c415348204d45c9
:104f48004d4f525920544553540000bf456e746567
:104f58007220616e7920537472696e6720666f7271
:104f6800205245414420616e642057524954450df2
:104f78000a0000bf7b230000237d0000464c4153fc
:104f880048205245414420535452494e473a000064
:104f98000d0a2000464c415348204f4b000000bfeb
:104fa800464c415348204e4f4b0000bf53442043ca
:104fb8004152442054455354000000bf7b24000054
:104fc800247d000053442d434152442057524954f4
:104fd8004520434f4d504c455445000053442d4304
:104fe800415244204f4b000053442d43415244202a
:104ff8004e4f4b0046414e2d42555a5a45522d4769
:1050080050494f2054455354000000bf434f4e466b
:1050180049524d2042555a5a45522050494e0d0a80
:10502800000000bf42555a5a4552204f4b0000bf5e
:1050380042555a5a4552204e4f4b0000434f4e4658
:1050480049524d2046414e2050494e0d0a0000bf9e
:1050580046414e204f4b000046414e204e4f4b00dc
:10506800434f4e4649524d204750494f2050494ed4
:105078000d0a00004750494f204f4b004750494ff9
:10508800204e4f4b000000bf424d532054454d5019
:1050980020544553540000bf25660000424d53205c
:1050a80054454d502072656164732d004465670d49
:1050b8000a0000bf424d532052454c4159205445e7
:1050c80053540000434f4e4649524d20434f4e54cf
:1050d800524f4c2050494e0d0a0000bf4d432d4100
:1050e8002072656164732d004465672c200000bf41
:1050f8004d432d422072656164732d004d432d434d
:105108002072656164732d004465670d0a200000f4
:020000040000fa
:020000040040ba
:1051180090b583b002afb84b00221a700a22002162
:10512800b64810f067ff02230093b44b0122b2493e
:1051380049200df005fc00bf10f05ef90346002b76
:10514800fad10a2010f0b9faac4b1b785bb2dbb28b
:10515800db09dbb21a46aa4b1a70a84b1b7803f07e
:105168007f03dab2a74b1a70a44b5b7823f00f03c6
:10517800dab2a54b1a70a44b1b781b09dab2a24b02
:105188001a70a14b1b7807ee903ab8eee77b9fedbb
:10519800986b27ee067bf7eec77b9c4bc3ed007a36
:1051a800984b1b7807ee903ab8eee77a974bd3ed19
:1051b800007a77ee277a954bc3ed007a904b1b78ef
:1051c800012b05d1914bd3ed007af1ee677a02e01d
:1051d8008e4bd3ed007a8d4bc3ed007a8b4bd3ed1c
:1051e800007ab7eee77a53ec172b894989480ef015
:1051f800e8fcc8220021884810f0fcfe864a874b4c
:10520800144607cb20606160a260824810f002ff5c
:1052180003461a467f49804810f056f87e4810f039
:10522800f9fe03461a467c4b13447d4a1068186001
:1052380092889a80022300937a4b01226e494a2071
:105248000df07efb00bf10f0d7f80346002bfad113
:105258000a2010f032fa694b9b785bb2dbb2db09ab
:10526800dbb21a46704b1a70644b9b7803f07f03cd
:10527800dab26e4b1a70614bdb7823f00f03dab2a7
:105288006b4b1a706a4b1b781b09dab2684b1a70a1
:10529800674b1b7807ee903ab8eee77b9fed546baf
:1052a80027ee067bf7eec77b624bc3ed007a5f4bb8
:1052b8001b7807ee903ab8eee77a5e4bd3ed007aaa
:1052c80077ee277a5b4bc3ed007a574b1b78012b9f
:1052d80005d1584bd3ed007af1ee677a02e0554bd1
:1052e800d3ed007a534bc3ed007a524bd3ed007add
:1052f800b7eee77a53ec172b45494f480ef061fc9f
:10530800454810f087fe03461a46434b13444b4a60
:105318001c46134607cb20606160a260464810f027
:1053280079fe03461a4644493b480ff0cdff3a48f8
:1053380010f070fe03461a46374b1344384a10687b
:10534800186092889a80022300933d4b01222a49d3
:105358004b200df0f5fa00bf10f04ef80346002b75
:10536800fad10a2010f0a9f9244b1b795bb2dbb201
:10537800db09dbb21a46334b1a70204b1b7903f05a
:105388007f03dab2304b1a701c4b5b7923f00f03a2
:10539800dab22e4b1a702d4b1b781b09dab22b4b45
:1053a8001a702a4b1b7807ee903ab8eee77b9fed10
:1053b800106b27ee067bf7eec77b254bc3ed007a13
:1053c800214b1b7807ee903ab8eee77a204bd3ede5
:1053d800007a77ee277a1e4bc3ed007a194b1b78bb
:1053e800012b37d11a4bd3ed007af1ee677a34e00e
:1053f800000000000000b03fd803402020094020f2
:10540800c5034020d600402016074020d003402086
:10541800a05040002c0b40200c004020e4504000dd
:10542800f050400022094020d50040202a094020a1
:10543800150740201c0940200c054020f85040006a
:1054480024094020c4034020d40040200900402003
:10545800c80340201e4bd3ed007a1d4bc3ed007ae4
:105468001b4bd3ed007ab7eee77a53ec172b1949ab
:1054780019480ef0a6fb194810f0ccfd03461a4651
:10548800164b1344164a1c46134607cb206061602e
:10549800a260114810f0befd03461a460e490f4897
:1054a8000ff012ff0d4810f0b5fd03461a460b4bde
:1054b80013440c4a106818609188927999809a71ff
:1054c800094b02221a7000bf0437bd4690bd00bfc9
:1054d800c8034020a0504000180740200c0040207e
:0c54e80004514000105140001407402007
:020000040000fa
:020000040040ba
:1054f40080b59ab000aff860b9601346fb71fb68e1
:10550400002b01d10923aae1fb7903f03f03fb71ce
:10551400fa7907f1140107f108031846fff7f8f9bf
:10552400034687f8673097f86730002b40f08e8188
:105534007b69bb61ba6807f118031146184606f087
:1055440005fa034687f8673097f86730002b1ad1bd
:1055540097f847305bb2002b03da062387f86730ed
:1055640011e0fb7923f00103002b14bf0123002376
:10557400dbb21a4607f118031146184609f0b4facb
:10558400034687f86730fb7903f01c03002b7fd0b8
:1055940097f86730002b17d097f86730042b0ed19b
:1055a4000ef06afa0346002b06d007f118031846da
:1055b40002f0e8fe034600e0122387f86730fb7927
:1055c40043f00803fb7110e0bb7f03f01103002bd1
:1055d40003d0072387f8673007e0fb7903f004035f
:1055e400002b02d0082387f8673097f86730002b28
:1055f40068d1fb7903f00803002b63d00df014fd90
:10560400b865bb6b0e33b96d18460df061fbbb6b0f
:105614001633b96d18460df05bfb7b69ba6b114606
:1056240018460ef0aefc7865bb6b0b3320221a7063
:105634007b69b96b002218460ef0e6fbbb6b1c338a
:10564400002118460df044fb7b690122da707b6d62
:10565400002b37d07b695b6b3b6507f11803002295
:10566400796d184608f0fcfc034687f8673097f814
:105674006730002b26d17b69396d18460df075fa19
:10568400034687f867307b697a6d013a1a6119e03d
:1056940097f86730002b15d1bb7f03f01003002b64
:1056a40003d0042387f867300ce0fb7903f002038e
:1056b400002b07d0bb7f03f00103002b02d007238c
:1056c40087f8673097f86730002b28d1fb7903f00f
:1056d4000803002b03d0fb7943f04003fb717b6983
:1056e4005a6bfb685a62ba6bfb689a62fb7923f0c7
:1056f4000103002b14bf01230023dbb21a4607f178
:1057040018031146184606f093f80246fb681a611e
:10571400fb681b69002b02d1022387f8673097f8d6
:105724006730002b40f092807b69ba6b11461846b3
:105734000ef027fc0246fb689a60bb6b1c331846cc
:105744000ef044f80246fb68da607a69fb681a6076
:105754007b69da88fb689a80fb68fa791a75fb68ba
:1057640000225a75fb6800221a62fb6800229a61c3
:10577400fb6840334ff40072002118460ff03cf8e8
:10578400fb7903f02003002b60d0fb68db68002b5f
:105794005cd0fb68da68fb689a617b695b895b02b1
:1057a400fb64fb689b683b66fb68db68fb6516e093
:1057b400fb68396e184605f024fa38663b6e012bf7
:1057c40002d8022387f867303b6eb3f1ff3f02d162
:1057d400012387f86730fa6dfb6cd31afb6597f8e1
:1057e4006730002b03d1fa6dfb6c9a42e0d8fb685a
:1057f4003a6eda6197f86730002b27d1fb6dc3f35b
:105804000803002b22d07b69396e18460ef09afbf0
:1058140038653b6d002b03d1022387f8673015e010
:10582400fb6d5a0a3b6d1a44fb681a627b6958780f
:10583400fb6803f14001fb681a6a012304f06efe61
:105844000346002b02d0012387f8673097f86730ae
:10585400002b02d0fb6800221a6097f867301846c4
:065864006837bd4680bd5f
:020000040000fa
:020000040040ba
:02586a00fee757
:020000040000fa
:020000040040ba
:10586c0080b594b000aff860b9603b601346fb7133
:10587c004ff0ff33fb640023bb64002387f84730f1
:10588c00002387f84630002387f83f30002387f841
:10589c00453000233b64fb68002b08d0bb68002b11
:1058ac0005d0fb79012b08d0fb79022b05d0a34b3b
:1058bc0013221a704ff0ff333ce1f86809f032fb09
:1058cc00034683f00103dbb2002b05d09b4b032274
:1058dc001a704ff0ff332de1984b00221a70002301
:1058ec0087f847300ce097f84730954a12f8333078
:1058fc00fa799a4209d097f84730013387f8473044
:10590c0097f84730012beed100e000bf97f84730f5
:10591c00002b05d0894b15221a704ff0ff3309e18b
:10592c0007f114031946f8680af070fe034687f86d
:10593c00453097f8453083f00103dbb2002b05d0de
:10594c007e4b01221a704ff0ff33f3e03b7efa7965
:10595c009a4208d03b7e002b05d0784b16221a7049
:10596c004ff0ff33e6e0774bbb634ff6ff73fb86dc
:10597c00bb6b1b78012b04d1bb6b00221a7001236b
:10598c0000e0002387f83f3097f93f30012b05d01a
:10599c006a4b07221a704ff0ff33cbe0002387f8d5
:1059ac004530002387f8463015e097f846301b0148
:1059bc00654a1344bb64bb6c1b7883f00103dbb2f8
:1059cc00002b03d0012387f8453008e097f84630c8
:1059dc00013387f8463097f84630012be5d197f81c
