:10000000E868FF1F91FC010003BC000063D80000FA
:1000100027D9000097DC0000DBDC000000000000B6
:100020000000000000000000000000001FDD0000D4
:10003000F7DD00000000000027E50000A3E7000056
:10004000E5FF0100EDFF0100F5FF0100FDFF0100EC
:10005000050002000D000200150002001D00020054
:10006000250002002D000200350002003D000200C4
:10007000450002004D000200550002005D00020034
:100080006500020025010200250102002501020091
:1000900025010200250102002501020025010200C0
:1000A0006D000200750002007D0002008500020064
:1000B0008D00020095000200250102009D00020053
:1000C000A500020021320100AD0002002D28010030
:1000D000B500020013DE0000BD0002000F080100A1
:1000E0002501020025010200250102005D37010003
:1000F0002501020025010200250102007D98000073
:10010000250102002501020025010200250102004F
:10011000250102002501020025010200250102003F
:100120002501020025010200FB0C01004D2E0100FB
:1001300025010200872E0100250102002501020091
:1001400025010200C5000200D1CC0100CD00020053
:1001500011340100D5000200250102002501020032
:100160002501020027080100DD000200E500020071
:10017000ED000200F5000200FD0002000501020092
:100180000D010200150102002501020025010200F7
:1001900025010200250102002501020025010200BF
:1001A00025010200250102002501020025010200AF
:1001B000250102002501020025010200250102009F
:1001C000250102002501020025010200250102008F
:1003F000250102002501020025010200FFFFFFFF89
:10040000FFFFFFFFFFFFFFFFFFFFFFFFFEFFFFFFFD
:10041000DFF8B02DC2E900017047DFF8A80DD0E980
:100420000001704710B504460FF2D000C046C04628
:100430002046C046C046022010BD2DE9F8410446C2
:1004400083B00FF2B800C046C0462046C046C04642
:1004500002232C2201A9204606F086FF0646DFF87B
:10046000D00CC046C0460025012E0CDB0DF104085F
:100470003446BBA758F8040BC046C0463846C046B1
:10048000C046641EF6D1022E30D1019B187848B1C7
:100490000A220021184607F0B5F8044607F0B4F820
:1004A00060B100949DF8000010B101280AD010E05E
:1004B0000A2008F0ADFE0021002008E00425DFF846
:1004C0009C0D10E0092008F0A3FE0021012008F097
:1004D0005DFD0FF24000C046C0469DF80000C046DA
:1004E000C0460FF24800C046C04604E00FF2540078
:1004F000C046C046032504F023BE00000D0A496E25
:100500002050726F636573735365744D6F64652D0E
:100510003E0000000A20536574204D6F646520532F
:10052000657456616C7565203A2000000D0A302D07
:100530003E4155544F2C20312D3E4D414E55414C9E
:10054000000000000A20536574204D6F646520533D
:10055000657456616C75652F7320496E76616C69A0
:10056000640000002DE9F0470446DFF85CAC84B07D
:100570005046C046C0462046C046C04603232C22F3
:1005800001A9204606F0F0FE0546DFF8A40BC046A0
:10059000C0460027002D0DDD0DF104082C460FF29A
:1005A000C01958F8040BC046C0464846C046C0466D
:1005B000641EF6D108F00CFF0446DFF8A40C0078A6
:1005C000B946B84602E054F82010884454F8202078
:1005D000401E9144F7D5042D6ADA019B187860B16A
:1005E0000A220021184607F00DF8054607F00EF81C
:1005F00008B1009501E0002500E0012501AE70681A
:1006000008F09CFF9DF80010062910D1E169814295
:100610000CD37068DFF8EC2CDFF8741D05F078FD62
:1006200005406D1EAD41ED43ED0F00E0002508F0E3
:10063000CBFE044608F0CEFE1DB904270AF12400C3
:1006400033E02168022938D09DF80010491E0529A1
:1006500021D8DFE801F0030507090B0D022011E0A6
:1006600003200FE004200DE005200BE0062009E048
:10067000006830B9DFF8181D0888814508DB80451F
:1006800006DA0C2008F0C4FD002008F0F3FC02E0BC
:100690001B2007F03BF80FF22800C046C0469DF82B
:1006A0000000C046C0460AF14C00C046C04604E007
:1006B0000AF19000C046C04603273846AEE300006A
:1006C0000A204D616E75616C204D6F646520536525
:1006D0007456616C7565203A200000002DE9F84FD2
:1006E0000646A6B00FF27C00C046C0463046C04663
:1006F000C04607F02AF8044608F038FF94E88E5107
:10070000054606A880E88E5106A9304601F044FC53
:10071000060020D106A890E88E5184E88E510DF194
:10072000180999E88F0C85E88F0C2568DFF8CC2D27
:100730000595A06904906069039021690291E068C1
:1007400001900DA8A16800916421636808F0CAFFB8
:100750000DA8C046C046304627B0BDE8F08F000067
:100760002C0000000D0A496E2050726F6365737390
:100770005365744D6F746F7250574D4D616E756156
:100780006C2D3E00F8B50546A6B00FF26400C046D9
:10079000C0462846C046C04608F0EAFE044694E833
:1007A000CE5006A880E8CE5006A9284601F0F4FBFA
:1007B000050019D106A890E8CE5084E8CE500591E6
:1007C000A069DFF83C2D04906069039021690291D3
:1007D000E06801900DA8A16800916421636808F0A9
:1007E00081FF0DA8C046C046284627B0F0BD0000D6
:1007F0000D0A496E2050726F636573735365744DB3
:100800006F746F7250574D4175746F2D3E0000002C
:100810002DE9F0430446DFF8488C83B04046C046DB
:10082000C0462046C046C04602232C2201A92046CD
:1008300006F09AFD074608F12400C046C046002590
:10084000012F0CDB01AE3C460FF2143956F8040BB5
:10085000C046C0464846C046C046641EF6D1022F78
:100860003BD1019808F060FF042836D10198027846
:10087000417802EB820301EB4301A1F11004E4B2E1
:100880008278C1780FF2600002EB820301EB430132
:10089000A1F11007C046C0462046C046C0460FF230
:1008A0005400C046C046FFB23846C046C046182C69
:1008B000B8BF3C2F0BDA8DF800408DF8017008F0BE
:1008C0004FFF684608F052FF0FF2340002E00425A3
:1008D00008F14C00C046C04604E00FF24000C0469C
:1008E000C04603252FE200000D0A486F75722D2DBA
:1008F0003E0000000D0A4D696E7574652D2D3E0099
:100900000A204175746F2074696D652053657456B3
:10091000616C75652F732053657400000A20417562
:10092000746F2074696D652053657456616C7565CC
:100930002F7320496E76616C696400002DE9FE43D7
:100940000446DFF8C00BC046C0462046C046C0463D
:100950000FF29C00C046C0462046C046C046022357
:100960002C226946204606F0FFFC0746DFF8C00748
:10097000C046C0460026012F0CDBE8463C460FF27D
:10098000E01958F8040BC046C0464846C046C04669
:10099000641EF6D1022F24D1009B187860B10A2280
:1009A0000021184606F02EFE451EAD41ED43ED0F29
:1009B000284606F048FE70B10FF24C00C046C04613
:1009C0000FF25400C046C046E8B2C046C04608F028
:1009D0002AFF05700AE00FF25C00C046C0460426FC
:1009E00004E00FF27000C046C04603263046ABE17B
:1009F0000D0A496E2050726F6365737353657453AB
:100A0000746174652D3E00000A204D6F64652053AB
:100A1000657456616C7565000D0A456467652073E1
:100A2000656E736F722073746174652073657420D2
:100A3000617320000A204D6F646520536574566110
:100A40006C75652F73204F7574206F662052616E30
:100A5000676500000A204D6F646520536574566118
:100A60006C75652F7320496E76616C6964000000B7
:100A70002DE9F841044695B00FF2E800C046C046A3
:100A80002046C046C04607232C2204A9204606F073
:100A90006BFC0646DFF8600CC046C0460025012E00
:100AA0000CDB0DF1100834462DA758F8040BC04696
:100AB000C0463846C046C046641EF6D104ACA068A5
:100AC00008F03CFDADF80000606808F037FD8DF8D7
:100AD0000200049808F032FD8DF80300079808F032
:100AE0002DFD8DF80400089808F028FD8DF805000C
:100AF000099808F023FD8DF80600684608F0DAFF33
:100B0000072E23D1DFF8F41BDFF8F42D09189142EA
:100B100016D202A908F0B6FF28220BA902A808F0F5
:100B20009BFF0BA8C046C04602A808F00DFF68B1A5
:100B300008F016FE082009F0D5F90FF2440002E093
:100B400004250FF25400C046C04604E00FF26800CE
:100B5000C046C0460325284616B0BDE8F081000017
:100B60002C0000000D0A496E2050726F636573738C
:100B700053657452544356616C75652D3E000000F8
:100B80000A205254432053657456616C75652F7367
:100B900020536574000000000A205254432053651E
:100BA0007456616C75652F73204F7574206F6620C5
:100BB00052616E67650000000A20525443202053A2
:100BC000657456616C75652F7320496E76616C692A
:100BD000640000002DE9F843044684B00FF2A4003D
:100BE000DFF81C7BC046C0462046C046C0460423F2
:100BF0002C226946204606F0B7FB06463846C0461A
:100C0000C0460025012E0CDBE84634460FF24019A1
:100C100058F8040BC046C0464846C046C046641E4D
:100C2000F6D1042E26D109F014FA0446009808F0F3
:100C30007BFD20B1009A0B21204608F053FD019F57
:100C4000384608F071FD28B13A460B2104F10B003B
:100C500008F048FD029E304608F066FD28B1324695
:100C60000B2104F1160008F03DFD0FF23400C046E0
:100C7000C04604E007F12400C046C04603252846CC
:100C800004F044B90D0A496E2050726F63657373A6
:100C9000536574446576696365496E666F2D3E00E1
:100CA0000A2044657669636520496E666F20536546
:100CB0007456616C75652F732053657400000000D5
:100CC0002DE9FE4304460FF28C00DFF8389CC04645
:100CD000C0462046C046C04602232C226946204614
:100CE00006F042FB06464846C046C0460025012E97
:100CF0000BDBE846344616A758F8040BC046C0463E
:100D00003846C046C046641EF6D1022E16D109F1FF
:100D10002400C046C04600981022002106F072FC54
:100D2000C046C04609F04AF9044609F00BF908F03C
:100D300047FF44B1082009F0D2F804E009F1480067
:100D4000C046C0460325284603B0BDE8F083000036
:100D50002C0000000D0A496E2050726F636573739A
:100D6000436C6561724572726F72436F6465732D77
:100D70003E0000002DE9F847044683B00FF2A400BE
:100D8000DFF8F08BC046C0462046C046C04608F09B
:100D900020FF0646022330788DF800002C2201A99E
:100DA000204606F0E1FA07464046C046C046002508
:100DB000012F0DDB0DF104093C460FF2EC2A59F826
:100DC000040BC046C0465046C046C046641EF6D11D
:100DD000022F1DD1019B187848B10A220021184624
:100DE00006F010FC044606F020FC58B100949DF873
:100DF000000030700FF24800C046C0463078C04650
:100E0000C0460AE008F12400C046C046042504E0BC
:100E100008F14C00C046C0460325284604B0BDE892
:100E2000F08700000D0A496E2050726F636573737E
:100E30005365744C6F77426174536F432D3E0000CD
:100E40000A204C6F772042617420536F4320536512
:100E50007456616C75652F73205365740000000033
:100E60002DE9F04F044683B0DFF8B40BDFF8B48B04
:100E7000C046C0462046C046C04609F0B5FA064600
:100E80003768D6F8049003232C226946204606F0E2
:100E90006BFA82464046C046C0460025BAF1010FB3
:100EA0000ADBEB4654465BF8040BC046C0467EA006
:100EB000C046C046641EF6D1BAF1030F37D1009B7D
:100EC000187860B10A220021184606F09BFB044600
:100ED0000120C04608B1A14601E0002400E0012441
:100EE000019B187848B10A220021184606F08AFBB7
:100EF00082460120C04608B157460120044205D170
:100F000008F12400C046C046042515E0DFF8E40BD4
:100F1000C046C0463760C6F804904846C046C04642
:100F2000CDA0C046C0463068C046C04604E008F1C7
:100F30004C00C046C046032505F0A8BA70B5DFF8DE
:100F4000B84B002020700121217086B009F0F8FF15
:100F50001122ADF800206B4601AA06F0CFFA42F24A
:100F60000F76FF23DFF8702C3146601C08F0BAFBC7
:100F7000451CA9B2761B022060546D1C761BB1B2D1
:100F8000AEB241F21703DFF8542CA01908F0AAFB07
:100F90004519A9B2032060546D1C0AF001FD30E22E
:100FA00070B5DFF8544B002020700121217086B00D
:100FB00009F0C6FF1122ADF800206B4601AA06F029
:100FC0009DFA42F20F76FF23DFF80C2C3146601CAD
:100FD00008F088FB451CA9B2761B022060546D1CEA
:100FE000761BB1B2AEB241F21803DFF8F02BA019B4
:100FF00008F078FB4519A9B2032060546D1C08F075
:10100000C7FF034642F21071491BA8B20FF2040257
:10101000FDE10000253030305800000070B5DFF8E9
:10102000D84A002020700121217086B009F088FF85
:101030001122ADF800206B4601AA06F05FFA42F2D9
:101040000F76FF23DFF8902B3146601C08F04AFB37
:10105000451CA9B2761B022060546D1C761BB1B2F0
:10106000AEB241F21903DFF8742BA01908F03AFB75
:101070004519A9B2032060546D1C08F0EAFF0FF275
:101080002C01029100F10B03009300F11602019272
:10109000034642F21071491BA8B2DFF8E02D89B275
:1010A000204408F01FFBB6E12C00000046563A33FE
:1010B0002E302E350000000070B5DFF83C4A0020CD
:1010C00020700121217086B009F03AFF1122ADF89D
:1010D00000206B4601AA06F011FA42F20F76FF23B8
:1010E000DFF8F42A3146601C08F0FCFA451CA9B26E
:1010F000761B022060546D1C761BB1B2AEB241F279
:101100000103DFF8D82AA01908F0ECFA4519A9B2B2
:10111000032060546D1C07F020FF42F21076761B0E
:10112000002300B10123A8B2CCA2B1B270E100004B
:10113000A85C000070B5DFF8C049002020700121D4
:10114000217086B009F0FCFE1122ADF800206B463C
:1011500001AA06F0D3F942F20F76FF23DFF8782ACE
:101160003146601C08F0BEFA451CA9B2761B02206D
:1011700060546D1C761BB1B2AEB241F20303DFF8CE
:101180005C2AA01908F0AEFA4519A9B203206054F0
:101190006D1C07F0F0FE42F21076761B401E03280D
:1011A0000BD8DFE800F002040608012306E0022362
:1011B00004E0032302E0042300E00523A8B2A7A271
:1011C000B1B225E190BA002060E5010070B5DFF80A
:1011D0002849002020700121217086B009F0B0FE5E
:1011E0001122ADF800206B4601AA06F087F942F201
:1011F0000F76FF23DFF8E0293146601C08F072FA11
:10120000451CA9B2761B022060546D1C761BB1B23E
:10121000AEB241F20403DFF8C429A01908F062FA63
:101220004519A9B2032060546D1C06F08EFA0168BE
:10123000039142690292C168019142F21071826881
:101240000092491B43680FF21C02A8B289B22044E5
:1012500008F048FADFE00000202C0000B4DE0100B6
:101260009ABA002025642C25642C256C642C256CEE
:10127000642C25640000000070B5DFF87C48002075
:1012800020700121217086B009F05AFE1122ADF8BC
:1012900000206B4601AA06F031F942F20F76FF23D7
:1012A000DFF834293146601C08F01CFA451CA9B24D
:1012B000761B022060546D1C761BB1B2AEB241F2B7
:1012C0000903DFF81829A01908F00CFA4519A9B28A
:1012D000032060546D1C08F04BF9016803914269CA
:1012E0000292C168019142F2107182680092491B1A
:1012F0004368DFF8A02DA8B289B2204408F0F2F9C3
:1013000089E000001776000070B5DFF8EC47002098
:1013100020700121217086B009F012FE1122ADF873
:1013200000206B4601AA06F0E9F842F20F76FF238F
:10133000DFF8A4283146601C08F0D4F9451CA9B296
:10134000761B022060546D1C761BB1B2AEB241F226
:101350000B03DFF88828A01908F0C4F94519A9B2D1
:10136000032060546D1C08F0FFF9DFF82C1D0A788B
:10137000019242F2107143780FF218020093491B58
:101380000378A8B289B2204408F0ACF943E0000029
:1013900074BB002025303264253032642C25640073
:1013A00070B5DFF85447002020700121217086B00D
:1013B00009F0C6FD1122ADF800206B4601AA06F027
:1013C0009DF842F20F76FF23DFF80C283146601CAF
:1013D00008F088F9451CA9B2761B022060546D1CE8
:1013E000761BB1B2AEB241F20C03DFF8F027A019C0
:1013F00008F078F94519A9B2032060546D1C08F073
:1014000014FA034642F21071491BA8B213A289B222
:10141000204408F067F955FA80F5AAB20421A154D6
:101420006D1CDFF8680BC046C046A8B2C046C04677
:10143000DFF85C0BC046C046A9B22046C046C04695
:10144000DFF8500BC046C046A9B220460AF0F4FAB5
:1014500000F060FD002006B070BD000025640000B3
:10146000B0F0010070B5DFF8904600202070012137
:10147000217086B009F064FD1122ADF800206B46A2
:1014800001AA06F03BF842F20F76FF23DFF8482767
:101490003146601C08F026F9451CA9B2761B0220D3
:1014A00060546D1C761BB1B2AEB241F20D03DFF891
:1014B0002C27A01908F016F94519A9B20320605489
:1014C00008F0A6FA42F21072A6182821304608F059
:1014D000A3FA314620460AF0FFFA304608F024F914
:1014E00055FA80F50FF22000C046C0463046C0468F
:1014F000C0466D1CA9B20420605491E7B0F8010009
:1015000064F9010008FD01000D0A54696D652D2D77
:101510003E0000002DE9F84FDFF8DC450020207088
:101520000121217094B009F00BFD1122ADF80020CB
:101530006B4601AA05F0E2FF42F20F76FF23DFF8C7
:1015400098263146601C08F0CDF8451CA9B2761BE0
:10155000022060546D1C761BB1B2AEB241F20E0394
:10156000DFF87826A01908F0BDF84519AAB20321C2
:10157000A1546D1C42F210735B1BADF8283000279C
:1015800008F014FF0B9007F0E8FC10B1012804D01C
:1015900006E0DFF8040B067803E00127012600E0EF
:1015A000012706F0D8F8804607F008FFDFF8F09A28
:1015B0004068D9F80010B1FBF0F0C9F8040007F05A
:1015C00007FFB0E80C5C0CA9A1E80C5C0CC80CC1CE
:1015D000DFF8D0AA9AF8000030B9AAA001788AF8FA
:1015E000001041788AF80110DFF8BC1A08680B284F
:1015F00015DA0AF0CDFA83460AF0CAFADFF8A81A1B
:10160000139A0968DFF85C3CCDF820A0521A0992C1
:101610001A68079208EB810353F8042C2FE0A0F11D
:101620000B010A2914D20AF0B3FA83460AF0B0FA81
:10163000DFF8741A139A0968DFF8283CCDF820A067
:10164000521A09921A68079208EB81035A6A16E047
:10165000153805282ED20AF09BFA83460AF098FA2C
:10166000DFF8441A139A0968DFF8F83BCDF820A098
:10167000521A09921A68079208EB8103DA6CDFF8B4
:10168000E83B0591F6B2049606921E68D9F804105C
:10169000039601FB0BF102910190AEB20B98BDF8DD
:1016A0002810DFF8C82B00903B46A01908F01AF864
:1016B00055FA80F5A9B2042060546D1CDFF8CC08FF
:1016C000C046C046A8B2C046C046DFF8C408C046FF
:1016D000C046A9B22046C046C046DFF8B808C0469A
:1016E000C046A9B220460AF0A7F900F013FC00207A
:1016F00015B0BDE8F08F0000D4F0010080BC92C7A7
:1017000008F701002DE9F84FDFF8EC4300202070C6
:101710000121217098B009F013FC1122ADF80020CE
:101720006B4601AA05F0EAFE42F20F77FF23DFF8CD
:10173000A8243946601C07F0D5FF461CB1B2BF1B78
:1017400002206054761CBF1BB9B2B7B241F20F033E
:10175000DFF88824E01907F0C5FF8619B1B203202D
:101760006054761C08F05AFE8046022115A898EDB8
:10177000020A05F09BFD022112A898ED030A05F06C
:1017800095FD08F013FE804607F0E7FBDFF8081927
:10179000097842F21077BF1BA1F1010918B10128A5
:1017A00008BF012500E00D4607F012FEB0E80C5C12
:1017B0000AA9A1E80C5C0CC80CC107F0FFFDDFF81A
:1017C000E0A84068DAF80010DFF8DCB8B1FBF0F010
:1017D000CAF80400DBF800000B2806DBA0F10B01BF
:1017E0000A2924BF153805282AD208F0D1FB089011
:1017F0000AF16000DFF8702ADFF8741B13680968CB
:10180000079009930AF1380006900AF13002059218
:101810000AF108030AA80493EDB250F829200291B6
:10182000521ADBF8001003920191B0B200954346C2
:10183000DFF8402BB9B2204407F054FF56FA80F687
:10184000B2B20421A154761CDFF84007C046C0465E
:10185000B0B2C046C046DFF83807C046C046B1B295
:101860002046C046C046DFF82C07C046C046B1B28D
:1018700020460AF0E1F800F04DFB002019B0BDE869
:10188000F08F00003000000070B59B4C00202070ED
:101890000121217086B009F053FB1122ADF8002020
:1018A0006B4601AA05F02AFE42F20F76FF23CA4AD0
:1018B0003146601C07F016FF451CA9B2761B0220BA
:1018C00060546D1C761BB1B2AEB241F21403C34A30
:1018D000A01907F007FF4519A9B2032060546D1C39
:1018E00008F082FD0FF220020168009142F21071AF
:1018F0004368491BA8B289B2204407F0F3FE8AE589
:10190000801319BC20F1010025642C25640000001F
:1019100070B5794C002020700121217086B009F04B
:101920000FFB1122ADF800206B4601AA05F0E6FD81
:1019300042F20F76FF23A84A3146601C07F0D2FE20
:10194000451CA9B2761B022060546D1C761BB1B2F7
:10195000AEB241F21503A14AA01907F0C3FE451922
:10196000A9B2032060546D1C08F033F942F21071E3
:10197000037849E590F1010070B55F4C00202070BC
:101980000121217086B009F0DBFA1122ADF80020A8
:101990006B4601AA05F0B2FD42F20F76FF238E4A94
:1019A0003146601C07F09EFE451CA9B2761B022042
:1019B00060546D1C761BB1B2AEB241F22203DFF867
:1019C000202DA01907F08EFE4519A9B203206054FE
:1019D0006D1C05F0C2FE0188029142880192818847
:1019E0000FF21802009142F21071C388491BA8B28D
:1019F00089B2204407F076FE0DE5000025582558F1
:101A0000255825580000000010B56221DFF8D40CDD
:101A10000BF014F8002400B10524204610BD00008E
:101A2000F46C000000F2010070B5334C002020700F
:101A3000012121708CB009F083FA1122ADF8002049
:101A40006B4601AA05F05AFD42F20F76FF23624A67
:101A50003146601C07F046FE451CA9B2761B0220E9
:101A600060546D1C761BB1B2AEB241F21A035B4AF0
:101A7000A01907F037FE4519A9B2032060546D1C68
:101A800004A809F0BBFB0DF12A0003900DF127011A
:101A900002910DF12100019004AA009242F210710E
:101AA000491BA8B209AB0FF2540289B2204407F0D7
:101AB00019FE55FA80F5AAB20421A1546D1CDFF875
:101AC000CC04C046C046A8B2C046C046DFF8C00439
:101AD000C046C046A9B22046C046C046DFF8B4049E
:101AE000C046C046A9B2204609F0A6FF00F012FA8F
:101AF00004F04BBEAC710000284E002025732C254D
:101B0000732C25732C25732C2573000070B5DFF81A
:101B1000DC4B00202070012121708AB009F010FAFE
:101B20001122ADF800206B4601AA05F0E7FC42F255
:101B30000F76FF23284A3146601C07F0D3FD451C71
:101B4000A9B2761B022060546D1C761BB1B2AEB2F6
:101B500041F21B03214AA01907F0C4FD4519A9B29F
:101B6000032060546D1C03A809F0C0FB0DF1250093
:101B700002900DF1220101910DF11D00009042F241
:101B80001071491BAEB203AB0FF2540289B2A01917
:101B900007F0A8FD55FA80F5A9B2042060546D1C29
:101BA000DFF8E803C046C046A8B2C046C046DFF82A
:101BB000E003C046C046A9B22046C046C046DFF892
:101BC000D403C046C046A9B2204609F035FF00F054
:101BD000A1F900200AB070BD304A0000384A000068
:101BE00025732C25732C25732C2573002DE9F04FBC
:101BF000DFF8F85A00202870A5B009F03EFE012158
:101C000022A805F053FB09F063FE01211FA805F08F
:101C10004DFB09F04AFE01211CA805F047FB09F025
:101C2000A7FE012116A805F041FB11A809F07AFED4
:101C30009DF848009DED110A08B9B1EE400A012156
:101C400019A805F033FB0120287042F20F7609F045
:101C500077F91122ADF800206B4601AA05F04EFC81
:101C6000FF23DFF88C2A3146681C07F03BFD441C3B
:101C7000A1B2361B02206854641C361BB1B2A6B256
:101C800041F21C03DFF8582AA81907F02BFD0419AC
:101C9000A1B203206854641C09F0BCFD022113A802
:101CA00005F004FB07F0F3FA804642F2107607F0E5
:101CB00054F9361B002700B101270BF078FC814650
:101CC00008F066F9824607F0E5FA834609F054FF0A
:101CD000DFF8201ADFF8203A0A7810921968DFF846
:101CE0001C3A0F91DFF8181A0A680E921968DFF88B
:101CF000143A0D910B93DFF8101ADFF8103A0A68C6
:101D0000DFF80C1A0C920A9108933B46DFF8041A8C
:101D10000A68DFF8041A099207910190DFF8FC19AC
:101D2000DFF8EC2B06910592A0B2CDF81090CDF81B
:101D30000CA0CDF808B0CDF80080B1B2DFF8D42BFC
:101D4000284407F0CFFC54FA80F4A2B20421A9542D
:101D5000641C8E48C046C046A0B2C046C0468C48EF
:101D6000C046C046A1B22846C046C0468948C046C3
:101D7000C0460BF061FD012803D1A2B22946022022
:101D800004E00BF059FD18B9A2B2294609F076FE1D
:101D900000F0C0F8002001F0ADBD70B5DFF84C498F
:101DA0000021217090B000200BF05CFD022108A8FA
:101DB00005F07CFA01200BF055FD022105A805F085
:101DC00075FA09F0D5FD022102A805F06FFA01208D
:101DD000207042F20F7609F0B3F81122ADF800201E
:101DE0006B460BAA05F08AFBFF23DFF80429314676
:101DF000601C07F077FC451CA9B2761B02206054DA
:101E00006D1C761BB1B2AEB241F21D03DFF8D028D3
:101E1000A01907F067FC4519A9B20320605402AA73
:101E200005AB6D1C0192009342F21071491BA8B2E0
:101E300008AB0FF24C0289B2204407F053FC55FA6C
:101E400080F5AAB20421A1546D1C5048C046C0467A
:101E5000A8B2C046C0464E48C046C046A9B22046B9
:101E6000C046C0464B48C046C046A9B2204609F00D
:101E7000E3FD00F04FF8002010B070BDE01B000043
:101E800025732C25732C257300000000F8B505463A
:101E9000DFF8884A002020700121217086B009F007
:101EA0004FF81122ADF800206B4601AA05F026FB81
:101EB000FF23DFF83C28C721601C07F013FC461CF9
:101EC000B2B2C6F1C7010220A054761C891BB7B27A
:101ED00041F21113DFF8082889B2E01907F002FC7B
:101EE0008619B1B203206054761CB6B2C6F1C8019F
:101EF0002B466AA289B2A01907F0F4FB56FA80F0CB
:101F000080B204212154401C80B200222254204679
:101F100007B0F0BD42F21071DFF8D0070BF0F8BC4B
:101F2000F8B5044686B00D46012020701646298873
:101F30004A1E2A80112709F003F8ADF800706B469D
:101F400001AA05F0DBFA2988DFF8A427FF23601C2B
:101F500007F0C8FB471C2888C01BBAB228800221A2
:101F6000A1547F1C2988DFF87827C91B2980B8B2C3
:101F7000334689B2204407F0B5FBC719BAB2032132
:101F8000A1547F1C2F80012007B0F0BDCC71000050
:101F9000DC710000E87100002DE9F84386B00446CA
:101FA0008946C046C04606232C226946204605F0D5
:101FB000DBF907460FF2F400C046C0460026012FA9
:101FC0000CDB6C46B846A6A554F8040BC046C046C8
:101FD0002846C046C046B8F10108F5D1062F52D1B7
:101FE0000098DFF8F42A09F1040104F091F8471E83
:101FF0000198DFF8E82A09F10801BF4104F088F8E8
:10200000FF4300EAD77702987C1EDFF8D47A3A467D
:1020100009F10C01A44104F07BF8E44300EAD47414
:102020000298651E3A4609F11001AD4104F070F8BE
:10203000ED4300EAD57503986C1E3A4609F1140188
:10204000A44104F065F8E44300EAD4740398651EE3
:102050003A4609F11801AD4104F05AF8ED4300EA9F
:10206000D5750498DFF8582C6F1E4946BF4104F01F
:102070004FF8FF4310EAD77F0AD10FF24C00C04659
:10208000C046042604E00FF26000C046C0460326A6
:102090003046E1E0144F00009ABA002025580000B5
:1020A000AC09FF1FD80BFF1FAC0AFF1F0A50574D8A
:1020B00020536574205265636569766564205661B6
:1020C0006C756573203A00000A2050776D205365C7
:1020D0007456616C75652F73204F7574206F662080
:1020E00052616E67650000000A2050776D205365CD
:1020F0007456616C75652F7320496E76616C6964E6
:10210000000000002DE9F043044687B00FF2601094
:10211000DFF8B49BC046C0462046C046C0460723F1
:102120002C226946204605F01FF907464846C0465E
:10213000C0460025012F0CDB6C46B84648A654F873
:10214000040BC046C0463046C046C046B8F1010840
:10215000F5D1072F7AD108F0C7FE07460098102165
:1021600005F079FA441E0198A441402105F073FA64
:10217000E44300EAD4740298661EB641022105F0D9
:102180006AFAF643039A00EAD676711E89411078FE
:10219000C943002818BF302806D0312806D150780E
:1021A000401E8041C00F02E0012000E00020049AA0
:1021B00000EAD1711078002818BF302806D03128E5
:1021C00006D15078401E8041C00F02E0012000E09F
:1021D0000020059A01401078002818BF302806D04A
:1021E000312806D15078401E8041C00F02E0012006
:1021F00000E00020014223D0009A1121384607F068
:1022000071FA019A412107F1110007F06BFA029A65
:10221000032107F1520007F065FA03990A7807F1E4
:1022200055000270049B19784170059A11788170ED
:10223000012008F0DCFF0FF25800C046C0460AE05B
:1022400009F12C00C046C046042504E009F1540001
:10225000C046C0460325284607B0BDE8F08300000D
:102260002C000000B40AFF1FF0B900202CFD010073
:102270000D0A496E2050726F636573735365745A0B
:102280006967626565436F6E6669672D3E00000091
:102290000A5A696762656520436F6E666967202028
:1022A000536574002DE9FE4304460FF29000DFF8F9
:1022B000209AC046C0462046C046C04602232C2273
:1022C0006946204605F050F807464846C046C046D5
:1022D0000025012F0BDBE8463C4655A658F8040BB9
:1022E000C046C0463046C046C046641EF6D1022FE6
:1022F0001CD10098017861B130290DD0312904BF7B
:102300004078002808D009F130000BF004FB0425C8
:1023100011E04FF0FF3002E0A1F1300040B208F0D0
:1023200069FF0FF23400C046C04604E009F15C00CA
:10233000C046C0460325FEF706BD00000D0A496EE3
:102340002050726F6365737352657365745A696761
:102350006265654E572D3E000A5A696762656520C1
:10236000204E7720526573657420205365740000F9
:10237000B80AFF1F50FD01002DE9F0410446DB4E75
:102380008846002030700121317086B008F0D8FDF9
:102390001127ADF800706B4601AA05F0AFF842F2C4
:1023A0000F75FF23D24A2946701C07F09BF9471C82
:1023B000B9B2ED1B022070547F1CED1BA9B2BDB257
:1023C00042F20103C64A701907F08CF9C719B9B275
:1023D00003207F1C7054BFB242F21071C91BCDF8AC
:1023E000008023460FF24C0289B2F01907F07AF907
:1023F00057FA80F4A4B204203055641CDFF8C00AF8
:10240000C046C046A4B22046C046C046DFF8880B8E
:10241000C046C04621463046C046C046DFF87C0B69
:10242000C046C046FFF776FD002006B0BDE8F0814B
:102430002C00000025642C253030305800000000AE
:102440002DE9F847ADF5006DB9B00546C046C04668
:1024500003232C2203A9284604F086FF0646DFF852
:10246000440BC046C0460024002E0CDD0DF10C08C4
:1024700035469DA758F8040BC046C0463846C046AE
:10248000C0466D1EF6D1032E3ED103990878002870
:102490001FBF03AE71680878002835D003980A2260
:1024A000002105F0AFF8054670680A22002105F00A
:1024B000A9F80646AE4221D340F2012086421DD241
:1024C000E5B100962B46DFF8E02A322106A807F096
:1024D00009F906A8C046C046B3B2AAB2322106A87E
:1024E0000BF01DFA06460FF238200FF24C28C046BA
:1024F000C04600254FF0250A06AF38E0DFF8AC0AE9
:10250000C046C0460424E3E0DFF8A40AC046C04643
:102510000324DDE04179827942EA012201920DF53E
:10252000D47C007900900AFB05FE424624210CEB86
:102530000E0018E006A800EBC50043780178C278C9
:102540001B0443EA0163817843EA01231343002D0E
:10255000E0D17879B97941EA002101914246387990
:10256000009025216AA807F0BDF86D1CEDB2B542B8
:1025700001D2322DDEDB35465C4E42F210783470EB
:10258000ADF8088009F09BFA022841F21F070FF20C
:10259000581957D108F0D4FCCDE900013A4602A9F8
:1025A00030460BF0C1FABDF80870A8EB0700ADF893
:1025B0000800F4553046C046C0467A1E92B23146F5
:1025C000022009F05BFA0FF27C173846C046C0467D
:1025D0000C223946022009F051FAA0461EE06AA8F2
:1025E0000AFB08F147183846C046C046384607F08F
:1025F0009BF882B23946022009F040FAA5EB0800A8
:10260000022807D301224946022009F037FA48463A
:10261000C046C04608F101001FFA80F8A845DED385
:10262000FFF778FC5D20307022217D227170B2703E
:10263000F4703046C046C04603223146022009F0FD
:102640001DFA45E03A4602A93046FFF769FCBDF89D
:102650000870A8EB0700ADF808003A4631460020A4
:1026600009F00CFAF4553046C046C046A0461EE0BC
:102670006AA80AFB08F147183846C046C0463846E3
:1026800007F052F882B23946002009F0F7F9A5EBBD
:102690000800022807D301224946002009F0EEF97C
:1026A0004846C046C04608F101001FFA80F8A84518
:1026B000DED3FFF72FFC5D20042130707170B47001
:1026C00002223146002009F0D9F93046C046C04602
:1026D000FFF720FC0DF5006D20463AB0BDE8F0870D
:1026E000384A00000000FF1F2C000000284E002088
:1026F000304A0000EC08FF1F1809FF1F0C09FF1FDC
:102700001009FF1FA009FF1F0809FF1F8809FF1FED
:102710009409FF1F1409FF1F7C09FF1F7009FF1F89
:102720000D0A496E204150492050726F63657373E2
:10273000696E672D3E0000005B256C642C25642CBF
:1027400025645D002C2256414C554553223A225BAC
:10275000000000002DE9F04F0546D9B0DFF854081D
:10276000C046C0462846C046C04617232C2210A9A2
:10277000284604F0F9FD0646DFF83C08C046C0468E
:102780000024012E0CDB0DF14008354662A758F8F5
:10279000040BC046C0463846C046C0466D1EF6D142
:1027A000172E00F3AF801099087800281FBF10ADD6
:1027B00069680878002800F0A58010980A22002196
:1027C00004F020FF834668680A22002104F01AFF03
:1027D00005465D45C0F09080152D80F08D80BBF1E1
:1027E000000F00F0898000955B46DFF8BC2732219E
:1027F00003A806F077FF03A8C046C046A5EB0B056B
:102800006D1C0095F61EDFF8F00BC046C046009820
:10281000C046C046DFF8E40BC046C0463046C0465E
:10282000C0460098B04271D104F093FF054627A836
:102830002946C8220BF0ECF9ABF10108474627A85E
:1028400010AA00EB870102EB8700012601F1140AB0
:1028500000F10809CDF804B00AE00120064002D0DA
:1028600027A90120C8557F1C09F104090AF1040AAF
:10287000009801990818401E029002998F4211D2C7
:10288000D9F8003018780028E7D00A22002118462D
:1028900004F0B8FE83460120C0460028DED0CAF806
:1028A00000B0DAE7DDF800900F2F27AA05DA4AF822
:1028B000044BD4557F1C0F2FF9DBDFF8440BB6B166
:1028C000C046C046284627A9C8220BF0A1F90198A6
:1028D00005EB8801484401F11405461EB04516D2A7
:1028E00055F8040BC046C04608F10108F6E724304D
:1028F000C046C04604240AE0DFF8080BC046C046C4
:10290000042404E0DFF8000BC046C0460324D2E1F3
:102910006409FF1F9CF901002C000000A0B20020F8
:102920002DE9F04F044691B0DFF8E00AC046C046FA
:102930002046C046C04603232C2201A9204604F0AD
:1029400013FD0546DFF85C06C046C046012D4FF07A
:1029500000080BDB01AF2C465EA657F8040BC046FF
:10296000C0463046C046C046641EF6D1032D73D122
:102970000199087800281FBF01AC61680878002819
:102980006AD001980A22002104F03CFE05466068E6
:102990000A22002104F036FE0446AC4255D3152C21
:1029A00053D2002D51D0601B15284ED200942B46D7
:1029B000DFF8F425322104A806F094FE04A8C046EE
:1029C000C046DFF8007587F800800121397042F2B7
:1029D0000F7908F0B5FA1122ADF800206B4604AA71
:1029E00004F08CFDFF23DFF8282A4946781C06F006
:1029F00079FE461CB1B202207854A9EB0609761C78
:102A0000A9EB060081B21FFA86FC41F23703DFF81A
:102A1000042A07EB0C0006F065FE8619B1B203200C
:102A20007854761C42F21070A0EB060904F091FE77
:102A30000146284601EB8001354601F1100B1FFAD3
:102A400089F90FF2802A064618E0DFF8CC09C04663
:102A5000C0464FF004083CE0DFF8C009C046C0465D
:102A60004FF0030835E05BF8043BA8B252464946F4
:102A7000384406F037FE55FA80F5761CB442F2D29F
:102A80006C1EA1B204207854641CDFF83404C046E4
:102A9000C046A0B2C046C046DFF8FC04C046C046EF
:102AA000A1B23846C046C046DFF8F004C046C04672
:102AB0000AF0C2FE012803D1A2B23946022004E086
:102AC0000AF0BAFE18B9A2B2394608F0D7FFFFF7EC
:102AD00021FAF0E12C0000001F76000023760000B0
:102AE0001B7600002DE9F04F0546D9B00FF2E41037
:102AF000C046C0462846C046C04617232C2210A90F
:102B0000284604F031FC06460FF2E410C046C046E9
:102B10000024012E0CDB10AF35460FF2B01857F829
:102B2000040BC046C0464046C046C0466D1EF6D1A6
:102B3000172E00F3BB801099087800281FBF10AD36
:102B400069680878002800F0B18010980A220021F6
:102B500004F058FD834668680A22002104F052FD03
:102B600005465D45C0F09C80152D80F09980BBF135
:102B7000000F00F0958000955B46DFF82C24322191
:102B800003A806F0AFFD03A8C046C046A5EB0B05A1
:102B90006D1C0095F61EDFF86008C046C046009820
:102BA000C046C046DFF85408C046C0463046C0465E
:102BB000C0460098B0427DD104F0CBFD054627A861
:102BC0002946C8220BF024F8ABF1010627A83044AF
:102BD00000F1640727A910A801EB860200EB86012B
:102BE0004FF0010A02F1780801F10809CDF804B0AC
:102BF0000BE0012010EA0A0A1CBF01203870761C85
:102C000009F1040908F104087F1C009801990818CB
:102C1000401E029002998E4211D2D9F800301878E5
:102C20000028E6D00A220021184604F0EBFC834677
:102C30000120C0460028DDD0C8F800B0D9E7009FC9
:102C40000F2E0BDA27A800EB860101F1140027AB49
:102C500040F8044B9C55761C0F2EF9DBBAF1000F9F
:102C6000DFF89C0717D0C046C046284627A9C822CF
:102C70000AF0CEFF019E0198761E05EB8601C7196A
:102C800001F178057F1EBE4215D255F8040BC046EF
:102C9000C046761CF7E72430C046C04604240AE04C
:102CA000DFF86007C046C046042404E0DFF8580798
:102CB000C046C0460324204659B0BDE8F08F00004E
:102CC0002776000025642C00BCEF01002C000000DA
:102CD0009CEC01000D0A496E2050726F636573739E
:102CE000536574547261636B496E666F2D3E0000CC
:102CF0000A547261636B20496E666F20526563658A
:102D0000697665642056616C756573203A00000031
:102D10002DE9F04F044691B00FF2AC10C046C0460A
:102D20002046C046C04603232C2201A9204604F0B9
:102D30001BFB05469B48C046C046012D4FF00008CE
:102D40000BDB01AF2C4693A657F8040BC046C046D8
:102D50003046C046C046641EF6D1032D71D101999C
:102D6000087800281FBF01AC61680878002868D087
:102D700001980A22002104F045FC054660680A22F9
:102D8000002104F03FFC0446AC4253D3152C51D231
:102D9000002D4FD0601B15284CD200942B46824A40
:102DA000322104A806F09EFC04A8C046C046454F48
:102DB00087F800800121397042F20F7908F0C0F8DD
:102DC0001122ADF800206B4604AA04F097FBFF2304
:102DD000DFF83C264946781C06F084FC461CB1B25C
:102DE00002207854A9EB0609761CA9EB060081B2F3
:102DF0001FFA86FC41F23803DFF8182607EB0C00B7
:102E000006F070FC8619B1B203207854761C42F2A9
:102E10001070A0EB060904F09CFC0146284601EB6B
:102E20008001354601F1740B1FFA89F90FF2701A0F
:102E3000064618E0DFF8E005C046C0464FF004083B
:102E400039E0DFF8D805C046C0464FF0030832E04D
:102E50005BF8043BA8B252464946384406F042FCAF
:102E600055FA80F5761CB442F2D26C1EA1B2042051
:102E70007854641C1248C046C046A0B2C046C04642
:102E80004548C046C046A1B23846C046C046434841
:102E9000C046C0460AF0D0FC012803D1A2B2394690
:102EA000022004E00AF0C8FC18B9A2B2394608F0C2
:102EB000E5FDFFF72FF8404611B0BDE8F08F0000A8
:102EC000CC710000284E00200D0A496E2050726F10
:102ED00063657373476574547261636B496E666FA3
:102EE0002D3E00002DE9F843044688B00FF2CC00D7
:102EF000C046C0462046C046C04604F02EFC81466F
:102F000002232C226946204604F02EFA07460FF2CF
:102F1000CC00C046C0460025012F0BDBE8463C46EE
:102F20001CA658F8040BC046C0463046C046C046F2
:102F3000641EF6D1022F24D1009806F0F5FB00B3F1
:102F4000009806F0F1FB112805D3DFF8680BC046A6
:102F5000C04604251AE00FF2A400C046C0460098FF
:102F600004F0A9FAC9E9000102AB1420ADF8080089
:102F700003AAD9E9000104F0C1FA03A8C046C0467B
:102F800004E0DFF84C0DC046C0460325284609B0D2
:102F9000BDE8F0832C000000DC710000E871000047
:102FA00025642C00E06B0000BC5B000070F60100A3
:102FB00094F60100D42C0000F02C00000D0A496E9C
:102FC0002050726F636573732053657420436C6582
:102FD000616E6572204D41432D3E00000A436C65D1
:102FE000616E6572204D4143205265636569766567
:102FF000642056616C756573203A00000A20436CAA
:1030000065616E6572204D41432053657456616C55
:1030100075652F7320736574203A20002DE9F04FF9
:10302000ADF5C06DA5B0002104468DF80410DFF8A1
:10303000880AC046C0462046C046C0462B232C22E4
:1030400012A9204604F090F90646DFF8704A20469F
:10305000C046C046012E0CDB12ADB146A0A755F804
:10306000040BC046C0463846C046C046B9F1010907
:10307000F5D12B2E00F3B6811299087800281FBFD6
:1030800012AF79680878002800F0AC8112980A2203
:10309000002104F0B7FA814678680A22002104F082
:1030A000B1FA05464D45C0F09781152D80F0948109
:1030B000B9F1000F00F0908100954B46DFF8182C15
:1030C000322105A806F00EFB05A8C046C046A5EBB8
:1030D00009056D1C0095361FC748C046C0460098BC
:1030E000C046C046C548C046C0463046C046C04639
:1030F00000984000B04240F0798104F030FB02902B
:103100003DA80299DFF8D48B4FF4B4620AF080FD39
:10311000B868012506F012FA0128C8F800006BD142
:1031200000994944491EA9F1010A3DA80391761C62
:10313000032700EBCA040DF15408049607E00120B0
:1031400005400AF1010ABF1C08F108080834039879
:10315000824525D20499B94222D3D8F80030187894
:1031600048B10A220021184604F04CFA0646012014
:10317000C04608B126600120D8F804300540187810
:10318000261D0028DBD00A220021184604F03AFA56
:1031900083460120C0460028D2D0C6F800B0CEE752
:1031A000002D00F02681DFF8380BC046C04602989B
:1031B0003DA94FF4B4620AF02BFD00990298A9F1E1
:1031C000010A894400EBCA07A9F101040FF224287F
:1031D00043A5A24580F00D813868C046C046284608
:1031E000C046C0467868C046C0464046C046C04655
:1031F0000AF1010A0837ECE7022873D1761C04961D
:10320000A9F1010A3DA800EBCA01009E032701F1C4
:10321000480815AC09E001209DF8005005400AF16E
:10322000010ABF1C083408F1080809EB0600401E1B
:1032300003900398824527D20499B94224D3236886
:10324000187850B10A220021184604F0DBF98346B1
:103250000120C04610B1C8F800B0012005408DF82B
:10326000005008F10405636818780028D3D00A22BA
:103270000021184604F0C6F983460120C046002804
:10328000CAD0C5F800B0C6E7002D00F0B280DFF864
:10329000500AC046C04602983DA94FF4B4620AF0F5
:1032A000B7FC0298A9F1010A00EBCA014E4401F1F2
:1032B0004807761E4FA50FF22809B24580F0998085
:1032C0003868C046C0464846C046C0467868C046D2
:1032D000C0462846C046C0460AF1010A0837ECE756
:1032E0002C00000003286FD1761C0496A9F1010A76
:1032F0003DA800EBCA01009E032701F1900815AC20
:1033000009E001209DF8005005400AF1010ABF1CA8
:10331000083408F1080809EB0600401E03900398E2
:10332000824527D20499B94224D32368187850B132
:103330000A220021184604F065F983460120C046A0
:1033400010B1C8F800B0012005408DF8005008F118
:103350000405636818780028D3D00A220021184693
:1033600004F050F983460120C0460028CAD0C5F8B1
:1033700000B0C6E7002D3CD0DFF86409C046C04667
:1033800002983DA94FF4B4620AF042FC0298A9F1F8
:10339000010A00EBCA014E4401F19007761E15A503
:1033A0000FF23839B24524D23868C046C046484684
:1033B000C046C0467868C046C0462846C046C0469B
:1033C0000AF1010A0837EDE704208DF8040004F142
:1033D0002400C046C0460CE004F14C00C046C04684
:1033E000042004E004F17000C046C04603208DF8BC
:1033F00004007BE220200000E0590000FC5900009E
:1034000034E9010084E90100A8E90100C82E0000A8
:10341000304A0000384A000070F401009CF40100BA
:103420002DE9F84F044692B0DFF85C0AC046C0466A
:103430002046C046C04604232C2201A9204603F0A2
:1034400093FF0546DFF8440AC046C046002D4FF002
:1034500000080BDD01AF2C46A0A657F8040BC046B0
:10346000C0463046C046C046641EF6D1042D40F02A
:1034700095800199087800281FBF01AD6968087818
:10348000002800F08B8001980A22002104F0BAF88D
:10349000044668680A22002104F0B4F80546A542F3
:1034A00017D3292D15D2A4B1281B292811D2009594
:1034B0002346DFF82428322105A806F013F905A8D1
:1034C000C046C046039806F039F8DFF8D41B086000
:1034D00005E0DFF8D00BC046C0464FF004086D1E73
:1034E000B8F1000FA4F1010A40F0F480DFF8B87BD6
:1034F00087F8008001213970112407F021FDADF813
:1035000000406B4605AA03F0F9FF42F20F76FF2355
:10351000DFF8982B3146781C06F0E4F8441CA1B281
:10352000361B02207854641C361BB1B2A6B241F29D
:103530004103DFF87C2BB81906F0D4F80419A1B2C6
:1035400003207854641C04F00AF9DFF8541B09685E
:1035500042F21076361B012927D100EBCA0BB6B216
:10356000DFF8509B5545C0F08A805BF8043BA0B261
:103570004A463146384406F0B5F854FA80F45BF810
:10358000043B1FFA84FC4A46314607EB0C0006F068
:10359000A9F854FA80F40AF1010AE3E7DFF8180BFE
:1035A000C046C0464FF0030894E0022921D100EB49
:1035B000CA0000F1480BB6B2DFF8F89A55455ED361
:1035C0005BF8043BA0B24A463146384406F08AF81C
:1035D00054FA80F45BF8043B1FFA84FC4A463146F7
:1035E00007EB0C0006F07EF854FA80F40AF1010AA9
:1035F000E4E7032921D100EBCA0000F1900BB6B239
:10360000DFF8B09A55453AD35BF8043BA0B24A467E
:103610003146384406F066F854FA80F45BF8043B0F
:103620001FFA84FC4A46314607EB0C0006F05AF8B4
:1036300054FA80F40AF1010AE4E704291FD100EBEF
:10364000CA0BB6B2DFF86C9A17E05BF8043BA0B285
:103650004A463146384406F045F854FA80F45BF89F
:10366000043B1FFA84FC4A46314607EB0C0006F087
:1036700039F854FA80F40AF1010A5545E5D2641E7E
:10368000A1B204207854641CDFF8300AC046C0465A
:10369000A0B2C046C046DFF8280AC046C046A1B264
:1036A0003846C046C046DFF81804C046C0460AF097
:1036B000C3F8012803D1A2B23946022004E00AF07F
:1036C000BBF818B9A2B2394608F0D8F9FEF722FCC7
:1036D000FEF720FC404613B0BDE8F08F2C00000040
:1036E0002DE9F04FADF5C06DA5B0002104468DF871
:1036F0000410DFF8C403C046C0462046C046C0469A
:103700002B232C220DF5BD61204603F02DFE05462E
:10371000DFF8A803C046C046012D0CDB0DF5BD6ADD
:103720002C4676A75AF8040BC046C0463846C04619
:10373000C046641EF6D12B2D00F3D180DDF8E815CC
:10374000087800281FBF0DF5BD646168087800285F
:1037500000F0C580DDF8E8050A22002103F052FFE1
:10376000834660680A22002103F04CFF04465C4552
:10377000C0F0AF80152C80F0AC80BBF1000F00F0E2
:10378000A88000945B46DFF85025322105A805F09B
:10379000A9FF05A8C046C046A4EB0B04641C029414
:1037A000ED1EDFF8D80AC046C0460298C046C046A3
:1037B000DFF8CC0AC046C0462846C046C04602983C
:1037C0004000A84240F08F8003F0C9FF049012A887
:1037D00004994FF4B4620AF01BFAABF10104A2465B
:1037E00012A800EBCA010126022701F5F0780DF5B9
:1037F000BE69CDF80CB00AE001209DF800600640DB
:103800000AF1010ABF1C09F1080908F10808029829
:1038100003990818401E009000998A4528D2BD429D
:1038200026D3D9F80030187850B10A220021184662
:1038300003F0E8FE83460120C04610B1C8F800B08E
:10384000012006408DF8006008F10406D9F8043024
:1038500018780028D0D00A220021184603F0D2FEA2
:1038600083460120C0460028C7D0C6F800B0C3E791
:10387000029D36B3DFF86804C046C046049812A91A
:103880004FF4B4620AF0C4F9049800EBC401039841
:10389000451901F5F0776D1E0FF210280FF25C0A42
:1038A000AC4223D23868C046C0465046C046C046E7
:1038B0007868C046C0464046C046C046641C0837CB
:1038C000EEE704208DF80400DFF8C80BC046C046C0
:1038D0000CE0DFF8C40BC046C046042004E0DFF86B
:1038E000BC0BC046C04603208DF804009DF80400C0
:1038F0000DF5C06D25B0BDE8F08F00002C00000074
:103900002DE9F04F044691B0DFF87C05C046C04673
:103910002046C046C04603232C2201A9204603F0BE
:1039200023FD0546DFF86405C046C046012D4FF073
:1039300000080BDB01AE2C465DA756F8040BC04611
:10394000C0463846C046C046641EF6D1032D6DD130
:103950000199087800281FBF01AD69680878002820
:1039600064D001980A22002103F04CFE04466868E6
:103970000A22002103F046FE0546A5424FD3152D2D
:103980004DD2002C4BD0281B152848D20095234639
:10399000D14A322104A805F0A5FE04A8C046C046BD
:1039A000DFF80477DFF80CA787F800800121397071
:1039B000A5F1010B07F0C4FA1125ADF800506B46D4
:1039C00004AA03F09BFD42F20F75FF23DFF8DC260B
:1039D0002946781C05F086FE461CB1B2AD1B0220BC
:1039E0007854761CAD1BA9B2B5B241F24203DFF8A0
:1039F000C026781905F076FE8619B1B203207854F6
:103A0000761C42F21070A0EB060903F0A8FE641EBB
:103A100000EBC40000F5F0751FFA89F924E0DFF827
:103A20008406C046C0464FF004083CE0DFF8880634
:103A3000C046C0464FF0030835E055F8043BB0B22D
:103A400052464946381805F04DFE56FA80F655F8AC
:103A5000043B1FFA86FC5246494607EB0C0005F072
:103A600041FE56FA80F6641CA345E6D2741EA1B24C
:103A700004207854641CDFF84406C046C046A0B257
:103A8000C046C046DFF83806C046C046A1B2384638
:103A9000C046C0460A48C046C046A1B2384607F0F4
:103AA000CBFFFEF737FAFFF706BA00002020000030
:103AB0002C000000BCF601006C4C000064EA010020
:103AC000E87100002DE9F04FADF5C06DA5B0002103
:103AD00004468DF80410DFF87C0BC046C046204633
:103AE000C046C0462B232C220DF5BD61204603F0B5
:103AF0003BFC0546DFF8600BC046C046012D0CDBE1
:103B00000DF5BD6A2C4673A75AF8040BC046C04693
:103B10003846C046C046641EF6D12B2D00F3CF8038
:103B2000DDF8E815087800281FBF0DF5BD64616851
:103B30000878002800F0C380DDF8E8050A2200219B
:103B400003F060FD834660680A22002103F05AFDFD
:103B500004465C45C0F0AD80152C80F0AA80BBF116
:103B6000000F00F0A68000945B465B4A322105A856
:103B700005F0B8FD05A8C046C046A4EB0B04641CC4
:103B80000294ED1EDFF8F406C046C0460298C04617
:103B9000C046DFF8EC06C046C0462846C046C046D0
:103BA00002984000A84240F08E8003F0D8FD0490B7
:103BB00012A804994FF4B4620AF02AF8ABF1010498
:103BC000A24612A800EBCA010126022701F52078BF
:103BD0000DF5BE69CDF80CB00AE001209DF800603B
:103BE00006400AF1010ABF1C09F1080908F108089A
:103BF000029803990818401E009000998A4528D21F
:103C0000BD4226D3D9F80030187850B10A220021DD
:103C1000184603F0F7FC83460120C04610B1C8F8EF
:103C200000B0012006408DF8006008F10406D9F8C4
:103C3000043018780028D0D00A220021184603F05A
:103C4000E1FC83460120C0460028C7D0C6F800B07A
:103C5000C3E7029D2EB32248C046C046049812A96D
:103C60004FF4B46209F0D4FF049800EBC401039848
:103C7000451901F520776D1E0FF204280FF2540A42
:103C8000AC4223D23868C046C0465046C046C04603
:103C90007868C046C0464046C046C046641C0837E7
:103CA000EEE704208DF80400DFF8E807C046C046C0
:103CB0000CE0DFF8E407C046C046042004E0DFF86B
:103CC000DC07C046C04603208DF804000EE6000065
:103CD000E4F601002C000000BC5B000028BB0020C3
:103CE0008C4C00002DE9F04F044691B06648C04668
:103CF000C0462046C046C04603232C2201A92046C8
:103D000003F032FB05466148C046C046012D4FF026
:103D100000080BDB01AE2C465AA756F8040BC04630
:103D2000C0463846C046C046641EF6D1032D6AD14F
:103D30000199087800281FBF01AD6968087800283C
:103D400061D001980A22002103F05CFC04466868F7
:103D50000A22002103F056FC0546A5424DD3152D3D
:103D60004BD2002C49D0281B152846D2009523465B
:103D7000DFF8FC2A322104A805F0B4FC04A8C046F0
:103D8000C046C94FDFF82CA387F8008001213970A5
:103D9000A5F1010B07F0D4F81125ADF800506B46E2
:103DA00004AA03F0ABFB42F20F75FF23BF4A29467A
:103DB000781C05F097FC461CB1B2AD1B022078546C
:103DC000761CAD1BA9B2B5B241F24303B84A7819CB
:103DD00005F088FC8619B1B203207854761C42F2B3
:103DE0001070A0EB060903F0BAFC641E00EBC400DF
:103DF00000F520751FFA89F922E0AA48C046C0469E
:103E00004FF004083AE0AC48C046C0464FF0030803
:103E100034E055F8043BB0B252464946381805F034
:103E200061FC56FA80F655F8043B1FFA86FC5246B0
:103E3000494607EB0C0005F055FC56FA80F6641C69
:103E4000A345E6D2741EA1B204207854641C9B489A
:103E5000C046C046A0B2C046C0469948C046C0460B
:103E6000A1B23846C046C046DFF8BC0BC046C046CB
:103E7000A1B2384607F0E0FDFEF74CF8FFF71BB89B
:103E8000202000002C000000284E0000484E0000BA
:103E90002DE9F04FADF5C06DA5B0002104468DF8B9
:103EA0000410DFF8B007C046C0462046C046C046F2
:103EB0002B232C220DF5BD61204603F055FA054653
:103EC000DFF89407C046C046012D0CDB0DF5BD6A36
:103ED0002C4672A75AF8040BC046C0463846C04666
:103EE000C046641EF6D12B2D00F3CF80DDF8E81517
:103EF000087800281FBF0DF5BD64616808780028A8
:103F000000F0C380DDF8E8050A22002103F07AFB07
:103F1000834660680A22002103F074FB04465C4576
:103F2000C0F0AD80152C80F0AA80BBF1000F00F02E
:103F3000A68000945B46DFF83829322105A805F0F9
:103F4000D1FB05A8C046C046A4EB0B04641C029438
:103F5000ED1ECA48C046C0460298C046C046C84882
:103F6000C046C0462846C046C04602984000A84207
:103F700040F08F8003F0F3FB049012A804994FF4F3
:103F8000B46209F045FEABF10104A24612A800EBB1
:103F9000CA010126022701F548780DF5BE69CDF862
:103FA0000CB00AE001209DF8006006400AF1010A09
:103FB000BF1C09F1080908F10808029803990818BC
:103FC000401E009000998A4528D2BD4226D3D9F8D8
:103FD0000030187850B10A220021184603F012FB75
:103FE00083460120C04610B1C8F800B00120064049
:103FF0008DF8006008F10406D9F80430187800281C
:10400000D0D00A220021184603F0FCFA8346012092
:10401000C0460028C7D0C6F800B0C3E7029D36B33B
:10402000DFF8080AC046C046049812A94FF4B462EB
:1040300009F0EEFD049800EBC4010398451901F561
:1040400048776D1E0FF22C280FF2500AAC4223D293
:104050003868C046C0465046C046C0467868C0462C
:10406000C0464046C046C046641C0837EEE7042000
:104070008DF80400DFF81C04C046C0460CE0DFF8F1
:104080001804C046C046042004E0DFF81004C0460F
:10409000C04603208DF8040028E400002C00000036
:1040A0002CBB0020C8F40100284E0020304A00003C
:1040B000384A0000DC5B0000F4F40100CC71000021
:1040C000DC7100002DE9F04F044691B0DFF8840B5D
:1040D000C046C0462046C046C04603232C2201A944
:1040E000204603F041F90546DFF86C0BC046C04698
:1040F000012D4FF000080BDB01AE2C465EA756F8F1
:10410000040BC046C0463846C046C046641EF6D1C1
:10411000032D6ED10199087800281FBF01AD696891
:104120000878002865D001980A22002103F06AFA75
:10413000044668680A22002103F064FA0546A54295
:1041400050D3152D4ED2002C4CD0281B152849D207
:1041500000952346DFF81827322104A805F0C2FA9B
:1041600004A8C046C046DFF8F47ADFF8F4AA87F85E
:10417000008001213970A5F1010B06F0E1FE112547
:10418000ADF800506B4604AA03F0B8F942F20F757F
:10419000FF23DFF8D02A2946781C05F0A3FA461C35
:1041A000B1B2AD1B02207854761CAD1BA9B2B5B2DA
:1041B00041F24403DFF8B02A781905F093FA861922
:1041C000B1B203207854761C42F21070A0EB0609BD
:1041D00003F0C5FA641E00EBC40000F548751FFA31
:1041E00089F924E0DFF8300CC046C0464FF00408DF
:1041F0003DE0DFF8280CC046C0464FF0030836E02B
:1042000055F8043BB0B252464946381805F06AFAF0
:1042100056FA80F655F8043B1FFA86FC524649468A
:1042200007EB0C0005F05EFA56FA80F6641CA34515
:10423000E6D2741EA1B204207854641CDFF8E00BAF
:10424000C046C046A0B2C046C046DFF8D80BC04644
:10425000C046A1B23846C046C046DFF8CC07C046CB
:10426000C046A1B2384607F0E7FBFDF753FEFEF764
:1042700022BE0000202000002C000000E0590000B9
:10428000FC5900002DE9F04FADF5C06DA5B000213F
:1042900004468DF80410DFF8BC03C046C046204633
:1042A000C046C0462B232C220DF5BD61204603F0ED
:1042B0005BF80546DFF8A003C046C046012D0CDBC5
:1042C0000DF5BD6A2C4672A75AF8040BC046C046CD
:1042D0003846C046C046641EF6D12B2D00F3CF8071
:1042E000DDF8E815087800281FBF0DF5BD6461688A
:1042F0000878002800F0C380DDF8E8050A220021D4
:1043000003F080F9834660680A22002103F07AF9FD
:1043100004465C45C0F0AE80152C80F0AB80BBF14C
:10432000000F00F0A78000945B46DFF8442532219F
:1043300005A805F0D7F905A8C046C046A4EB0B04B4
:10434000641C0294ED1EDFF8180CC046C0460298AB
:10435000C046C046DFF80C0CC046C0462846C046E2
:10436000C04602984000A84240F08C8003F0F7F964
:10437000049012A804994FF4B46209F049FCABF11F
:104380000104A24612A800EBCA010126022701F58A
:1043900070780DF5BE69CDF80CB00AE001209DF8EB
:1043A000006006400AF1010ABF1C09F1080908F182
:1043B0000808029803990818401E009000998A4541
:1043C00028D2BD4226D3D9F80030187850B10A223D
:1043D0000021184603F016F983460120C04610B1AB
:1043E000C8F800B0012006408DF8006008F104060E
:1043F000D9F8043018780028D0D00A2200211846B5
:1044000003F000F983460120C0460028C7D0C6F853
:1044100000B0C3E7029D36B3DFF81006C046C046C1
:10442000049812A94FF4B46209F0F2FB049800EB6F
:10443000C4010398451901F570776D1E0FF20C2821
:104440000FF24C0AAC4220D23868C046C0465046F3
:10445000C046C0467868C046C0464046C046C046D2
:10446000641C0837EEE704208DF804000948C046B4
:10447000C0460AE00848C046C046042003E007489A
:10448000C046C04603208DF80400FFF72FBA000095
:104490002C00000088EA0100B0EA0100D4EA010023
:1044A0002DE9F04F044691B0DFF8A807C046C0469A
:1044B0002046C046C04603232C2201A9204602F014
:1044C00053FF0546DFF89007C046C046012D4FF068
:1044D00000080BDB01AE2C465DA756F8040BC04666
:1044E000C0463846C046C046641EF6D1032D6DD185
:1044F0000199087800281FBF01AD69680878002875
:1045000064D001980A22002103F07CF80446686810
:104510000A22002103F076F80546A5424FD3152D57
:104520004DD2002C4BD0281B152848D2009523468D
:10453000CF4A322104A805F0D5F804A8C046C046E9
:10454000DFF81877DFF818A787F8008001213970A5
:10455000A5F1010B06F0F4FC1125ADF800506B46F7
:1045600004AA02F0CBFF42F20F75FF230FF2C04204
:104570002946781C05F0B6F8461CB1B2AD1B0220E6
:104580007854761CAD1BA9B2B5B241F245030FF2C7
:10459000A842781905F0A6F88619B1B2032078541C
:1045A000761C42F21070A0EB060903F0D8F8641EE6
:1045B00000EBC40000F570751FFA89F924E0DFF8FC
:1045C0005808C046C0464FF004083DE0DFF84C08EC
:1045D000C046C0464FF0030836E055F8043BB0B281
:1045E00052464946381805F07DF856FA80F655F8D7
:1045F000043B1FFA86FC5246494607EB0C0005F0C7
:1046000071F856FA80F6641CA345E6D2741EA1B276
:1046100004207854641CDFF80808C046C046A0B2E5
:10462000C046C046DFF8FC07C046C046A1B23846C7
:10463000C046C046DFF8F003C046C046A1B23846C7
:1046400007F0FAF9FDF766FCFEF735BC2020000004
:104650002C0000006C4C000064EA01002DE9F04FD2
:10466000ADF5C06DA5B0002104468DF80410DFF84B
:10467000300BC046C0462046C046C0462B232C22E5
:104680000DF5BD61204602F06FFE0546DFF8140B04
:10469000C046C046012D0CDB0DF5BD6A2C4673A744
:1046A0005AF8040BC046C0463846C046C046641E91
:1046B000F6D12B2D00F3D080DDF8E815087800281E
:1046C0001FBF0DF5BD6461680878002800F0C48044
:1046D000DDF8E8050A22002102F094FF83466068B5
:1046E0000A22002102F08EFF04465C45C0F0AE8035
:1046F000152C80F0AB80BBF1000F00F0A780009478
:104700005B465B4A322105A804F0ECFF05A8C046D1
:10471000C046A4EB0B04641C0294ED1EDFF84008B5
:10472000C046C0460298C046C046DFF83808C046BA
:10473000C0462846C046C04602984000A84240F005
:104740008F8003F00CF8049012A804994FF4B4621F
:1047500009F05EFAABF10104A24612A800EBCA010F
:104760000126022701F58C680DF5BE69CDF80CB065
:104770000AE001209DF8006006400AF1010ABF1C12
:1047800009F1080908F10808029803990818401E61
:10479000009000998A4528D2BD4226D3D9F800302E
:1047A000187850B10A220021184602F02BFF8346E8
:1047B0000120C04610B1C8F800B0012006408DF8B5
:1047C000006008F10406D9F8043018780028D0D029
:1047D0000A220021184602F015FF83460120C04638
:1047E0000028C7D0C6F800B0C3E7029D36B30FF269
:1047F0009C40C046C046049812A94FF4B46209F028
:1048000007FA049800EBC4010398451901F58C6779
:104810006D1E0FF20C280FF2540AAC4223D23868F6
:10482000C046C0465046C046C0467868C046C046EE
:104830004046C046C046641C0837EEE704208DF8A9
:104840000400DFF80C0BC046C0460CE0DFF8040B98
:10485000C046C046042004E0DFF8600CC046C046F5
:1048600003208DF80400FFF741B800002C00000081
:10487000BC5B00002DE9F04F044691B0DFF8D40393
:10488000C046C0462046C046C04603232C2201A98C
:10489000204602F069FD0546DFF8BC03C046C0466D
:1048A000012D4FF000080BDB01AE2C465DA756F83A
:1048B000040BC046C0463846C046C046641EF6D10A
:1048C000032D6DD10199087800281FBF01AD6968DB
:1048D0000878002864D001980A22002102F092FE94
:1048E000044668680A22002102F08CFE0546A542B3
:1048F0004FD3152D4DD2002C4BD0281B152848D254
:1049000000952346DFF8BC2B322104A804F0EAFE10
:1049100004A8C046C046D14FDFF844A387F8008002
:1049200001213970A5F1010B06F00AFB1125ADF844
:1049300000506B4604AA02F0E1FD42F20F75FF231E
:104940000FF2EC022946781C04F0CCFE461CB1B2F2
:10495000AD1B02207854761CAD1BA9B2B5B241F252
:1049600046030FF2D402781904F0BCFE8619B1B2E6
:1049700003207854761C42F21070A0EB060902F076
:10498000EEFE641E00EBC40000F58C651FFA89F989
:1049900024E0DFF88404C046C0464FF004083CE041
:1049A000DFF87804C046C0464FF0030835E055F8FC
:1049B000043BB0B252464946381804F093FE56FA0A
:1049C00080F655F8043B1FFA86FC5246494607EB31
:1049D0000C0004F087FE56FA80F6641CA345E6D26C
:1049E000741EA1B204207854641CDFF83404C0465D
:1049F000C046A0B2C046C046DFF82804C046C04644
:104A0000A1B23846C046C0460748C046C046A1B21B
:104A1000384607F011F8FDF77DFAFEF74CBA0000B2
:104A2000202000002C000000E87100008C4C0000E9
:104A300025303258000000002530345800000000B6
:104A40002DE9F04FADF5C06DA5B0002104468DF8FD
:104A500004100FF21820C046C0462046C046C0468B
:104A60002B232C220DF5BD61204602F07DFC05466E
:104A7000DFF83007C046C046012D0CDB0DF5BD6ADE
:104A80002C4673A75AF8040BC046C0463846C046A9
:104A9000C046641EF6D12B2D00F3D180DDF8E81559
:104AA000087800281FBF0DF5BD64616808780028EC
:104AB00000F0C580DDF8E8050A22002102F0A2FD21
:104AC000834660680A22002102F09CFD04465C4592
:104AD000C0F0AF80152C80F0AC80BBF1000F00F06F
:104AE000A88000945B46DFF8DC29322105A804F099
:104AF000F9FD05A8C046C046A4EB0B04641C029453
:104B0000ED1EDFF85C04C046C0460298C046C046B1
:104B1000DFF85004C046C0462846C046C04602984A
:104B20004000A84240F08F8002F019FE049012A8C5
:104B300004994FF4B46209F06BF8ABF10104A2469A
:104B400012A800EBCA010126022701F5A0680DF5A5
:104B5000BE69CDF80CB00AE001209DF80060064067
:104B60000AF1010ABF1C09F1080908F108080298B6
:104B700003990818401E009000998A4528D2BD422A
:104B800026D3D9F80030187850B10A2200211846EF
:104B900002F038FD83460120C04610B1C8F800B0CD
:104BA000012006408DF8006008F10406D9F80430B1
:104BB00018780028D0D00A220021184602F022FDE1
:104BC00083460120C0460028C7D0C6F800B0C3E71E
:104BD000029D36B30FF2B400C046C046049812A935
:104BE0004FF4B46209F014F8049800EBC401039880
:104BF000451901F5A0676D1E0FF218280FF2500A33
:104C0000AC4223D23868C046C0465046C046C04673
:104C10007868C046C0464046C046C046641C083757
:104C2000EEE704208DF80400DFF82407C046C046F4
:104C30000CE0DFF82007C046C046042004E0DFF89F
:104C40007C08C046C04603208DF80400FEF74EBE27
:104C50002C000000284E0000484E0000284E002086
:104C6000DC5B0000304A0000384A00000D0A496E43
:104C70002050726F63657373536574526F774C6520
:104C80006E677468446174612D3E00000A20526FA3
:104C900077204C656E6774682053657456616C7537
:104CA000652F7320736574203A2000002DE9F847C2
:104CB000044691B00FF27010C046C0462046C04670
:104CC000C04603232C2201A9204602F04DFB0546D5
:104CD0000FF27410C046C0460026012D0DDB0DF109
:104CE00004092C460FF2742859F8040BC046C0463C
:104CF0004046C046C046641EF6D1032D4BD10199F3
:104D0000087800281FBF01AD69680878002842D0E4
:104D100001980A22002102F075FC044668680A2204
:104D2000002102F06FFC0746A7422FD3152F2DD28A
:104D300064B3381B152829D200972346DFF884274F
:104D4000322104A804F0CEFC04A8C046C046DFF817
:104D5000409C42F2107889F80060ADF8008041F282
:104D6000470269464846FDF7DBF8BDF80050A8EB5E
:104D70000500ADF80000641E02F0F1FC00EBC40079
:104D80007F1E00F5A06ADFF80C8C20E02248C046A8
:104D9000C04604263AE02148C046C046032635E016
:104DA0005AF8043BBDF80010A8B24246484404F04B
:104DB00099FC55FA80F55AF8043BBDF80010A8B2EA
:104DC0004246484404F08EFC55FA80F5641CA74224
:104DD000E6D26C1EA1B2042009F80100641C104840
:104DE000C046C046A0B2C046C0460E48C046C046F7
:104DF000A1B24846C046C046DFF89C0BC046C0463C
:104E0000A1B2484606F018FEFDF784F8304600F0DF
:104E1000E4BC000020200000C8F40100F4F401000C
:104E2000CC710000DC7100000D0A496E2050726FD9
:104E300063657373476574526F774C656E6774680A
:104E4000446174612D3E00000A526571756573748A
:104E500020526F77204C656E6774682056616C75C0
:104E60006573203A000000002DE9F043DFF8204B85
:104E7000002085B0207042F21076ADF8106041F24B
:104E8000250204A92046FDF74BF8BDF81050761B0B
:104E9000ADF8106008F000FF064608F01FFF074657
:104EA00008F03EFF804604F0CAFC814604F0C0FCD6
:104EB0000346BDF810100FF25C0203960297CDF87E
:104EC0000480CDF80090601904F00CFC55FA80F5D0
:104ED000AAB20421A1546D1CDFF8C00AC046C04626
:104EE000A8B2C046C046DFF8B80AC046C046A9B25C
:104EF0002046C046C046DFF8A00AC046C046A9B258
:104F0000204606F099FDFDF705F8002005B0BDE844
:104F1000F083000025642C25642C25642C25642C4A
:104F2000256400007CB5DFF8684A0020207042F25A
:104F30001075ADF8005041F2260269462046FCF794
:104F4000EFFFBDF80060AD1BADF8005002F009FCAA
:104F50000368BDF8001090A200F0C8BE2C0000004D
:104F6000E0590000FC5900002DE9FE4F0546DFF82E
:104F70002C9C4846C046C0462846C046C04602F063
:104F8000F0FB0446022326682C226946284602F0DC
:104F9000EBF9054609F12800C046C046002755B385
:104FA000EA46A8460FF2F41B5AF8040BC046C04666
:104FB0005846C046C046B8F10108F5D1022D1AD1B5
:104FC000009B187840B10A220021184602F01AFB13
:104FD00006460120C04640B1266009F18400C04663
:104FE000C0462068C046C0460AE009F15400C046E9
:104FF000C046042704E009F1AC00C046C0460327C0
:10500000384601F044BA98B504460FF2640008F03F
:1050100082FC2046C046C04602F09BFB044602F0DC
:105020009EFB014604F114021420002742F8047B81
:1050300004F8017B0F6001F5F0734F601F605F6043
:1050400001F520731F605F6001F548731F605F60AA
:1050500001F570731F605F6001F58C631F605F6016
:1050600001F5A0630831401E1F605F60DED192BD74
:105070000D0A436C656172547261636B496E666FB1
:10508000000000002DE9F841044683B00FF2B8009B
:10509000C046C0462046C046C04602232C2201A975
:1050A000204602F061F90646DFF8DC0BC046C04638
:1050B0000025012E0CDB0DF10408344637A758F803
:1050C000040BC046C0463846C046C046641EF6D1F2
:1050D000022E30D1019B187848B10A2200211846CF
:1050E00002F090FA044602F08FFA50B100949DF855
:1050F000000010B1012808D00EE006F073FD00207A
:1051000006E00425DFF8300C12E006F06BFD01200C
:1051100002F0EEFA06F0EFFCDFF81C4C04F124007C
:10512000C046C0469DF80000C046C04604F1480095
:10513000C046C04604E0DFF8040CC046C046032564
:10514000284604B0BDE8F0810D0A496E2050726F08
:10515000636573735365745463436F6E74726F6CDD
:105160004D6F64652D3E00007CB5DFF824480020BB
:10517000207042F21075ADF8005041F227026946E6
:105180002046FCF7CDFEBDF80060AD1BADF8005029
:1051900002F0AAFA00F0A6BD256C64002C00000005
:1051A0006C4C000064EA01002DE9F04F0546E3B0C5
:1051B000DFF88C0BC046C0462846C046C0461723C1
:1051C0002C2210A9284602F0CFF80646DFF8740B0F
:1051D000C046C0460024002E0CDD0DF140083546C7
:1051E0005AA758F8040BC046C0463846C046C046C9
:1051F0006D1EF6D1172E00F3A380109908780028B1
:105200001FBF10AD69680878002800F099801098D9
:105210000A22002102F0F6F9834668680A2200217A
:1052200002F0F0F905465D45C0F08480152D80F050
:105230008180BBF1000F7DD000955B46A14A3221F1
:1052400003A804F04FFA03A8C046C046A5EB0B051F
:105250006D1C0095DFF81C0CC046C0460098C04687
:10526000C046DFF8140CC046C046F01EC046C0461B
:105270000098002868D002F06EFA054627A8294653
:10528000F02208F0C5FC502127A808F041FBABF143
:105290000108474610A800EB870127AA012601F163
:1052A000080902EB870ACDF804B006E001200640A9
:1052B0007F1C0AF1040A09F10409009801990818F1
:1052C000401E029002998F4211D2D9F8003018780E
:1052D0000028EBD00A220021184602F093F98346F9
:1052E0000120C0460028E2D0CAF800B0DEE7009FE7
:1052F000D6B1DFF8880BC046C046284627A9F02261
:1053000008F086FC0198C71905EB88057F1E6CA67E
:10531000B8451AD255F8040BC046C0463046C046C0
:10532000C04608F10108F3E7DFF8440CC046C04668
:1053300004240AE0DFF83C0CC046C046042404E024
:10534000DFF88C0CC046C046032490E12C0000001E
:1053500088EA0100B0EA01002DE9F847044691B05F
:10536000DFF8740CC046C0462046C046C046032342
:105370002C2201A9204601F0F7FF0546DFF85C0C5E
:10538000C046C0460027012D0CDB01AE2C460FF2B3
:10539000E82856F8040BC046C0464046C046C04602
:1053A000641EF6D1032D49D10199087800281FBF4A
:1053B00001AC61680878002840D001980A220021D9
:1053C00002F020F9064660680A22002102F01AF96C
:1053D0000546B5422CD3152D2AD24EB3A81B15284D
:1053E00026D200953346374A322104A804F07AF9D0
:1053F00004A8C046C046DFF8988542F2107988F8C4
:105400000070ADF8009041F2390269464046FCF761
:1054100087FDBDF80040A9EB0400ADF8000002F0E4
:105420009AF900EB8600A0F1040ADFF8689517E00E
:10543000DFF8B00BC046C04604273DE0DFF8A80BFC
:10544000C046C046032737E05AF8043BBDF80010B9
:10545000A0B24A46404404F045F954FA80F4761C60
:10546000B542F1D2641EA1B2042008F80100641C08
:10547000DFF82805C046C046A0B2C046C046DFF8E7
:105480002005C046C046A1B24046C046C046DFF82F
:105490000805C046C04608F0CFF9012803D1A2B2E2
:1054A0004146022004E008F0C7F918B9A2B241460B
:1054B00006F0E4FAFCF72EFD8EE10000D4EA0100CC
:1054C000202C0000BC5B00002DE9F04F0546E3B046
:1054D0000FF2D040C046C0462846C046C0461723FB
:1054E0002C2210A9284601F03FFF06460FF2D040BB
:1054F000C046C0460024012E0CDB0DF140083546A5
:105500005DA758F8040BC046C0463846C046C046A2
:105510006D1EF6D1172E00F3A5801099087800288B
:105520001FBF10AD69680878002800F09B801098B4
:105530000A22002102F066F8834668680A220021E8
:1055400002F060F805465D45C0F08680152D80F0BC
:105550008380BBF1000F00F07F8000955B46DFF891
:10556000342C322103A804F0BDF803A8C046C0467D
:10557000A5EB0B056D1C00950FF26440C046C046BC
:105580000098C046C0460FF27440C046C046F01EA8
:10559000C046C0460098002868D002F0DCF80546F6
:1055A00027A82946F02208F033FBABF10108474653
:1055B00027A810AA00EB870102EB8700012601F162
:1055C000500900F1080ACDF804B006E001200640B9
:1055D0007F1C0AF1040A09F10409009801990818CE
:1055E000401E029002998F4211D2DAF800301878EA
:1055F0000028EBD00A220021184602F003F8834667
:105600000120C0460028E2D0C9F800B0DEE7009FC4
:10561000E6B10FF20040C046C046284627A9F02256
:1056200008F0F6FA019805EB8801C71901F1500559
:105630007F1E6BA6B8451AD255F8040BC046C0466B
:105640003046C046C04608F10108F3E7DFF82009FC
:10565000C046C04604240AE0DFF81809C046C04628
:10566000042404E0DFF86809C046C046032420464D
:1056700063B0BDE8F08F00002C0000002DE9F84772
:10568000044691B00FF21850C046C0462046C046AE
:10569000C04603232C2201A9204601F065FE0546E1
:1056A000DFF83809C046C0460027012D0CDB01AEEB
:1056B0002C460FF2D82856F8040BC046C046404688
:1056C000C046C046641EF6D1032D4AD10199087820
:1056D00000281FBF01AC61680878002841D00198FC
:1056E0000A22002101F08EFF064660680A2200218E
:1056F00001F088FF0546B5422DD3152D2BD256B3A8
:10570000A81B152827D2009533460FF2B04232214C
:1057100004A803F0E7FF04A8C046C046DFF8708283
:1057200042F2107988F80070ADF800904FF4825280
:1057300069464046FCF7F4FBBDF80040A9EB0400C5
:10574000ADF8000002F007F800EB860000F14C0A0B
:105750000FF2884917E0DFF88C08C046C0460427DE
:105760003AE0DFF88408C046C046032734E05AF820
:10577000043BBDF80010A0B24A46404403F0B2FF1B
:1057800054FA80F4761CB542F1D2641EA1B2042012
:1057900008F80100641C8148C046C046A0B2C0465B
:1057A000C0467F48C046C046A1B24046C046C0463B
:1057B0007948C046C04608F03FF8012803D1A2B29C
:1057C0004146022004E008F037F818B9A2B2414679
:1057D00006F054F9FCF79EFB384612B0BDE8F0879E
:1057E000202C00002DE9F04F0546E3B00FF2B41075
:1057F000C046C0462846C046C04617232C2210A9E2
:10580000284601F0B1FD06460FF2B410C046C0466E
:105810000024012E0CDB0DF1400835465BA758F83B
:10582000040BC046C0463846C046C0466D1EF6D181
:10583000172E00F3A5801099087800281FBF10AD1F
:1058400069680878002800F09B8010980A220021DF
:1058500001F0D8FE834668680A22002101F0D2FEDA
:1058600005465D45C0F08680152D80F08380BBF134
:10587000000F00F07F8000955B460FF2403232212E
:1058800003A803F02FFF03A8C046C046A5EB0B05F5
:105890006D1C00950FF24810C046C0460098C046E7
:1058A000C0460FF25810C046C046F01EC046C04663
:1058B0000098002868D001F04EFF054627A8294629
:1058C000F02208F0A5F9ABF10108474627A810AA75
:1058D00000EB870102EB8700012601F1A00900F12E
:1058E000080ACDF804B006E0012006407F1C0AF14A
:1058F000040A09F10409009801990818401E029051
:1059000002998F4211D2DAF8003018780028EBD0D3
:105910000A220021184601F075FE83460120C04688
:105920000028E2D0C9F800B0DEE7009FE6B10FF230
:10593000E400C046C046284627A9F02208F068F9CE
:10594000019805EB8801C71901F1A0057F1E92A6F9
:10595000B8451AD255F8040BC046C0463046C0467A
:10596000C04608F10108F3E7DFF80406C046C04668
:1059700004240AE0DFF8FC05C046C046042404E025
:10598000DFF81408C046C046032470E62C0000006F
:10599000284E0020DC5B0000E8710000CC710000A4
:1059A000DC7100000D0A496E2050726F63657373DD
:1059B00053657452666964446174612D3E00000051
:1059C0000A52464944204461746120526563656906
:1059D0007665642056616C756573203A000000009E
:1059E0000D0A4E6F206F6620646174612061732020
:1059F00070657220496E6465782D3E000D0A416322
:105A00007475616C206E6F206F6620646174612D07
:105A10003E0000000A20524649442044617461203F
:105A200053657456616C75652F7320736574203AE5
:105A3000200000002DE9F847044691B00FF26010F5
:105A4000C046C0462046C046C04603232C2201A9BA
:105A5000204601F089FC0546DFF88005C046C046B7
:105A60000027012D0CDB01AE2C460FF2C82856F89A
:105A7000040BC046C0464046C046C046641EF6D130
:105A8000032D4AD10199087800281FBF01AC616835
:105A90000878002841D001980A22002101F0B2FDC7
:105AA000064660680A22002101F0ACFD0546B542B9
:105AB0002DD3152D2BD256B3A81B152827D2009510
:105AC00033460FF2F802322104A803F00BFE04A8BB
:105AD000C046C046DFF80C8C42F2107988F800709E
:105AE000ADF8009041F24A0269464046FCF718FAC8
:105AF000BDF80040A9EB0400ADF8000001F02BFE5A
:105B000000EB860000F19C0A0FF2D00917E0DFF8E5
:105B1000D404C046C04604273DE0DFF8CC04C046AC
:105B2000C046032737E05AF8043BBDF80010A0B286
:105B30004A46404403F0D6FD54FA80F4761CB54240
:105B4000F1D2641EA1B2042008F80100641CDFF841
:105B5000400CC046C046A0B2C046C046DFF8340C78
:105B6000C046C046A1B24046C046C046DFF82C0C35
:105B7000C046C04607F060FE012803D1A2B24146EC
:105B8000022004E007F058FE18B9A2B2414605F021
:105B900075FFFCF7BFF91FE6202C0000A8E001000C
:105BA0000D0A496E2050726F6365737347657452B6
:105BB000666964446174612D3E0000000A5374619B
:105BC0007274496E646578203D2025642C20456EF2
:105BD00064496E646578203D20256400256C642C42
:105BE00000000000F0B5044683B00FF2A000C046EC
:105BF000C0462046C046C04602232C2201A92046AA
:105C000001F0B2FB05460FF2A000C046C046012DD0
:105C10000BDB01AE2C4647A756F8040BC046C04626
:105C20003846C046C046641EF6D1022D23D1019BE2
:105C3000187848B10A220021184601F0E3FC044616
:105C400001F0E2FC98B100949DF8000008F0D9F84A
:105C5000394D05F19C00C046C0469DF80000C04685
:105C6000C04605F1C000C046C046002408E03248E6
:105C7000C046C046ECE7DFF8240DC046C04603240A
:105C8000204603B0F0BD0000A85C00000D0A496E7C
:105C90002050726F63657373536574526669645301
:105CA000746174652D3E00000A737461746520563A
:105CB000616C756573203A007CB5DFF8284A0020D6
:105CC000207042F21075ADF8005041F22902694689
:105CD0002046FCF725F9BDF80060AD1BADF800507B
:105CE00008F093F80346BDF80010B8A2A01903F01D
:105CF000F9FC56FA80F5AAB20421A1546D1CDFF814
